{
  "contractName": "Bookfood",
  "abi": [
    {
      "inputs": [
        {
          "internalType": "address payable",
          "name": "_beneficiary",
          "type": "address"
        }
      ],
      "stateMutability": "nonpayable",
      "type": "constructor"
    },
    {
      "anonymous": false,
      "inputs": [
        {
          "indexed": true,
          "internalType": "uint256",
          "name": "id",
          "type": "uint256"
        },
        {
          "indexed": false,
          "internalType": "string",
          "name": "name",
          "type": "string"
        },
        {
          "indexed": false,
          "internalType": "string",
          "name": "img",
          "type": "string"
        },
        {
          "indexed": false,
          "internalType": "string",
          "name": "detail",
          "type": "string"
        },
        {
          "indexed": false,
          "internalType": "uint256",
          "name": "categoryId",
          "type": "uint256"
        },
        {
          "indexed": false,
          "internalType": "uint256",
          "name": "price",
          "type": "uint256"
        },
        {
          "indexed": false,
          "internalType": "bool",
          "name": "isVegan",
          "type": "bool"
        },
        {
          "indexed": false,
          "internalType": "bool",
          "name": "isGlutenFree",
          "type": "bool"
        },
        {
          "indexed": false,
          "internalType": "uint256",
          "name": "totalStars",
          "type": "uint256"
        },
        {
          "indexed": false,
          "internalType": "uint256",
          "name": "totalRatings",
          "type": "uint256"
        },
        {
          "indexed": false,
          "internalType": "address",
          "name": "addedBy",
          "type": "address"
        },
        {
          "indexed": false,
          "internalType": "uint256",
          "name": "timestamp",
          "type": "uint256"
        },
        {
          "indexed": false,
          "internalType": "string",
          "name": "time",
          "type": "string"
        }
      ],
      "name": "FoodAdded",
      "type": "event"
    },
    {
      "anonymous": false,
      "inputs": [
        {
          "indexed": true,
          "internalType": "address",
          "name": "sender",
          "type": "address"
        },
        {
          "indexed": true,
          "internalType": "address",
          "name": "receiver",
          "type": "address"
        },
        {
          "indexed": false,
          "internalType": "string",
          "name": "message",
          "type": "string"
        },
        {
          "indexed": false,
          "internalType": "uint256",
          "name": "timestamp",
          "type": "uint256"
        }
      ],
      "name": "NewMessage",
      "type": "event"
    },
    {
      "anonymous": false,
      "inputs": [
        {
          "indexed": true,
          "internalType": "uint256",
          "name": "id",
          "type": "uint256"
        },
        {
          "indexed": true,
          "internalType": "address",
          "name": "customer",
          "type": "address"
        },
        {
          "indexed": false,
          "internalType": "uint256",
          "name": "discount",
          "type": "uint256"
        },
        {
          "indexed": false,
          "internalType": "uint256",
          "name": "totalPrice",
          "type": "uint256"
        },
        {
          "indexed": false,
          "internalType": "enum Bookfood.OrderStatus",
          "name": "status",
          "type": "uint8"
        },
        {
          "indexed": false,
          "internalType": "enum Bookfood.Payment",
          "name": "payment",
          "type": "uint8"
        },
        {
          "indexed": false,
          "internalType": "bool",
          "name": "isReviewed",
          "type": "bool"
        },
        {
          "indexed": false,
          "internalType": "bool",
          "name": "isPay",
          "type": "bool"
        },
        {
          "indexed": false,
          "internalType": "string",
          "name": "note",
          "type": "string"
        },
        {
          "indexed": false,
          "internalType": "uint256",
          "name": "timestamp",
          "type": "uint256"
        }
      ],
      "name": "OrderPlacedEvent",
      "type": "event"
    },
    {
      "anonymous": false,
      "inputs": [
        {
          "indexed": false,
          "internalType": "uint256",
          "name": "orderId",
          "type": "uint256"
        },
        {
          "indexed": true,
          "internalType": "address",
          "name": "customer",
          "type": "address"
        },
        {
          "indexed": false,
          "internalType": "enum Bookfood.OrderStatus",
          "name": "status",
          "type": "uint8"
        }
      ],
      "name": "OrderStatusUpdated",
      "type": "event"
    },
    {
      "inputs": [],
      "name": "beneficiary",
      "outputs": [
        {
          "internalType": "address payable",
          "name": "",
          "type": "address"
        }
      ],
      "stateMutability": "view",
      "type": "function",
      "constant": true
    },
    {
      "inputs": [
        {
          "internalType": "uint256",
          "name": "",
          "type": "uint256"
        }
      ],
      "name": "categories",
      "outputs": [
        {
          "internalType": "uint256",
          "name": "id",
          "type": "uint256"
        },
        {
          "internalType": "string",
          "name": "name",
          "type": "string"
        }
      ],
      "stateMutability": "view",
      "type": "function",
      "constant": true
    },
    {
      "inputs": [
        {
          "internalType": "uint256",
          "name": "",
          "type": "uint256"
        }
      ],
      "name": "foods",
      "outputs": [
        {
          "internalType": "uint256",
          "name": "id",
          "type": "uint256"
        },
        {
          "internalType": "string",
          "name": "name",
          "type": "string"
        },
        {
          "internalType": "string",
          "name": "img",
          "type": "string"
        },
        {
          "internalType": "string",
          "name": "detail",
          "type": "string"
        },
        {
          "internalType": "uint256",
          "name": "categoryId",
          "type": "uint256"
        },
        {
          "internalType": "uint256",
          "name": "price",
          "type": "uint256"
        },
        {
          "internalType": "bool",
          "name": "isVegan",
          "type": "bool"
        },
        {
          "internalType": "bool",
          "name": "isGlutenFree",
          "type": "bool"
        },
        {
          "internalType": "uint256",
          "name": "totalStars",
          "type": "uint256"
        },
        {
          "internalType": "uint256",
          "name": "totalRatings",
          "type": "uint256"
        },
        {
          "internalType": "string",
          "name": "time",
          "type": "string"
        }
      ],
      "stateMutability": "view",
      "type": "function",
      "constant": true
    },
    {
      "inputs": [
        {
          "internalType": "uint256",
          "name": "",
          "type": "uint256"
        }
      ],
      "name": "orderDetailCount",
      "outputs": [
        {
          "internalType": "uint256",
          "name": "",
          "type": "uint256"
        }
      ],
      "stateMutability": "view",
      "type": "function",
      "constant": true
    },
    {
      "inputs": [
        {
          "internalType": "uint256",
          "name": "",
          "type": "uint256"
        },
        {
          "internalType": "uint256",
          "name": "",
          "type": "uint256"
        }
      ],
      "name": "orderDetails",
      "outputs": [
        {
          "internalType": "uint256",
          "name": "foodId",
          "type": "uint256"
        },
        {
          "internalType": "uint256",
          "name": "quantity",
          "type": "uint256"
        },
        {
          "internalType": "uint256",
          "name": "price",
          "type": "uint256"
        }
      ],
      "stateMutability": "view",
      "type": "function",
      "constant": true
    },
    {
      "inputs": [
        {
          "internalType": "uint256",
          "name": "",
          "type": "uint256"
        }
      ],
      "name": "orders",
      "outputs": [
        {
          "internalType": "uint256",
          "name": "id",
          "type": "uint256"
        },
        {
          "internalType": "address",
          "name": "customer",
          "type": "address"
        },
        {
          "internalType": "uint256",
          "name": "discount",
          "type": "uint256"
        },
        {
          "internalType": "uint256",
          "name": "totalPrice",
          "type": "uint256"
        },
        {
          "internalType": "enum Bookfood.OrderStatus",
          "name": "status",
          "type": "uint8"
        },
        {
          "internalType": "enum Bookfood.Payment",
          "name": "payment",
          "type": "uint8"
        },
        {
          "internalType": "bool",
          "name": "isReviewed",
          "type": "bool"
        },
        {
          "internalType": "bool",
          "name": "isPay",
          "type": "bool"
        },
        {
          "internalType": "string",
          "name": "note",
          "type": "string"
        }
      ],
      "stateMutability": "view",
      "type": "function",
      "constant": true
    },
    {
      "inputs": [
        {
          "internalType": "address",
          "name": "",
          "type": "address"
        }
      ],
      "name": "points",
      "outputs": [
        {
          "internalType": "uint256",
          "name": "",
          "type": "uint256"
        }
      ],
      "stateMutability": "view",
      "type": "function",
      "constant": true
    },
    {
      "inputs": [
        {
          "internalType": "uint256",
          "name": "",
          "type": "uint256"
        }
      ],
      "name": "ratingCountPerFood",
      "outputs": [
        {
          "internalType": "uint256",
          "name": "",
          "type": "uint256"
        }
      ],
      "stateMutability": "view",
      "type": "function",
      "constant": true
    },
    {
      "inputs": [
        {
          "internalType": "uint256",
          "name": "",
          "type": "uint256"
        },
        {
          "internalType": "uint256",
          "name": "",
          "type": "uint256"
        }
      ],
      "name": "ratings",
      "outputs": [
        {
          "internalType": "uint256",
          "name": "id",
          "type": "uint256"
        },
        {
          "internalType": "uint256",
          "name": "foodId",
          "type": "uint256"
        },
        {
          "internalType": "address",
          "name": "user",
          "type": "address"
        },
        {
          "internalType": "string",
          "name": "review",
          "type": "string"
        },
        {
          "internalType": "uint256",
          "name": "stars",
          "type": "uint256"
        }
      ],
      "stateMutability": "view",
      "type": "function",
      "constant": true
    },
    {
      "inputs": [
        {
          "internalType": "uint256",
          "name": "",
          "type": "uint256"
        }
      ],
      "name": "restaurants",
      "outputs": [
        {
          "internalType": "uint256",
          "name": "id",
          "type": "uint256"
        },
        {
          "internalType": "string",
          "name": "name",
          "type": "string"
        },
        {
          "internalType": "string",
          "name": "houseNumber",
          "type": "string"
        },
        {
          "internalType": "string",
          "name": "street",
          "type": "string"
        },
        {
          "internalType": "string",
          "name": "ward",
          "type": "string"
        },
        {
          "internalType": "string",
          "name": "district",
          "type": "string"
        },
        {
          "internalType": "string",
          "name": "city",
          "type": "string"
        },
        {
          "internalType": "address",
          "name": "owner",
          "type": "address"
        }
      ],
      "stateMutability": "view",
      "type": "function",
      "constant": true
    },
    {
      "inputs": [
        {
          "internalType": "uint256",
          "name": "_orderId",
          "type": "uint256"
        }
      ],
      "name": "processPayment",
      "outputs": [],
      "stateMutability": "payable",
      "type": "function",
      "payable": true
    },
    {
      "inputs": [
        {
          "internalType": "string",
          "name": "_name",
          "type": "string"
        },
        {
          "internalType": "string",
          "name": "_houseNumber",
          "type": "string"
        },
        {
          "internalType": "string",
          "name": "_street",
          "type": "string"
        },
        {
          "internalType": "string",
          "name": "_ward",
          "type": "string"
        },
        {
          "internalType": "string",
          "name": "_district",
          "type": "string"
        },
        {
          "internalType": "string",
          "name": "_city",
          "type": "string"
        }
      ],
      "name": "addRestaurant",
      "outputs": [],
      "stateMutability": "nonpayable",
      "type": "function"
    },
    {
      "inputs": [
        {
          "internalType": "string",
          "name": "_name",
          "type": "string"
        }
      ],
      "name": "addCategory",
      "outputs": [],
      "stateMutability": "nonpayable",
      "type": "function"
    },
    {
      "inputs": [
        {
          "internalType": "string",
          "name": "_name",
          "type": "string"
        },
        {
          "internalType": "string",
          "name": "_detail",
          "type": "string"
        },
        {
          "internalType": "uint256",
          "name": "_categoryId",
          "type": "uint256"
        },
        {
          "internalType": "uint256",
          "name": "_price",
          "type": "uint256"
        },
        {
          "internalType": "bool",
          "name": "_isVegan",
          "type": "bool"
        },
        {
          "internalType": "bool",
          "name": "_isGlutenFree",
          "type": "bool"
        },
        {
          "internalType": "string",
          "name": "img",
          "type": "string"
        },
        {
          "internalType": "string",
          "name": "_time",
          "type": "string"
        }
      ],
      "name": "addFood",
      "outputs": [],
      "stateMutability": "nonpayable",
      "type": "function"
    },
    {
      "inputs": [
        {
          "internalType": "uint256",
          "name": "_idOrder",
          "type": "uint256"
        },
        {
          "internalType": "string[]",
          "name": "_reviews",
          "type": "string[]"
        },
        {
          "internalType": "uint256[]",
          "name": "_stars",
          "type": "uint256[]"
        }
      ],
      "name": "addRating",
      "outputs": [],
      "stateMutability": "nonpayable",
      "type": "function"
    },
    {
      "inputs": [
        {
          "internalType": "enum Bookfood.Payment",
          "name": "_payment",
          "type": "uint8"
        },
        {
          "internalType": "uint256[]",
          "name": "_foodIds",
          "type": "uint256[]"
        },
        {
          "internalType": "uint256[]",
          "name": "_quantities",
          "type": "uint256[]"
        },
        {
          "internalType": "bool",
          "name": "UsePoint",
          "type": "bool"
        },
        {
          "internalType": "string",
          "name": "note",
          "type": "string"
        }
      ],
      "name": "placeOrder",
      "outputs": [],
      "stateMutability": "nonpayable",
      "type": "function"
    },
    {
      "inputs": [
        {
          "internalType": "uint256",
          "name": "_orderId",
          "type": "uint256"
        },
        {
          "internalType": "enum Bookfood.OrderStatus",
          "name": "_status",
          "type": "uint8"
        }
      ],
      "name": "updateOrderStatus",
      "outputs": [],
      "stateMutability": "nonpayable",
      "type": "function"
    },
    {
      "inputs": [
        {
          "internalType": "address",
          "name": "receiver",
          "type": "address"
        },
        {
          "internalType": "string",
          "name": "messageText",
          "type": "string"
        }
      ],
      "name": "sendMessage",
      "outputs": [],
      "stateMutability": "nonpayable",
      "type": "function"
    },
    {
      "inputs": [
        {
          "internalType": "address",
          "name": "userA",
          "type": "address"
        },
        {
          "internalType": "address",
          "name": "userB",
          "type": "address"
        }
      ],
      "name": "getMyMessages",
      "outputs": [
        {
          "components": [
            {
              "internalType": "address",
              "name": "sender",
              "type": "address"
            },
            {
              "internalType": "address",
              "name": "receiver",
              "type": "address"
            },
            {
              "internalType": "string",
              "name": "message",
              "type": "string"
            },
            {
              "internalType": "uint256",
              "name": "timestamp",
              "type": "uint256"
            }
          ],
          "internalType": "struct Bookfood.Message[]",
          "name": "",
          "type": "tuple[]"
        }
      ],
      "stateMutability": "view",
      "type": "function",
      "constant": true
    },
    {
      "inputs": [],
      "name": "getAllMessages",
      "outputs": [
        {
          "components": [
            {
              "internalType": "address",
              "name": "sender",
              "type": "address"
            },
            {
              "internalType": "address",
              "name": "receiver",
              "type": "address"
            },
            {
              "internalType": "string",
              "name": "message",
              "type": "string"
            },
            {
              "internalType": "uint256",
              "name": "timestamp",
              "type": "uint256"
            }
          ],
          "internalType": "struct Bookfood.Message[]",
          "name": "",
          "type": "tuple[]"
        }
      ],
      "stateMutability": "view",
      "type": "function",
      "constant": true
    },
    {
      "inputs": [],
      "name": "getAllRestaurants",
      "outputs": [
        {
          "components": [
            {
              "internalType": "uint256",
              "name": "id",
              "type": "uint256"
            },
            {
              "internalType": "string",
              "name": "name",
              "type": "string"
            },
            {
              "internalType": "string",
              "name": "houseNumber",
              "type": "string"
            },
            {
              "internalType": "string",
              "name": "street",
              "type": "string"
            },
            {
              "internalType": "string",
              "name": "ward",
              "type": "string"
            },
            {
              "internalType": "string",
              "name": "district",
              "type": "string"
            },
            {
              "internalType": "string",
              "name": "city",
              "type": "string"
            },
            {
              "internalType": "address",
              "name": "owner",
              "type": "address"
            }
          ],
          "internalType": "struct Bookfood.Restaurant[]",
          "name": "",
          "type": "tuple[]"
        }
      ],
      "stateMutability": "view",
      "type": "function",
      "constant": true
    },
    {
      "inputs": [],
      "name": "getAllFoods",
      "outputs": [
        {
          "components": [
            {
              "internalType": "uint256",
              "name": "id",
              "type": "uint256"
            },
            {
              "internalType": "string",
              "name": "name",
              "type": "string"
            },
            {
              "internalType": "string",
              "name": "img",
              "type": "string"
            },
            {
              "internalType": "string",
              "name": "detail",
              "type": "string"
            },
            {
              "internalType": "uint256",
              "name": "categoryId",
              "type": "uint256"
            },
            {
              "internalType": "uint256",
              "name": "price",
              "type": "uint256"
            },
            {
              "internalType": "bool",
              "name": "isVegan",
              "type": "bool"
            },
            {
              "internalType": "bool",
              "name": "isGlutenFree",
              "type": "bool"
            },
            {
              "internalType": "uint256",
              "name": "totalStars",
              "type": "uint256"
            },
            {
              "internalType": "uint256",
              "name": "totalRatings",
              "type": "uint256"
            },
            {
              "internalType": "string",
              "name": "time",
              "type": "string"
            }
          ],
          "internalType": "struct Bookfood.Food[]",
          "name": "",
          "type": "tuple[]"
        }
      ],
      "stateMutability": "view",
      "type": "function",
      "constant": true
    },
    {
      "inputs": [],
      "name": "getAllCategory",
      "outputs": [
        {
          "components": [
            {
              "internalType": "uint256",
              "name": "id",
              "type": "uint256"
            },
            {
              "internalType": "string",
              "name": "name",
              "type": "string"
            }
          ],
          "internalType": "struct Bookfood.FoodCategory[]",
          "name": "",
          "type": "tuple[]"
        }
      ],
      "stateMutability": "view",
      "type": "function",
      "constant": true
    },
    {
      "inputs": [],
      "name": "getOrdersBySender",
      "outputs": [
        {
          "components": [
            {
              "internalType": "uint256",
              "name": "id",
              "type": "uint256"
            },
            {
              "internalType": "address",
              "name": "customer",
              "type": "address"
            },
            {
              "internalType": "uint256",
              "name": "discount",
              "type": "uint256"
            },
            {
              "internalType": "uint256",
              "name": "totalPrice",
              "type": "uint256"
            },
            {
              "internalType": "enum Bookfood.OrderStatus",
              "name": "status",
              "type": "uint8"
            },
            {
              "internalType": "enum Bookfood.Payment",
              "name": "payment",
              "type": "uint8"
            },
            {
              "internalType": "bool",
              "name": "isReviewed",
              "type": "bool"
            },
            {
              "internalType": "bool",
              "name": "isPay",
              "type": "bool"
            },
            {
              "internalType": "string",
              "name": "note",
              "type": "string"
            }
          ],
          "internalType": "struct Bookfood.Order[]",
          "name": "",
          "type": "tuple[]"
        }
      ],
      "stateMutability": "view",
      "type": "function",
      "constant": true
    },
    {
      "inputs": [
        {
          "internalType": "uint256",
          "name": "_orderId",
          "type": "uint256"
        }
      ],
      "name": "getOrderDetails",
      "outputs": [
        {
          "components": [
            {
              "internalType": "uint256",
              "name": "foodId",
              "type": "uint256"
            },
            {
              "internalType": "uint256",
              "name": "quantity",
              "type": "uint256"
            },
            {
              "internalType": "uint256",
              "name": "price",
              "type": "uint256"
            }
          ],
          "internalType": "struct Bookfood.DetailOrder[]",
          "name": "",
          "type": "tuple[]"
        }
      ],
      "stateMutability": "view",
      "type": "function",
      "constant": true
    },
    {
      "inputs": [
        {
          "internalType": "uint256",
          "name": "_foodId",
          "type": "uint256"
        }
      ],
      "name": "getRatingsForFood",
      "outputs": [
        {
          "components": [
            {
              "internalType": "uint256",
              "name": "id",
              "type": "uint256"
            },
            {
              "internalType": "uint256",
              "name": "foodId",
              "type": "uint256"
            },
            {
              "internalType": "address",
              "name": "user",
              "type": "address"
            },
            {
              "internalType": "string",
              "name": "review",
              "type": "string"
            },
            {
              "internalType": "uint256",
              "name": "stars",
              "type": "uint256"
            }
          ],
          "internalType": "struct Bookfood.Rating[]",
          "name": "",
          "type": "tuple[]"
        }
      ],
      "stateMutability": "view",
      "type": "function",
      "constant": true
    },
    {
      "inputs": [
        {
          "internalType": "string",
          "name": "_keyword",
          "type": "string"
        }
      ],
      "name": "searchRestaurants",
      "outputs": [
        {
          "components": [
            {
              "internalType": "uint256",
              "name": "id",
              "type": "uint256"
            },
            {
              "internalType": "string",
              "name": "name",
              "type": "string"
            },
            {
              "internalType": "string",
              "name": "houseNumber",
              "type": "string"
            },
            {
              "internalType": "string",
              "name": "street",
              "type": "string"
            },
            {
              "internalType": "string",
              "name": "ward",
              "type": "string"
            },
            {
              "internalType": "string",
              "name": "district",
              "type": "string"
            },
            {
              "internalType": "string",
              "name": "city",
              "type": "string"
            },
            {
              "internalType": "address",
              "name": "owner",
              "type": "address"
            }
          ],
          "internalType": "struct Bookfood.Restaurant[]",
          "name": "",
          "type": "tuple[]"
        }
      ],
      "stateMutability": "view",
      "type": "function",
      "constant": true
    },
    {
      "inputs": [
        {
          "internalType": "string",
          "name": "_keyword",
          "type": "string"
        }
      ],
      "name": "searchFood",
      "outputs": [
        {
          "components": [
            {
              "internalType": "uint256",
              "name": "id",
              "type": "uint256"
            },
            {
              "internalType": "string",
              "name": "name",
              "type": "string"
            },
            {
              "internalType": "string",
              "name": "img",
              "type": "string"
            },
            {
              "internalType": "string",
              "name": "detail",
              "type": "string"
            },
            {
              "internalType": "uint256",
              "name": "categoryId",
              "type": "uint256"
            },
            {
              "internalType": "uint256",
              "name": "price",
              "type": "uint256"
            },
            {
              "internalType": "bool",
              "name": "isVegan",
              "type": "bool"
            },
            {
              "internalType": "bool",
              "name": "isGlutenFree",
              "type": "bool"
            },
            {
              "internalType": "uint256",
              "name": "totalStars",
              "type": "uint256"
            },
            {
              "internalType": "uint256",
              "name": "totalRatings",
              "type": "uint256"
            },
            {
              "internalType": "string",
              "name": "time",
              "type": "string"
            }
          ],
          "internalType": "struct Bookfood.Food[]",
          "name": "",
          "type": "tuple[]"
        }
      ],
      "stateMutability": "view",
      "type": "function",
      "constant": true
    }
  ],
  "bytecode": "0x60806040523480156200001157600080fd5b506040516200527f3803806200527f83398101604081905262000034916200005a565b600a80546001600160a01b0319166001600160a01b03929092169190911790556200008c565b6000602082840312156200006d57600080fd5b81516001600160a01b03811681146200008557600080fd5b9392505050565b6151e3806200009c6000396000f3fe6080604052600436106101b75760003560e01c8063aab3196d116100ec578063ce31a6841161008a578063e7253aa911610064578063e7253aa914610570578063e9d8ba471461059d578063ec7dd7bb146105ff578063feb8d5541461062c57600080fd5b8063ce31a6841461050e578063d21d6f1514610530578063de6f24bb1461055057600080fd5b8063af73e89e116100c6578063af73e89e1461048b578063b9b5aae6146104ab578063c1fa671e146104c0578063c6cdbe5e146104e057600080fd5b8063aab3196d14610417578063ad5461d814610437578063ad71acbd1461046b57600080fd5b8063482ef36011610159578063877344001161013357806387734400146103715780638f2c280514610393578063a7e39520146103b5578063a85c38ef146103e257600080fd5b8063482ef360146102f157806353f5e380146103225780635ac88c1c1461034457600080fd5b8063302355bd11610195578063302355bd1461023e578063358b81661461027957806338af3eed146102a65780633a2f8485146102de57600080fd5b80630253e421146101bc57806314d3f10e146101de5780632e0dcbf71461021e575b600080fd5b3480156101c857600080fd5b506101dc6101d73660046140b6565b61064c565b005b3480156101ea57600080fd5b506101fe6101f9366004614197565b6107dd565b6040516102159b9a999897969594939291906141f6565b60405180910390f35b34801561022a57600080fd5b506101dc610239366004614289565b610a5c565b34801561024a57600080fd5b5061026b610259366004614197565b60076020526000908152604090205481565b604051908152602001610215565b34801561028557600080fd5b5061026b6102943660046142dc565b60096020526000908152604090205481565b3480156102b257600080fd5b50600a546102c6906001600160a01b031681565b6040516001600160a01b039091168152602001610215565b6101dc6102ec366004614197565b610ab3565b3480156102fd57600080fd5b5061031161030c3660046142fe565b610bcb565b604051610215959493929190614320565b34801561032e57600080fd5b50610337610c97565b604051610215919061435f565b34801561035057600080fd5b5061026b61035f366004614197565b60046020526000908152604090205481565b34801561037d57600080fd5b50610386610db5565b60405161021591906143f9565b34801561039f57600080fd5b506103a86111fe565b6040516102159190614506565b3480156103c157600080fd5b506103d56103d0366004614289565b611367565b604051610215919061456c565b3480156103ee57600080fd5b506104026103fd366004614197565b61185f565b604051610215999897969594939291906146b8565b34801561042357600080fd5b506101dc61043236600461473b565b61194e565b34801561044357600080fd5b50610457610452366004614197565b611b65565b60405161021598979695949392919061476b565b34801561047757600080fd5b50610386610486366004614289565b611ede565b34801561049757600080fd5b506101dc6104a6366004614807565b6124d6565b3480156104b757600080fd5b506103d56125ed565b3480156104cc57600080fd5b506101dc6104db366004614989565b61294b565b3480156104ec57600080fd5b506105006104fb366004614197565b612d37565b604051610215929190614a67565b34801561051a57600080fd5b50610523612ddc565b6040516102159190614a80565b34801561053c57600080fd5b506101dc61054b366004614b53565b613075565b34801561055c57600080fd5b506101dc61056b366004614bfe565b613534565b34801561057c57600080fd5b5061059061058b366004614197565b6136c0565b6040516102159190614c80565b3480156105a957600080fd5b506105e46105b83660046142fe565b600660209081526000928352604080842090915290825290208054600182015460029092015490919083565b60408051938452602084019290925290820152606001610215565b34801561060b57600080fd5b5061061f61061a366004614197565b6138ea565b6040516102159190614d15565b34801561063857600080fd5b50610337610647366004614d6e565b6139f8565b600c805490600061065c83614db7565b9190505550604051806101600160405280600c5481526020018981526020018381526020018881526020018781526020018681526020018515158152602001841515815260200160008152602001600081526020018281525060026000600c5481526020019081526020016000206000820151816000015560208201518160010190816106e99190614e53565b50604082015160028201906106fe9082614e53565b50606082015160038201906107139082614e53565b506080820151600482015560a0820151600582015560c082015160068201805460e085015161ffff1990911692151561ff00191692909217610100921515830217905582015160078201556101208201516008820155610140820151600982019061077e9082614e53565b50905050600c547fda59c41e090e6c8755469a5847ab1b94ea717c451a00071c9ce6ad6644b622ae89848a8a8a8a8a60008033428d6040516107cb9c9b9a99989796959493929190614f12565b60405180910390a25050505050505050565b600260205260009081526040902080546001820180549192916107ff90614dd0565b80601f016020809104026020016040519081016040528092919081815260200182805461082b90614dd0565b80156108785780601f1061084d57610100808354040283529160200191610878565b820191906000526020600020905b81548152906001019060200180831161085b57829003601f168201915b50505050509080600201805461088d90614dd0565b80601f01602080910402602001604051908101604052809291908181526020018280546108b990614dd0565b80156109065780601f106108db57610100808354040283529160200191610906565b820191906000526020600020905b8154815290600101906020018083116108e957829003601f168201915b50505050509080600301805461091b90614dd0565b80601f016020809104026020016040519081016040528092919081815260200182805461094790614dd0565b80156109945780601f1061096957610100808354040283529160200191610994565b820191906000526020600020905b81548152906001019060200180831161097757829003601f168201915b50505050600483015460058401546006850154600786015460088701546009880180549798959794965060ff808516966101009095041694929391926109d990614dd0565b80601f0160208091040260200160405190810160405280929190818152602001828054610a0590614dd0565b8015610a525780601f10610a2757610100808354040283529160200191610a52565b820191906000526020600020905b815481529060010190602001808311610a3557829003601f168201915b505050505090508b565b600e8054906000610a6c83614db7565b9091555050604080518082018252600e548082526020808301858152600092835260089091529290208151815591519091906001820190610aad9082614e53565b50505050565b600081815260056020526040902060018101546001600160a01b03163314610b225760405162461bcd60e51b815260206004820152601860248201527f4f6e6c79206f72646572206f776e65722063616e20706179000000000000000060448201526064015b60405180910390fd5b600381015480610b34346103e8614fbb565b1015610b795760405162461bcd60e51b8152602060048201526014602482015273125b9cdd59999a58da595b9d081c185e5b595b9d60621b6044820152606401610b19565b600a546040516001600160a01b03909116903480156108fc02916000818181858888f19350505050158015610bb2573d6000803e3d6000fd5b5050600401805463ff0000001916630100000017905550565b600360208181526000938452604080852090915291835291208054600182015460028301549383018054929491936001600160a01b0390921692610c0e90614dd0565b80601f0160208091040260200160405190810160405280929190818152602001828054610c3a90614dd0565b8015610c875780601f10610c5c57610100808354040283529160200191610c87565b820191906000526020600020905b815481529060010190602001808311610c6a57829003601f168201915b5050505050908060040154905085565b60606000805480602002602001604051908101604052809291908181526020016000905b82821015610dac576000848152602090819020604080516080810182526004860290920180546001600160a01b0390811684526001820154169383019390935260028301805492939291840191610d1190614dd0565b80601f0160208091040260200160405190810160405280929190818152602001828054610d3d90614dd0565b8015610d8a5780601f10610d5f57610100808354040283529160200191610d8a565b820191906000526020600020905b815481529060010190602001808311610d6d57829003601f168201915b5050505050815260200160038201548152505081526020019060010190610cbb565b50505050905090565b60606000600b546001600160401b03811115610dd357610dd3613fec565b604051908082528060200260200182016040528015610e0c57816020015b610df9613edc565b815260200190600190039081610df15790505b50905060015b600b5481116111f8576000818152600160208181526040928390208351610100810190945280548452918201805491840191610e4d90614dd0565b80601f0160208091040260200160405190810160405280929190818152602001828054610e7990614dd0565b8015610ec65780601f10610e9b57610100808354040283529160200191610ec6565b820191906000526020600020905b815481529060010190602001808311610ea957829003601f168201915b50505050508152602001600282018054610edf90614dd0565b80601f0160208091040260200160405190810160405280929190818152602001828054610f0b90614dd0565b8015610f585780601f10610f2d57610100808354040283529160200191610f58565b820191906000526020600020905b815481529060010190602001808311610f3b57829003601f168201915b50505050508152602001600382018054610f7190614dd0565b80601f0160208091040260200160405190810160405280929190818152602001828054610f9d90614dd0565b8015610fea5780601f10610fbf57610100808354040283529160200191610fea565b820191906000526020600020905b815481529060010190602001808311610fcd57829003601f168201915b5050505050815260200160048201805461100390614dd0565b80601f016020809104026020016040519081016040528092919081815260200182805461102f90614dd0565b801561107c5780601f106110515761010080835404028352916020019161107c565b820191906000526020600020905b81548152906001019060200180831161105f57829003601f168201915b5050505050815260200160058201805461109590614dd0565b80601f01602080910402602001604051908101604052809291908181526020018280546110c190614dd0565b801561110e5780601f106110e35761010080835404028352916020019161110e565b820191906000526020600020905b8154815290600101906020018083116110f157829003601f168201915b5050505050815260200160068201805461112790614dd0565b80601f016020809104026020016040519081016040528092919081815260200182805461115390614dd0565b80156111a05780601f10611175576101008083540402835291602001916111a0565b820191906000526020600020905b81548152906001019060200180831161118357829003601f168201915b5050509183525050600791909101546001600160a01b0316602090910152826111ca600184614fd2565b815181106111da576111da614fe5565b602002602001018190525080806111f090614db7565b915050610e12565b50919050565b60606000600e546001600160401b0381111561121c5761121c613fec565b60405190808252806020026020018201604052801561126257816020015b60408051808201909152600081526060602082015281526020019060019003908161123a5790505b50905060015b600e5481116111f85760086000828152602001908152602001600020604051806040016040529081600082015481526020016001820180546112a990614dd0565b80601f01602080910402602001604051908101604052809291908181526020018280546112d590614dd0565b80156113225780601f106112f757610100808354040283529160200191611322565b820191906000526020600020905b81548152906001019060200180831161130557829003601f168201915b505050505081525050826001836113399190614fd2565b8151811061134957611349614fe5565b6020026020010181905250808061135f90614db7565b915050611268565b60606000600c546001600160401b0381111561138557611385613fec565b6040519080825280602002602001820160405280156113be57816020015b6113ab613f2a565b8152602001906001900390816113a35790505b509050600060015b600c5481116117aa576000818152600260205260409020600101805461147491906113f090614dd0565b80601f016020809104026020016040519081016040528092919081815260200182805461141c90614dd0565b80156114695780601f1061143e57610100808354040283529160200191611469565b820191906000526020600020905b81548152906001019060200180831161144c57829003601f168201915b505050505086613dfd565b806114ab575060008181526002602090815260408083206004015483526008909152902060010180546114ab91906113f090614dd0565b15611798576002600082815260200190815260200160002060405180610160016040529081600082015481526020016001820180546114e990614dd0565b80601f016020809104026020016040519081016040528092919081815260200182805461151590614dd0565b80156115625780601f1061153757610100808354040283529160200191611562565b820191906000526020600020905b81548152906001019060200180831161154557829003601f168201915b5050505050815260200160028201805461157b90614dd0565b80601f01602080910402602001604051908101604052809291908181526020018280546115a790614dd0565b80156115f45780601f106115c9576101008083540402835291602001916115f4565b820191906000526020600020905b8154815290600101906020018083116115d757829003601f168201915b5050505050815260200160038201805461160d90614dd0565b80601f016020809104026020016040519081016040528092919081815260200182805461163990614dd0565b80156116865780601f1061165b57610100808354040283529160200191611686565b820191906000526020600020905b81548152906001019060200180831161166957829003601f168201915b50505091835250506004820154602082015260058201546040820152600682015460ff808216151560608401526101009091041615156080820152600782015460a0820152600882015460c082015260098201805460e0909201916116ea90614dd0565b80601f016020809104026020016040519081016040528092919081815260200182805461171690614dd0565b80156117635780601f1061173857610100808354040283529160200191611763565b820191906000526020600020905b81548152906001019060200180831161174657829003601f168201915b50505050508152505083838151811061177e5761177e614fe5565b6020026020010181905250818061179490614db7565b9250505b806117a281614db7565b9150506113c6565b506000816001600160401b038111156117c5576117c5613fec565b6040519080825280602002602001820160405280156117fe57816020015b6117eb613f2a565b8152602001906001900390816117e35790505b50905060005b828110156118565783818151811061181e5761181e614fe5565b602002602001015182828151811061183857611838614fe5565b6020026020010181905250808061184e90614db7565b915050611804565b50949350505050565b600560208190526000918252604090912080546001820154600283015460038401546004850154958501805494966001600160a01b03909416959294919360ff80821694610100830482169462010000840483169463010000009094049092169290916118cb90614dd0565b80601f01602080910402602001604051908101604052809291908181526020018280546118f790614dd0565b80156119445780601f1061191957610100808354040283529160200191611944565b820191906000526020600020905b81548152906001019060200180831161192757829003601f168201915b5050505050905089565b60008281526005602052604081205490036119a25760405162461bcd60e51b815260206004820152601460248201527313dc99195c88191bd95cc81b9bdd08195e1a5cdd60621b6044820152606401610b19565b60008281526005602052604090206004015460ff1660028111156119c8576119c8614674565b8160028111156119da576119da614674565b11611a275760405162461bcd60e51b815260206004820152601960248201527f496e76616c696420737461747573207472616e736974696f6e000000000000006044820152606401610b19565b60008083815260056020526040902060040154610100900460ff166002811115611a5357611a53614674565b03611ad5576000828152600560205260409020600401546301000000900460ff16611ad55760405162461bcd60e51b815260206004820152602c60248201527f5061796d656e74206d75737420626520636f6d706c6574656420666f7220457760448201526b616c6c6574206f726465727360a01b6064820152608401610b19565b6000828152600560205260409020600401805482919060ff19166001836002811115611b0357611b03614674565b0217905550600082815260056020526040908190206001015490516001600160a01b03909116907f72dd0d4e3f429b5df521039075b9cc56fe25cd440df6186114f6aa93505a39fa90611b599085908590614ffb565b60405180910390a25050565b600160208190526000918252604090912080549181018054611b8690614dd0565b80601f0160208091040260200160405190810160405280929190818152602001828054611bb290614dd0565b8015611bff5780601f10611bd457610100808354040283529160200191611bff565b820191906000526020600020905b815481529060010190602001808311611be257829003601f168201915b505050505090806002018054611c1490614dd0565b80601f0160208091040260200160405190810160405280929190818152602001828054611c4090614dd0565b8015611c8d5780601f10611c6257610100808354040283529160200191611c8d565b820191906000526020600020905b815481529060010190602001808311611c7057829003601f168201915b505050505090806003018054611ca290614dd0565b80601f0160208091040260200160405190810160405280929190818152602001828054611cce90614dd0565b8015611d1b5780601f10611cf057610100808354040283529160200191611d1b565b820191906000526020600020905b815481529060010190602001808311611cfe57829003601f168201915b505050505090806004018054611d3090614dd0565b80601f0160208091040260200160405190810160405280929190818152602001828054611d5c90614dd0565b8015611da95780601f10611d7e57610100808354040283529160200191611da9565b820191906000526020600020905b815481529060010190602001808311611d8c57829003601f168201915b505050505090806005018054611dbe90614dd0565b80601f0160208091040260200160405190810160405280929190818152602001828054611dea90614dd0565b8015611e375780601f10611e0c57610100808354040283529160200191611e37565b820191906000526020600020905b815481529060010190602001808311611e1a57829003601f168201915b505050505090806006018054611e4c90614dd0565b80601f0160208091040260200160405190810160405280929190818152602001828054611e7890614dd0565b8015611ec55780601f10611e9a57610100808354040283529160200191611ec5565b820191906000526020600020905b815481529060010190602001808311611ea857829003601f168201915b505050600790930154919250506001600160a01b031688565b60606000600b546001600160401b03811115611efc57611efc613fec565b604051908082528060200260200182016040528015611f3557816020015b611f22613edc565b815260200190600190039081611f1a5790505b509050600060015b600b54811161242a5760008181526001602090815260408083209051611f78926003830192600481019260058201926006909201910161508b565b6040516020818303038152906040529050612031600160008481526020019081526020016000206001018054611fad90614dd0565b80601f0160208091040260200160405190810160405280929190818152602001828054611fd990614dd0565b80156120265780601f10611ffb57610100808354040283529160200191612026565b820191906000526020600020905b81548152906001019060200180831161200957829003601f168201915b505050505087613dfd565b8061204157506120418187613dfd565b1561241757600082815260016020818152604092839020835161010081019094528054845291820180549184019161207890614dd0565b80601f01602080910402602001604051908101604052809291908181526020018280546120a490614dd0565b80156120f15780601f106120c6576101008083540402835291602001916120f1565b820191906000526020600020905b8154815290600101906020018083116120d457829003601f168201915b5050505050815260200160028201805461210a90614dd0565b80601f016020809104026020016040519081016040528092919081815260200182805461213690614dd0565b80156121835780601f1061215857610100808354040283529160200191612183565b820191906000526020600020905b81548152906001019060200180831161216657829003601f168201915b5050505050815260200160038201805461219c90614dd0565b80601f01602080910402602001604051908101604052809291908181526020018280546121c890614dd0565b80156122155780601f106121ea57610100808354040283529160200191612215565b820191906000526020600020905b8154815290600101906020018083116121f857829003601f168201915b5050505050815260200160048201805461222e90614dd0565b80601f016020809104026020016040519081016040528092919081815260200182805461225a90614dd0565b80156122a75780601f1061227c576101008083540402835291602001916122a7565b820191906000526020600020905b81548152906001019060200180831161228a57829003601f168201915b505050505081526020016005820180546122c090614dd0565b80601f01602080910402602001604051908101604052809291908181526020018280546122ec90614dd0565b80156123395780601f1061230e57610100808354040283529160200191612339565b820191906000526020600020905b81548152906001019060200180831161231c57829003601f168201915b5050505050815260200160068201805461235290614dd0565b80601f016020809104026020016040519081016040528092919081815260200182805461237e90614dd0565b80156123cb5780601f106123a0576101008083540402835291602001916123cb565b820191906000526020600020905b8154815290600101906020018083116123ae57829003601f168201915b5050509183525050600791909101546001600160a01b031660209091015284518590859081106123fd576123fd614fe5565b6020026020010181905250828061241390614db7565b9350505b508061242281614db7565b915050611f3d565b506000816001600160401b0381111561244557612445613fec565b60405190808252806020026020018201604052801561247e57816020015b61246b613edc565b8152602001906001900390816124635790505b50905060005b828110156118565783818151811061249e5761249e614fe5565b60200260200101518282815181106124b8576124b8614fe5565b602002602001018190525080806124ce90614db7565b915050612484565b600b80549060006124e683614db7565b90915550506040805161010081018252600b5480825260208083018a81528385018a9052606084018990526080840188905260a0840187905260c084018690523360e0850152600092835260019182905293909120825181559251919291908201906125529082614e53565b50604082015160028201906125679082614e53565b506060820151600382019061257c9082614e53565b50608082015160048201906125919082614e53565b5060a082015160058201906125a69082614e53565b5060c082015160068201906125bb9082614e53565b5060e09190910151600790910180546001600160a01b0319166001600160a01b03909216919091179055505050505050565b60606000600c546001600160401b0381111561260b5761260b613fec565b60405190808252806020026020018201604052801561264457816020015b612631613f2a565b8152602001906001900390816126295790505b50905060015b600c5481116111f85760026000828152602001908152602001600020604051806101600160405290816000820154815260200160018201805461268c90614dd0565b80601f01602080910402602001604051908101604052809291908181526020018280546126b890614dd0565b80156127055780601f106126da57610100808354040283529160200191612705565b820191906000526020600020905b8154815290600101906020018083116126e857829003601f168201915b5050505050815260200160028201805461271e90614dd0565b80601f016020809104026020016040519081016040528092919081815260200182805461274a90614dd0565b80156127975780601f1061276c57610100808354040283529160200191612797565b820191906000526020600020905b81548152906001019060200180831161277a57829003601f168201915b505050505081526020016003820180546127b090614dd0565b80601f01602080910402602001604051908101604052809291908181526020018280546127dc90614dd0565b80156128295780601f106127fe57610100808354040283529160200191612829565b820191906000526020600020905b81548152906001019060200180831161280c57829003601f168201915b50505091835250506004820154602082015260058201546040820152600682015460ff808216151560608401526101009091041615156080820152600782015460a0820152600882015460c082015260098201805460e09092019161288d90614dd0565b80601f01602080910402602001604051908101604052809291908181526020018280546128b990614dd0565b80156129065780601f106128db57610100808354040283529160200191612906565b820191906000526020600020905b8154815290600101906020018083116128e957829003601f168201915b5050505050815250508260018361291d9190614fd2565b8151811061292d5761292d614fe5565b6020026020010181905250808061294390614db7565b91505061264a565b80518251146129975760405162461bcd60e51b81526020600482015260186024820152774d69736d617463686564206172726179206c656e6774687360401b6044820152606401610b19565b6000838152600560205260409020600101546001600160a01b03163314612a005760405162461bcd60e51b815260206004820152601f60248201527f4f6e6c79207468652062757965722063616e20616464206120726174696e67006044820152606401610b19565b60008381526005602052604090206004015462010000900460ff1615612a685760405162461bcd60e51b815260206004820152601f60248201527f4f6e6c79207468652062757965722063616e20616464206120726174696e67006044820152606401610b19565b60005b600084815260076020526040902054811015612d1257600084815260066020526040812081612a9b8460016150db565b815260200190815260200160002060000154905080600003612aff5760405162461bcd60e51b815260206004820152601a60248201527f44657461696c4f7264657220646f6573206e6f742065786973740000000000006044820152606401610b19565b6001838381518110612b1357612b13614fe5565b602002602001015110158015612b4357506005838381518110612b3857612b38614fe5565b602002602001015111155b612b8f5760405162461bcd60e51b815260206004820152601d60248201527f5374617273206d757374206265206265747765656e203120616e6420350000006044820152606401610b19565b6000818152600460205260408120805491612ba983614db7565b91905055506000600460008381526020019081526020016000205490506040518060a00160405280828152602001838152602001336001600160a01b03168152602001868581518110612bfe57612bfe614fe5565b60200260200101518152602001858581518110612c1d57612c1d614fe5565b60209081029190910181015190915260008481526003808352604080832086845284529182902084518155928401516001840155908301516002830180546001600160a01b0319166001600160a01b03909216919091179055606083015190820190612c899082614e53565b5060808201518160040155905050838381518110612ca957612ca9614fe5565b6020026020010151600260008481526020019081526020016000206007016000828254612cd691906150db565b90915550506000828152600260205260408120600801805491612cf883614db7565b919050555050508080612d0a90614db7565b915050612a6b565b5050506000908152600560205260409020600401805462ff0000191662010000179055565b60086020526000908152604090208054600182018054919291612d5990614dd0565b80601f0160208091040260200160405190810160405280929190818152602001828054612d8590614dd0565b8015612dd25780601f10612da757610100808354040283529160200191612dd2565b820191906000526020600020905b815481529060010190602001808311612db557829003601f168201915b5050505050905082565b6060600060015b600d548111612e2f57600081815260056020526040902060010154336001600160a01b0390911603612e1d5781612e1981614db7565b9250505b80612e2781614db7565b915050612de3565b506000816001600160401b03811115612e4a57612e4a613fec565b604051908082528060200260200182016040528015612e8357816020015b612e70613f88565b815260200190600190039081612e685790505b509050600060015b600d54811161306c57600081815260056020526040902060010154336001600160a01b039091160361305a576000818152600560209081526040918290208251610120810184528154815260018201546001600160a01b0316928101929092526002808201549383019390935260038101546060830152600481015491929091608084019160ff90911690811115612f2557612f25614674565b6002811115612f3657612f36614674565b81526020016004820160019054906101000a900460ff166002811115612f5e57612f5e614674565b6002811115612f6f57612f6f614674565b8152600482015460ff62010000820481161515602084015263010000009091041615156040820152600582018054606090920191612fac90614dd0565b80601f0160208091040260200160405190810160405280929190818152602001828054612fd890614dd0565b80156130255780601f10612ffa57610100808354040283529160200191613025565b820191906000526020600020905b81548152906001019060200180831161300857829003601f168201915b50505050508152505083838151811061304057613040614fe5565b6020026020010181905250818061305690614db7565b9250505b8061306481614db7565b915050612e8b565b50909392505050565b60008451116130d85760405162461bcd60e51b815260206004820152602960248201527f4f72646572206d75737420636f6e7461696e206174206c65617374206f6e6520604482015268666f6f64206974656d60b81b6064820152608401610b19565b82518451146131245760405162461bcd60e51b81526020600482015260186024820152774d69736d617463686564206172726179206c656e6774687360401b6044820152606401610b19565b600d80546000918261313583614db7565b919050555060005b85518110156132ee576002600087838151811061315c5761315c614fe5565b60200260200101518152602001908152602001600020600001546000036131bb5760405162461bcd60e51b8152602060048201526013602482015272119bdbd908191bd95cc81b9bdd08195e1a5cdd606a1b6044820152606401610b19565b60008582815181106131cf576131cf614fe5565b6020026020010151600260008985815181106131ed576131ed614fe5565b60200260200101518152602001908152602001600020600501546132119190614fbb565b905061321d81846150db565b600d54600090815260076020526040812080549295509061323d83614db7565b9190505550600060076000600d548152602001908152602001600020549050604051806060016040528089858151811061327957613279614fe5565b6020026020010151815260200188858151811061329857613298614fe5565b602090810291909101810151825290810193909352600d546000908152600684526040808220938252928452829020815181559281015160018401550151600290910155806132e681614db7565b91505061313d565b506000831561335557336000908152600960205260409020546032811115613314575060325b60646133208285614fbb565b61332a91906150ee565b3360009081526009602052604081208054929450839290919061334e908490614fd2565b9091555050505b6040805161012081018252600d5481523360208201529081018290526060810161337f8385614fd2565b81526020016000815260200188600281111561339d5761339d614674565b81526000602080830182905260408084018390526060938401889052600d54835260058252918290208451815590840151600180830180546001600160a01b0319166001600160a01b039093169290921790915591840151600280830191909155928401516003820155608084015160048201805492949193909260ff191691849081111561342e5761342e614674565b021790555060a082015160048201805461ff00191661010083600281111561345857613458614674565b021790555060c082015160048201805460e0850151151563010000000263ff0000001993151562010000029390931663ffff0000199091161791909117905561010082015160058201906134ac9082614e53565b50503360009081526009602052604081208054600193509091906134d19084906150db565b9091555050600d5433907f01c13126da428fe166a0fe8d719664066ad5cf43b5a6ff3667cd061430f0003d836135078187614fd2565b60008c6000808b42604051613523989796959493929190615110565b60405180910390a350505050505050565b60006040518060800160405280336001600160a01b03168152602001856001600160a01b0316815260200184848080601f0160208091040260200160405190810160405280939291908181526020018383808284376000920182905250938552505042602093840152508054600181018255908052825160049091027f290decd9548b62a8d60345a988386fc84ba6bc95484008f6362f93160ef3e563810180546001600160a01b039384166001600160a01b0319918216178255938501517f290decd9548b62a8d60345a988386fc84ba6bc95484008f6362f93160ef3e5648301805491909416941693909317909155604083015192935083927f290decd9548b62a8d60345a988386fc84ba6bc95484008f6362f93160ef3e5659091019061365e9082614e53565b50606082015181600301555050836001600160a01b0316336001600160a01b03167f820e6d37b56b06482f38c0c5918db7d094c4b90fb974528a28d83440790640998585426040516136b293929190615174565b60405180910390a350505050565b600081815260026020526040812054606091036137155760405162461bcd60e51b8152602060048201526013602482015272119bdbd908191bd95cc81b9bdd08195e1a5cdd606a1b6044820152606401610b19565b60008281526004602052604081205490816001600160401b0381111561373d5761373d613fec565b6040519080825280602002602001820160405280156137a957816020015b6137966040518060a00160405280600081526020016000815260200160006001600160a01b0316815260200160608152602001600081525090565b81526020019060019003908161375b5790505b50905060005b828110156138e2576000858152600360205260408120906137d18360016150db565b81526020808201929092526040908101600020815160a0810183528154815260018201549381019390935260028101546001600160a01b03169183019190915260038101805460608401919061382690614dd0565b80601f016020809104026020016040519081016040528092919081815260200182805461385290614dd0565b801561389f5780601f106138745761010080835404028352916020019161389f565b820191906000526020600020905b81548152906001019060200180831161388257829003601f168201915b505050505081526020016004820154815250508282815181106138c4576138c4614fe5565b602002602001018190525080806138da90614db7565b9150506137af565b509392505050565b600081815260076020526040812054606091816001600160401b0381111561391457613914613fec565b60405190808252806020026020018201604052801561396957816020015b61395660405180606001604052806000815260200160008152602001600081525090565b8152602001906001900390816139325790505b50905060005b828110156138e2576000858152600660205260408120906139918360016150db565b815260200190815260200160002060405180606001604052908160008201548152602001600182015481526020016002820154815250508282815181106139da576139da614fe5565b602002602001018190525080806139f090614db7565b91505061396f565b60606000805b600054811015613b2957846001600160a01b031660008281548110613a2557613a25614fe5565b60009182526020909120600490910201546001600160a01b0316148015613a835750836001600160a01b031660008281548110613a6457613a64614fe5565b60009182526020909120600160049092020101546001600160a01b0316145b80613b045750836001600160a01b031660008281548110613aa657613aa6614fe5565b60009182526020909120600490910201546001600160a01b0316148015613b045750846001600160a01b031660008281548110613ae557613ae5614fe5565b60009182526020909120600160049092020101546001600160a01b0316145b15613b175781613b1381614db7565b9250505b80613b2181614db7565b9150506139fe565b506000816001600160401b03811115613b4457613b44613fec565b604051908082528060200260200182016040528015613bb257816020015b613b9f604051806080016040528060006001600160a01b0316815260200160006001600160a01b0316815260200160608152602001600081525090565b815260200190600190039081613b625790505b5090506000805b600054811015613df057866001600160a01b031660008281548110613be057613be0614fe5565b60009182526020909120600490910201546001600160a01b0316148015613c3e5750856001600160a01b031660008281548110613c1f57613c1f614fe5565b60009182526020909120600160049092020101546001600160a01b0316145b80613cbf5750856001600160a01b031660008281548110613c6157613c61614fe5565b60009182526020909120600490910201546001600160a01b0316148015613cbf5750866001600160a01b031660008281548110613ca057613ca0614fe5565b60009182526020909120600160049092020101546001600160a01b0316145b15613dde5760008181548110613cd757613cd7614fe5565b600091825260209182902060408051608081018252600490930290910180546001600160a01b0390811684526001820154169383019390935260028301805492939291840191613d2690614dd0565b80601f0160208091040260200160405190810160405280929190818152602001828054613d5290614dd0565b8015613d9f5780601f10613d7457610100808354040283529160200191613d9f565b820191906000526020600020905b815481529060010190602001808311613d8257829003601f168201915b50505050508152602001600382015481525050838381518110613dc457613dc4614fe5565b60200260200101819052508180613dda90614db7565b9250505b80613de881614db7565b915050613bb9565b5090925050505b92915050565b81518151600091849184911015613e1957600092505050613df7565b60005b81518351613e2a9190614fd2565b8111613ed057600160005b8351811015613ea957838181518110613e5057613e50614fe5565b01602001516001600160f81b03191685613e6a83866150db565b81518110613e7a57613e7a614fe5565b01602001516001600160f81b03191614613e975760009150613ea9565b80613ea181614db7565b915050613e35565b508015613ebd576001945050505050613df7565b5080613ec881614db7565b915050613e1c565b50600095945050505050565b6040518061010001604052806000815260200160608152602001606081526020016060815260200160608152602001606081526020016060815260200160006001600160a01b031681525090565b6040518061016001604052806000815260200160608152602001606081526020016060815260200160008152602001600081526020016000151581526020016000151581526020016000815260200160008152602001606081525090565b6040518061012001604052806000815260200160006001600160a01b03168152602001600081526020016000815260200160006002811115613fcc57613fcc614674565b815260200160008152600060208201819052604082015260609081015290565b634e487b7160e01b600052604160045260246000fd5b604051601f8201601f191681016001600160401b038111828210171561402a5761402a613fec565b604052919050565b600082601f83011261404357600080fd5b81356001600160401b0381111561405c5761405c613fec565b61406f601f8201601f1916602001614002565b81815284602083860101111561408457600080fd5b816020850160208301376000918101602001919091529392505050565b803580151581146140b157600080fd5b919050565b600080600080600080600080610100898b0312156140d357600080fd5b88356001600160401b03808211156140ea57600080fd5b6140f68c838d01614032565b995060208b013591508082111561410c57600080fd5b6141188c838d01614032565b985060408b0135975060608b0135965061413460808c016140a1565b955061414260a08c016140a1565b945060c08b013591508082111561415857600080fd5b6141648c838d01614032565b935060e08b013591508082111561417a57600080fd5b506141878b828c01614032565b9150509295985092959890939650565b6000602082840312156141a957600080fd5b5035919050565b6000815180845260005b818110156141d6576020818501810151868301820152016141ba565b506000602082860101526020601f19601f83011685010191505092915050565b60006101608d83528060208401526142108184018e6141b0565b90508281036040840152614224818d6141b0565b90508281036060840152614238818c6141b0565b90508960808401528860a084015287151560c084015286151560e0840152856101008401528461012084015282810361014084015261427781856141b0565b9e9d5050505050505050505050505050565b60006020828403121561429b57600080fd5b81356001600160401b038111156142b157600080fd5b6142bd84828501614032565b949350505050565b80356001600160a01b03811681146140b157600080fd5b6000602082840312156142ee57600080fd5b6142f7826142c5565b9392505050565b6000806040838503121561431157600080fd5b50508035926020909101359150565b85815284602082015260018060a01b038416604082015260a06060820152600061434d60a08301856141b0565b90508260808301529695505050505050565b60006020808301818452808551808352604092508286019150828160051b87010184880160005b838110156143eb57888303603f19018552815180516001600160a01b039081168552888201511688850152868101516080888601819052906143ca828701826141b0565b60609384015196909301959095525094870194925090860190600101614386565b509098975050505050505050565b60006020808301818452808551808352604092508286019150828160051b87010184880160005b838110156143eb57603f1989840301855281516101008151855288820151818a87015261444f828701826141b0565b915050878201518582038987015261446782826141b0565b9150506060808301518683038288015261448183826141b0565b925050506080808301518683038288015261449c83826141b0565b9250505060a080830151868303828801526144b783826141b0565b9250505060c080830151868303828801526144d283826141b0565b9250505060e08083015192506144f2818701846001600160a01b03169052565b509588019593505090860190600101614420565b60006020808301818452808551808352604092508286019150828160051b87010184880160005b838110156143eb57888303603f19018552815180518452870151878401879052614559878501826141b0565b958801959350509086019060010161452d565b60006020808301818452808551808352604092508286019150828160051b87010184880160005b838110156143eb57603f1989840301855281516101608151855288820151818a8701526145c2828701826141b0565b91505087820151858203898701526145da82826141b0565b915050606080830151868303828801526145f483826141b0565b92505050608080830151818701525060a080830151818701525060c0808301516146218288018215159052565b505060e08281015115159086015261010080830151908601526101208083015190860152610140918201518582039286019290925261466081836141b0565b968901969450505090860190600101614593565b634e487b7160e01b600052602160045260246000fd5b600381106146a857634e487b7160e01b600052602160045260246000fd5b50565b6146b48161468a565b9052565b8981526001600160a01b0389166020820152604081018890526060810187905260006101206146e68861468a565b8760808401526146f58761468a565b8660a084015285151560c084015284151560e08401528061010084015261471e818401856141b0565b9c9b505050505050505050505050565b600381106146a857600080fd5b6000806040838503121561474e57600080fd5b8235915060208301356147608161472e565b809150509250929050565b60006101008a83528060208401526147858184018b6141b0565b90508281036040840152614799818a6141b0565b905082810360608401526147ad81896141b0565b905082810360808401526147c181886141b0565b905082810360a08401526147d581876141b0565b905082810360c08401526147e981866141b0565b91505060018060a01b03831660e08301529998505050505050505050565b60008060008060008060c0878903121561482057600080fd5b86356001600160401b038082111561483757600080fd5b6148438a838b01614032565b9750602089013591508082111561485957600080fd5b6148658a838b01614032565b9650604089013591508082111561487b57600080fd5b6148878a838b01614032565b9550606089013591508082111561489d57600080fd5b6148a98a838b01614032565b945060808901359150808211156148bf57600080fd5b6148cb8a838b01614032565b935060a08901359150808211156148e157600080fd5b506148ee89828a01614032565b9150509295509295509295565b60006001600160401b0382111561491457614914613fec565b5060051b60200190565b600082601f83011261492f57600080fd5b8135602061494461493f836148fb565b614002565b82815260059290921b8401810191818101908684111561496357600080fd5b8286015b8481101561497e5780358352918301918301614967565b509695505050505050565b60008060006060848603121561499e57600080fd5b833592506020808501356001600160401b03808211156149bd57600080fd5b818701915087601f8301126149d157600080fd5b81356149df61493f826148fb565b81815260059190911b8301840190848101908a8311156149fe57600080fd5b8585015b83811015614a3657803585811115614a1a5760008081fd5b614a288d89838a0101614032565b845250918601918601614a02565b50965050506040870135925080831115614a4f57600080fd5b5050614a5d8682870161491e565b9150509250925092565b8281526040602082015260006142bd60408301846141b0565b60006020808301818452808551808352604092508286019150828160051b87010184880160005b838110156143eb57603f19898403018552815180518452878101516001600160a01b0316888501528681015187850152606080820151908501526080808201516101209190614af8828801826146ab565b505060a080830151614b0c828801826146ab565b505060c08281015115159086015260e08083015115159086015261010091820151918501819052614b3f818601836141b0565b968901969450505090860190600101614aa7565b600080600080600060a08688031215614b6b57600080fd5b8535614b768161472e565b945060208601356001600160401b0380821115614b9257600080fd5b614b9e89838a0161491e565b95506040880135915080821115614bb457600080fd5b614bc089838a0161491e565b9450614bce606089016140a1565b93506080880135915080821115614be457600080fd5b50614bf188828901614032565b9150509295509295909350565b600080600060408486031215614c1357600080fd5b614c1c846142c5565b925060208401356001600160401b0380821115614c3857600080fd5b818601915086601f830112614c4c57600080fd5b813581811115614c5b57600080fd5b876020828501011115614c6d57600080fd5b6020830194508093505050509250925092565b60006020808301818452808551808352604092508286019150828160051b87010184880160005b838110156143eb57888303603f190185528151805184528781015188850152868101516001600160a01b03168785015260608082015160a08287018190529190614cf3838801826141b0565b6080948501519790940196909652505094870194925090860190600101614ca7565b602080825282518282018190526000919060409081850190868401855b82811015614d615781518051855286810151878601528501518585015260609093019290850190600101614d32565b5091979650505050505050565b60008060408385031215614d8157600080fd5b614d8a836142c5565b9150614d98602084016142c5565b90509250929050565b634e487b7160e01b600052601160045260246000fd5b600060018201614dc957614dc9614da1565b5060010190565b600181811c90821680614de457607f821691505b6020821081036111f857634e487b7160e01b600052602260045260246000fd5b601f821115614e4e57600081815260208120601f850160051c81016020861015614e2b5750805b601f850160051c820191505b81811015614e4a57828155600101614e37565b5050505b505050565b81516001600160401b03811115614e6c57614e6c613fec565b614e8081614e7a8454614dd0565b84614e04565b602080601f831160018114614eb55760008415614e9d5750858301515b600019600386901b1c1916600185901b178555614e4a565b600085815260208120601f198616915b82811015614ee457888601518255948401946001909101908401614ec5565b5085821015614f025787850151600019600388901b60f8161c191681555b5050505050600190811b01905550565b61018081526000614f2761018083018f6141b0565b8281036020840152614f39818f6141b0565b90508281036040840152614f4d818e6141b0565b90508b60608401528a608084015289151560a084015288151560c08401528760e084015286610100840152614f8e6101208401876001600160a01b03169052565b84610140840152828103610160840152614fa881856141b0565b9f9e505050505050505050505050505050565b8082028115828204841417613df757613df7614da1565b81810381811115613df757613df7614da1565b634e487b7160e01b600052603260045260246000fd5b8281526040810161500b8361468a565b8260208301529392505050565b6000815461502581614dd0565b6001828116801561503d576001811461505257615081565b60ff1984168752821515830287019450615081565b8560005260208060002060005b858110156150785781548a82015290840190820161505f565b50505082870194505b5050505092915050565b60006150978287615018565b600160fd1b8082526150ac6001830188615018565b91508082526150be6001830187615018565b90815290506150d06001820185615018565b979650505050505050565b80820180821115613df757613df7614da1565b60008261510b57634e487b7160e01b600052601260045260246000fd5b500490565b60006101008a83528960208401526151278961468a565b8860408401526151368861468a565b876060840152861515608084015285151560a08401528060c084015261515e818401866141b0565b9150508260e08301529998505050505050505050565b604081528260408201528284606083013760006060848301015260006060601f19601f860116830101905082602083015294935050505056fea26469706673582212207fb6d8c626ce536281b2f611a65f135f778ee40a86e44aab1958ea3199967ba664736f6c63430008130033",
  "immutableReferences": {},
  "source": "// SPDX-License-Identifier: GPL-3.0\npragma solidity ^0.8.19;\n\ncontract Bookfood {\n\n    constructor(address payable  _beneficiary){\n       beneficiary= _beneficiary;\n    }\n\n    enum OrderStatus { Pending, Preparing, Delivered }\n    enum Payment  { Ewallet,Cash, CreditCard }\n\n    struct FoodCategory {\n        uint id;\n        string name;\n    }\n    \n    struct Restaurant {\n        uint id;\n        string name;\n        string houseNumber;\n        string street;\n        string ward;\n        string district;\n        string city;\n        address owner;\n    }\n\n    struct Food {\n        uint id;\n        string name;\n        string img;\n        // uint restaurantId;\n        string detail;\n        uint categoryId;\n        uint price;\n        bool isVegan;\n        bool isGlutenFree;\n        uint totalStars;\n        uint totalRatings;\n        string time;\n    }\n    \n\n    struct Rating {\n        uint id;\n        uint foodId;\n        address user;\n        string review;\n        uint stars;\n    }\n\n    struct Order {\n        uint id;\n        // uint restaurantId;\n        address customer;\n        uint discount;\n        uint totalPrice;\n        OrderStatus status;\n        Payment payment;\n        bool isReviewed;\n        bool isPay;\n        string note;\n    }\n\n    struct DetailOrder {\n        uint foodId;\n        uint quantity;\n        uint price;\n    }\n\n    struct Message {\n        address sender;\n        address receiver;\n        string message;\n        uint timestamp;\n    }\n\n    Message[] private messages;\n\n    mapping(uint => Restaurant) public restaurants;\n    mapping(uint => Food) public foods;\n    mapping(uint => mapping(uint => Rating)) public ratings;\n    mapping(uint => uint) public ratingCountPerFood; \n    mapping(uint => Order) public orders;\n    mapping(uint => mapping(uint => DetailOrder)) public orderDetails; \n    mapping(uint => uint) public orderDetailCount;\n    mapping(uint => FoodCategory) public categories; \n    mapping(address => uint) public points;\n\n    address payable public beneficiary;\n    uint restaurantCount;\n    uint foodCount;\n    uint orderCount;\n    uint categoryCount;\n\n    event OrderStatusUpdated(uint orderId, address indexed customer, OrderStatus status);\n    event NewMessage(address indexed sender, address indexed receiver, string message, uint timestamp);\n    event FoodAdded(\n        uint indexed id,\n        string name,\n        string img,\n        string detail,\n        uint categoryId,\n        uint price,\n        bool isVegan,\n        bool isGlutenFree,\n        uint totalStars,\n        uint totalRatings,\n        address addedBy,\n        uint timestamp,\n        string time\n    );\n\n    event OrderPlacedEvent(\n        uint indexed id,\n        address indexed customer,\n        uint discount,\n        uint totalPrice,\n        OrderStatus status,\n        Payment payment,\n        bool isReviewed,\n        bool isPay,\n        string note,\n        uint timestamp\n    );\n\n    function processPayment(uint _orderId) public payable {\n        Order storage order = orders[_orderId];\n        require(order.customer == msg.sender, \"Only order owner can pay\");\n        \n        uint amountToPay = order.totalPrice;\n        require((msg.value *1000) >= amountToPay, \"Insufficient payment\");\n        \n        beneficiary.transfer(msg.value);\n        order.isPay=true;\n    }\n    \n    function addRestaurant(\n        string memory _name, \n        string memory _houseNumber, \n        string memory _street, \n        string memory _ward, \n        string memory _district, \n        string memory _city\n        // address _owner\n        \n    ) public {\n        //  require(_owner != address(0), \"Owner address cannot be zero\");\n        restaurantCount++;\n        restaurants[restaurantCount] = Restaurant(\n            restaurantCount, \n            _name, \n            _houseNumber, \n            _street, \n            _ward, \n            _district, \n            _city, \n            msg.sender\n        );\n    }\n\n    function addCategory(string memory _name) public {\n        categoryCount++;\n        categories[categoryCount] = FoodCategory(categoryCount, _name);\n    }\n    function addFood(\n        string memory _name, string memory _detail, /* uint _restaurantId,*/ uint _categoryId,\n        uint _price, bool _isVegan, bool _isGlutenFree, string memory img, string memory _time\n    ) public {\n        // require(restaurants[_restaurantId].id != 0, \"Restaurant does not exist\");\n        foodCount++;\n        foods[foodCount] = Food(\n            foodCount, _name, img, _detail, /*_restaurantId,*/ _categoryId,\n            _price, _isVegan, _isGlutenFree, 0, 0, _time\n        );\n\n        emit FoodAdded(\n            foodCount,\n            _name,\n            img,\n            _detail,\n            _categoryId,\n            _price,\n            _isVegan,\n            _isGlutenFree,\n            0, \n            0,\n            msg.sender,\n            block.timestamp,\n            _time\n        );\n    }\n\nfunction addRating(uint _idOrder, string[] memory _reviews, uint[] memory _stars) public {\n    require(_reviews.length == _stars.length, \"Mismatched array lengths\");   \n    require(orders[_idOrder].customer == msg.sender, \"Only the buyer can add a rating\");\n    require(orders[_idOrder].isReviewed == false, \"Only the buyer can add a rating\");\n    \n\n    for (uint i = 0; i < orderDetailCount[_idOrder]; i++) {\n        uint foodId = orderDetails[_idOrder][i+1].foodId; // Ly foodId t orderDetails\n        require(foodId != 0, \"DetailOrder does not exist\"); // Kim tra xem orderDetail c tn ti khng\n        require(_stars[i] >= 1 && _stars[i] <= 5, \"Stars must be between 1 and 5\");\n        \n        ratingCountPerFood[foodId]++;\n        uint newRatingId = ratingCountPerFood[foodId];\n        ratings[foodId][newRatingId] = Rating(newRatingId, foodId, msg.sender, _reviews[i], _stars[i]);\n\n        // Cp nht tng im nh gi\n        foods[foodId].totalStars += _stars[i];\n        foods[foodId].totalRatings++;\n    }\n    orders[_idOrder].isReviewed = true;\n}\n\n    \n    function placeOrder(Payment _payment,uint[] memory _foodIds, uint[] memory _quantities, bool UsePoint,string memory note) \n    public {\n        require(_foodIds.length > 0, \"Order must contain at least one food item\");\n        require(_foodIds.length == _quantities.length, \"Mismatched array lengths\");\n\n        uint totalPrice = 0;\n        orderCount++;\n        // uint temp_resId=0;\n\n\n        for (uint i = 0; i < _foodIds.length; i++) {\n            require(foods[_foodIds[i]].id != 0, \"Food does not exist\");\n            // if(temp_resId==0){\n            //     temp_resId=foods[_foodIds[i]].restaurantId;\n            // }\n            // require(temp_resId==foods[_foodIds[i]].restaurantId, \"food not from the same restaurant\");\n            // Tnh tng gi tin\n            uint itemPrice = foods[_foodIds[i]].price * _quantities[i];\n            totalPrice += itemPrice;\n            orderDetailCount[orderCount]++;\n            uint itemIndex = orderDetailCount[orderCount];\n            orderDetails[orderCount][itemIndex] = DetailOrder(_foodIds[i], _quantities[i], itemPrice);\n\n\n\n        }\n\n        // p dng im thng nu c\n        uint discount = 0;\n        if (UsePoint) {\n            uint availablePoints = points[msg.sender] ;\n            if(availablePoints>50) availablePoints=50;\n            discount = totalPrice * availablePoints / 100; // Gim ti a 50%\n\n            points[msg.sender] -= availablePoints; \n        }\n        orders[orderCount] = Order(orderCount, /*temp_resId,*/ msg.sender,discount, totalPrice-discount, \n        OrderStatus.Pending,_payment,false,false,note);\n        points[msg.sender] += 1; \n\n        emit OrderPlacedEvent(\n            orderCount,\n            msg.sender,\n            discount,\n            totalPrice - discount,\n            OrderStatus.Pending,\n            _payment,\n            false,\n            false,\n            note,\n            block.timestamp\n        );\n    }\n\n    function updateOrderStatus(uint _orderId, OrderStatus _status) public {\n        require(orders[_orderId].id != 0, \"Order does not exist\");\n        require(uint(_status) > uint(orders[_orderId].status), \"Invalid status transition\");\n\n        // address restaurantOwner = restaurants[orders[_orderId].restaurantId].owner;\n        // require(msg.sender == restaurantOwner || msg.sender == beneficiary, \"Only restaurant owner or beneficiary can update status\");\n        \n        // Nu phng thc thanh ton l Ewallet th phi kim tra isPay\n        if (orders[_orderId].payment == Payment.Ewallet) {\n            require(orders[_orderId].isPay, \"Payment must be completed for Ewallet orders\");\n        }\n        \n        orders[_orderId].status = _status;\n        emit OrderStatusUpdated(_orderId,  orders[_orderId].customer, _status);\n    }\n\n    \n    function sendMessage(address receiver, string calldata messageText) external {\n        Message memory newMessage = Message(msg.sender, receiver, messageText, block.timestamp);\n        messages.push(newMessage);\n\n        emit NewMessage(msg.sender, receiver, messageText, block.timestamp);\n    }\n    \n    function getMyMessages(address userA, address userB) external view returns (Message[] memory) {\n        uint count = 0;\n\n        for (uint i = 0; i < messages.length; i++) {\n            if (\n                (messages[i].sender == userA && messages[i].receiver == userB) ||\n                (messages[i].sender == userB && messages[i].receiver == userA)\n            ) {\n                count++;\n            }\n        }\n\n        Message[] memory result = new Message[](count);\n        uint index = 0;\n\n        for (uint i = 0; i < messages.length; i++) {\n            if (\n                (messages[i].sender == userA && messages[i].receiver == userB) ||\n                (messages[i].sender == userB && messages[i].receiver == userA)\n            ) {\n                result[index] = messages[i];\n                index++;\n            }\n        }\n\n        return result;\n    }\n\n    function getAllMessages() external view returns (Message[] memory) {\n        return messages;\n    }\n    \n    function getAllRestaurants() public view returns (Restaurant[] memory) {\n        Restaurant[] memory allRestaurants = new Restaurant[](restaurantCount);\n        for (uint i = 1; i <= restaurantCount; i++) {\n            allRestaurants[i - 1] = restaurants[i];\n        }\n        return allRestaurants;\n    }\n\n    function getAllFoods() public view returns (Food[] memory) {\n        Food[] memory allFoods = new Food[](foodCount);\n        for (uint i = 1; i <= foodCount; i++) {\n            allFoods[i - 1] = foods[i];\n        }\n        return allFoods;\n    }\n\n    \n    function getAllCategory() public view returns (FoodCategory[] memory) {\n        FoodCategory[] memory allCate = new FoodCategory[](categoryCount);\n        for (uint i = 1; i <= categoryCount; i++) {\n            allCate[i - 1] = categories[i];\n        }\n        return allCate;\n    }\n\n\nfunction getOrdersBySender() public view returns (Order[] memory) {\n\n        uint count = 0;\n\n        // m s lng n hng ca sender\n        for (uint i = 1; i <= orderCount; i++) {\n            if (orders[i].customer == msg.sender) {\n                count++;\n            }\n        }\n\n        // To mng kt qu\n        Order[] memory senderOrders = new Order[](count);\n        uint index = 0;\n        for (uint i = 1; i <= orderCount; i++) {\n            if (orders[i].customer == msg.sender) {\n                senderOrders[index] = orders[i];\n                index++;\n            }\n        }\n\n        return senderOrders;\n    }\n\n\n    function getOrderDetails(uint _orderId) public view returns (DetailOrder[] memory) {\n        uint itemCount = orderDetailCount[_orderId];\n        DetailOrder[] memory items = new DetailOrder[](itemCount);\n\n        for (uint i = 0; i < itemCount; i++) {\n            items[i] = orderDetails[_orderId][i+1];\n        }\n\n        return items;\n    }\n\n    function getRatingsForFood(uint _foodId) public view returns (Rating[] memory) {\n        require(foods[_foodId].id != 0, \"Food does not exist\");\n\n        uint count = ratingCountPerFood[_foodId];\n        Rating[] memory foodRatings = new Rating[](count);\n        \n        for (uint i = 0; i < count; i++) {\n            foodRatings[i] = ratings[_foodId][i+1];\n        }\n        \n        return foodRatings;\n    }\n\n    function searchRestaurants( string memory _keyword) public view returns (Restaurant[] memory) {\n        Restaurant[] memory tempResults = new Restaurant[](restaurantCount);\n        uint count = 0;\n\n        for (uint i = 1; i <= restaurantCount; i++) {\n            string memory fullLocation = string(\n                abi.encodePacked(\n                    restaurants[i].street, \" \", \n                    restaurants[i].ward, \" \", \n                    restaurants[i].district, \" \", \n                    restaurants[i].city\n                )\n            );\n\n            if (\n                (_contains(restaurants[i].name, _keyword) ||\n                _contains(fullLocation, _keyword))\n            ) {\n                tempResults[count] = restaurants[i];\n                count++;\n            }\n        }\n\n        // To mt mng ng kch thc  tr v\n        Restaurant[] memory results = new Restaurant[](count);\n        for (uint j = 0; j < count; j++) {\n            results[j] = tempResults[j];\n        }\n        return results;\n    }\n\n    function searchFood( string memory _keyword) public view returns (Food[] memory) {\n        Food[] memory tempResults = new Food[](foodCount);\n        uint count = 0;\n\n        for (uint i = 1; i <= foodCount; i++) {\n            if (\n                (_contains(foods[i].name, _keyword) ||\n                _contains(categories[foods[i].categoryId].name, _keyword))\n            ) {\n                tempResults[count] = foods[i];\n                count++;\n            }\n        }\n\n        // To mt mng ng kch thc  tr v\n        Food[] memory results = new Food[](count);\n        for (uint j = 0; j < count; j++) {\n            results[j] = tempResults[j];\n        }\n        return results;\n    }\n\n    function _contains(string memory _str, string memory _keyword) internal pure returns (bool) {\n        bytes memory strBytes = bytes(_str);\n        bytes memory keywordBytes = bytes(_keyword);\n        \n        if (keywordBytes.length > strBytes.length) return false;\n\n        for (uint i = 0; i <= strBytes.length - keywordBytes.length; i++) {\n            bool found = true;\n            for (uint j = 0; j < keywordBytes.length; j++) {\n                if (strBytes[i + j] != keywordBytes[j]) {\n                    found = false;\n                    break;\n                }\n            }\n            if (found) return true;\n        }\n        return false;\n    }\n\n    // function getAllOrders() public view returns (Order[] memory) {\n    //     uint count = 0;\n\n    //     // m tng s order ca msg.sender\n    //     for (uint i = 1; i <= orderCount; i++) {\n    //         uint restId = orders[i].restaurantId;\n    //         if (restaurants[restId].owner == msg.sender) {\n    //             count++;\n    //         }\n    //     }\n\n    //     Order[] memory ownerOrders = new Order[](count);\n    //     uint index = 0;\n        \n    //     for (uint i = 1; i <= orderCount; i++) {\n    //         uint restId = orders[i].restaurantId;\n    //         if (restaurants[restId].owner == msg.sender) {\n    //             ownerOrders[index] = orders[i];\n    //             index++;\n    //         }\n    //     }\n\n    //     return ownerOrders;\n    // }\n    // function filterFoods(\n    //     uint _minPrice, \n    //     uint _maxPrice, \n    //     uint _categoryId, \n    //     uint _minRating, \n    //     bool _isVegan, \n    //     bool _isGlutenFree\n    // ) public view returns (Food[] memory) {\n    //     Food[] memory tempFoods = new Food[](foodCount);\n    //     uint count = 0;\n\n    //     for (uint i = 1; i <= foodCount; i++) {\n    //         Food storage food = foods[i];\n    //         uint avgRating = (food.totalRatings > 0) ? (food.totalStars / food.totalRatings) : 0;\n\n    //         // Kim tra iu kin lc\n    //         bool matchesCategory = (_categoryId == 0 || food.categoryId == _categoryId);\n    //         bool matchesPrice = (food.price >= _minPrice && food.price <= _maxPrice);\n    //         bool matchesRating = (avgRating >= _minRating);\n    //         bool matchesVegan = (!_isVegan || food.isVegan);\n    //         bool matchesGlutenFree = (!_isGlutenFree || food.isGlutenFree);\n\n    //         if (matchesCategory && matchesPrice && matchesRating && matchesVegan && matchesGlutenFree) {\n    //             tempFoods[count] = food;\n    //             count++;\n    //         }\n    //     }\n\n    //     // To mng kt qu c kch thc ng\n    //     Food[] memory filteredFoods = new Food[](count);\n    //     for (uint j = 0; j < count; j++) {\n    //         filteredFoods[j] = tempFoods[j];\n    //     }\n\n    //     return filteredFoods;\n    // }\n\n\n}",
  "sourcePath": "D:\\ReactJs\\bookfoodFEW3-master\\contracts\\Bookfood.sol",
  "compiler": {
    "name": "solc",
    "version": "0.8.19+commit.7dd6d404.Emscripten.clang"
  },
  "schemaVersion": "3.4.16",
  "updatedAt": "2025-04-25T02:54:48.880Z",
  "networkType": "ethereum",
  "devdoc": {
    "kind": "dev",
    "methods": {},
    "version": 1
  },
  "userdoc": {
    "kind": "user",
    "methods": {},
    "version": 1
  }
}