{
  "contractName": "Bookfood",
  "abi": [
    {
      "inputs": [
        {
          "internalType": "address payable",
          "name": "_beneficiary",
          "type": "address"
        }
      ],
      "stateMutability": "nonpayable",
      "type": "constructor"
    },
    {
      "anonymous": false,
      "inputs": [
        {
          "indexed": true,
          "internalType": "uint256",
          "name": "id",
          "type": "uint256"
        },
        {
          "indexed": false,
          "internalType": "string",
          "name": "name",
          "type": "string"
        },
        {
          "indexed": false,
          "internalType": "string",
          "name": "img",
          "type": "string"
        },
        {
          "indexed": false,
          "internalType": "string",
          "name": "detail",
          "type": "string"
        },
        {
          "indexed": false,
          "internalType": "uint256",
          "name": "categoryId",
          "type": "uint256"
        },
        {
          "indexed": false,
          "internalType": "uint256",
          "name": "price",
          "type": "uint256"
        },
        {
          "indexed": false,
          "internalType": "bool",
          "name": "isVegan",
          "type": "bool"
        },
        {
          "indexed": false,
          "internalType": "bool",
          "name": "isGlutenFree",
          "type": "bool"
        },
        {
          "indexed": false,
          "internalType": "uint256",
          "name": "totalStars",
          "type": "uint256"
        },
        {
          "indexed": false,
          "internalType": "uint256",
          "name": "totalRatings",
          "type": "uint256"
        },
        {
          "indexed": false,
          "internalType": "address",
          "name": "addedBy",
          "type": "address"
        },
        {
          "indexed": false,
          "internalType": "uint256",
          "name": "timestamp",
          "type": "uint256"
        }
      ],
      "name": "FoodAdded",
      "type": "event"
    },
    {
      "anonymous": false,
      "inputs": [
        {
          "indexed": true,
          "internalType": "address",
          "name": "sender",
          "type": "address"
        },
        {
          "indexed": true,
          "internalType": "address",
          "name": "receiver",
          "type": "address"
        },
        {
          "indexed": false,
          "internalType": "string",
          "name": "message",
          "type": "string"
        },
        {
          "indexed": false,
          "internalType": "uint256",
          "name": "timestamp",
          "type": "uint256"
        }
      ],
      "name": "NewMessage",
      "type": "event"
    },
    {
      "anonymous": false,
      "inputs": [
        {
          "indexed": true,
          "internalType": "uint256",
          "name": "id",
          "type": "uint256"
        },
        {
          "indexed": true,
          "internalType": "address",
          "name": "customer",
          "type": "address"
        },
        {
          "indexed": false,
          "internalType": "uint256",
          "name": "discount",
          "type": "uint256"
        },
        {
          "indexed": false,
          "internalType": "uint256",
          "name": "totalPrice",
          "type": "uint256"
        },
        {
          "indexed": false,
          "internalType": "enum Bookfood.OrderStatus",
          "name": "status",
          "type": "uint8"
        },
        {
          "indexed": false,
          "internalType": "enum Bookfood.Payment",
          "name": "payment",
          "type": "uint8"
        },
        {
          "indexed": false,
          "internalType": "bool",
          "name": "isReviewed",
          "type": "bool"
        },
        {
          "indexed": false,
          "internalType": "bool",
          "name": "isPay",
          "type": "bool"
        },
        {
          "indexed": false,
          "internalType": "string",
          "name": "note",
          "type": "string"
        },
        {
          "indexed": false,
          "internalType": "uint256",
          "name": "timestamp",
          "type": "uint256"
        }
      ],
      "name": "OrderPlacedEvent",
      "type": "event"
    },
    {
      "anonymous": false,
      "inputs": [
        {
          "indexed": false,
          "internalType": "uint256",
          "name": "orderId",
          "type": "uint256"
        },
        {
          "indexed": true,
          "internalType": "address",
          "name": "customer",
          "type": "address"
        },
        {
          "indexed": false,
          "internalType": "enum Bookfood.OrderStatus",
          "name": "status",
          "type": "uint8"
        }
      ],
      "name": "OrderStatusUpdated",
      "type": "event"
    },
    {
      "inputs": [],
      "name": "beneficiary",
      "outputs": [
        {
          "internalType": "address payable",
          "name": "",
          "type": "address"
        }
      ],
      "stateMutability": "view",
      "type": "function",
      "constant": true
    },
    {
      "inputs": [
        {
          "internalType": "uint256",
          "name": "",
          "type": "uint256"
        }
      ],
      "name": "categories",
      "outputs": [
        {
          "internalType": "uint256",
          "name": "id",
          "type": "uint256"
        },
        {
          "internalType": "string",
          "name": "name",
          "type": "string"
        }
      ],
      "stateMutability": "view",
      "type": "function",
      "constant": true
    },
    {
      "inputs": [
        {
          "internalType": "uint256",
          "name": "",
          "type": "uint256"
        }
      ],
      "name": "foods",
      "outputs": [
        {
          "internalType": "uint256",
          "name": "id",
          "type": "uint256"
        },
        {
          "internalType": "string",
          "name": "name",
          "type": "string"
        },
        {
          "internalType": "string",
          "name": "img",
          "type": "string"
        },
        {
          "internalType": "string",
          "name": "detail",
          "type": "string"
        },
        {
          "internalType": "uint256",
          "name": "categoryId",
          "type": "uint256"
        },
        {
          "internalType": "uint256",
          "name": "price",
          "type": "uint256"
        },
        {
          "internalType": "bool",
          "name": "isVegan",
          "type": "bool"
        },
        {
          "internalType": "bool",
          "name": "isGlutenFree",
          "type": "bool"
        },
        {
          "internalType": "uint256",
          "name": "totalStars",
          "type": "uint256"
        },
        {
          "internalType": "uint256",
          "name": "totalRatings",
          "type": "uint256"
        }
      ],
      "stateMutability": "view",
      "type": "function",
      "constant": true
    },
    {
      "inputs": [
        {
          "internalType": "uint256",
          "name": "",
          "type": "uint256"
        }
      ],
      "name": "orderDetailCount",
      "outputs": [
        {
          "internalType": "uint256",
          "name": "",
          "type": "uint256"
        }
      ],
      "stateMutability": "view",
      "type": "function",
      "constant": true
    },
    {
      "inputs": [
        {
          "internalType": "uint256",
          "name": "",
          "type": "uint256"
        },
        {
          "internalType": "uint256",
          "name": "",
          "type": "uint256"
        }
      ],
      "name": "orderDetails",
      "outputs": [
        {
          "internalType": "uint256",
          "name": "foodId",
          "type": "uint256"
        },
        {
          "internalType": "uint256",
          "name": "quantity",
          "type": "uint256"
        },
        {
          "internalType": "uint256",
          "name": "price",
          "type": "uint256"
        }
      ],
      "stateMutability": "view",
      "type": "function",
      "constant": true
    },
    {
      "inputs": [
        {
          "internalType": "uint256",
          "name": "",
          "type": "uint256"
        }
      ],
      "name": "orders",
      "outputs": [
        {
          "internalType": "uint256",
          "name": "id",
          "type": "uint256"
        },
        {
          "internalType": "address",
          "name": "customer",
          "type": "address"
        },
        {
          "internalType": "uint256",
          "name": "discount",
          "type": "uint256"
        },
        {
          "internalType": "uint256",
          "name": "totalPrice",
          "type": "uint256"
        },
        {
          "internalType": "enum Bookfood.OrderStatus",
          "name": "status",
          "type": "uint8"
        },
        {
          "internalType": "enum Bookfood.Payment",
          "name": "payment",
          "type": "uint8"
        },
        {
          "internalType": "bool",
          "name": "isReviewed",
          "type": "bool"
        },
        {
          "internalType": "bool",
          "name": "isPay",
          "type": "bool"
        },
        {
          "internalType": "string",
          "name": "note",
          "type": "string"
        }
      ],
      "stateMutability": "view",
      "type": "function",
      "constant": true
    },
    {
      "inputs": [
        {
          "internalType": "address",
          "name": "",
          "type": "address"
        }
      ],
      "name": "points",
      "outputs": [
        {
          "internalType": "uint256",
          "name": "",
          "type": "uint256"
        }
      ],
      "stateMutability": "view",
      "type": "function",
      "constant": true
    },
    {
      "inputs": [
        {
          "internalType": "uint256",
          "name": "",
          "type": "uint256"
        }
      ],
      "name": "ratingCountPerFood",
      "outputs": [
        {
          "internalType": "uint256",
          "name": "",
          "type": "uint256"
        }
      ],
      "stateMutability": "view",
      "type": "function",
      "constant": true
    },
    {
      "inputs": [
        {
          "internalType": "uint256",
          "name": "",
          "type": "uint256"
        },
        {
          "internalType": "uint256",
          "name": "",
          "type": "uint256"
        }
      ],
      "name": "ratings",
      "outputs": [
        {
          "internalType": "uint256",
          "name": "id",
          "type": "uint256"
        },
        {
          "internalType": "uint256",
          "name": "foodId",
          "type": "uint256"
        },
        {
          "internalType": "address",
          "name": "user",
          "type": "address"
        },
        {
          "internalType": "string",
          "name": "review",
          "type": "string"
        },
        {
          "internalType": "uint256",
          "name": "stars",
          "type": "uint256"
        }
      ],
      "stateMutability": "view",
      "type": "function",
      "constant": true
    },
    {
      "inputs": [
        {
          "internalType": "uint256",
          "name": "",
          "type": "uint256"
        }
      ],
      "name": "restaurants",
      "outputs": [
        {
          "internalType": "uint256",
          "name": "id",
          "type": "uint256"
        },
        {
          "internalType": "string",
          "name": "name",
          "type": "string"
        },
        {
          "internalType": "string",
          "name": "houseNumber",
          "type": "string"
        },
        {
          "internalType": "string",
          "name": "street",
          "type": "string"
        },
        {
          "internalType": "string",
          "name": "ward",
          "type": "string"
        },
        {
          "internalType": "string",
          "name": "district",
          "type": "string"
        },
        {
          "internalType": "string",
          "name": "city",
          "type": "string"
        },
        {
          "internalType": "address",
          "name": "owner",
          "type": "address"
        }
      ],
      "stateMutability": "view",
      "type": "function",
      "constant": true
    },
    {
      "inputs": [
        {
          "internalType": "uint256",
          "name": "_orderId",
          "type": "uint256"
        }
      ],
      "name": "processPayment",
      "outputs": [],
      "stateMutability": "payable",
      "type": "function",
      "payable": true
    },
    {
      "inputs": [
        {
          "internalType": "string",
          "name": "_name",
          "type": "string"
        },
        {
          "internalType": "string",
          "name": "_houseNumber",
          "type": "string"
        },
        {
          "internalType": "string",
          "name": "_street",
          "type": "string"
        },
        {
          "internalType": "string",
          "name": "_ward",
          "type": "string"
        },
        {
          "internalType": "string",
          "name": "_district",
          "type": "string"
        },
        {
          "internalType": "string",
          "name": "_city",
          "type": "string"
        }
      ],
      "name": "addRestaurant",
      "outputs": [],
      "stateMutability": "nonpayable",
      "type": "function"
    },
    {
      "inputs": [
        {
          "internalType": "string",
          "name": "_name",
          "type": "string"
        }
      ],
      "name": "addCategory",
      "outputs": [],
      "stateMutability": "nonpayable",
      "type": "function"
    },
    {
      "inputs": [
        {
          "internalType": "string",
          "name": "_name",
          "type": "string"
        },
        {
          "internalType": "string",
          "name": "_detail",
          "type": "string"
        },
        {
          "internalType": "uint256",
          "name": "_categoryId",
          "type": "uint256"
        },
        {
          "internalType": "uint256",
          "name": "_price",
          "type": "uint256"
        },
        {
          "internalType": "bool",
          "name": "_isVegan",
          "type": "bool"
        },
        {
          "internalType": "bool",
          "name": "_isGlutenFree",
          "type": "bool"
        },
        {
          "internalType": "string",
          "name": "img",
          "type": "string"
        }
      ],
      "name": "addFood",
      "outputs": [],
      "stateMutability": "nonpayable",
      "type": "function"
    },
    {
      "inputs": [
        {
          "internalType": "uint256",
          "name": "_idOrder",
          "type": "uint256"
        },
        {
          "internalType": "string[]",
          "name": "_reviews",
          "type": "string[]"
        },
        {
          "internalType": "uint256[]",
          "name": "_stars",
          "type": "uint256[]"
        }
      ],
      "name": "addRating",
      "outputs": [],
      "stateMutability": "nonpayable",
      "type": "function"
    },
    {
      "inputs": [
        {
          "internalType": "enum Bookfood.Payment",
          "name": "_payment",
          "type": "uint8"
        },
        {
          "internalType": "uint256[]",
          "name": "_foodIds",
          "type": "uint256[]"
        },
        {
          "internalType": "uint256[]",
          "name": "_quantities",
          "type": "uint256[]"
        },
        {
          "internalType": "bool",
          "name": "UsePoint",
          "type": "bool"
        },
        {
          "internalType": "string",
          "name": "note",
          "type": "string"
        }
      ],
      "name": "placeOrder",
      "outputs": [],
      "stateMutability": "nonpayable",
      "type": "function"
    },
    {
      "inputs": [
        {
          "internalType": "uint256",
          "name": "_orderId",
          "type": "uint256"
        },
        {
          "internalType": "enum Bookfood.OrderStatus",
          "name": "_status",
          "type": "uint8"
        }
      ],
      "name": "updateOrderStatus",
      "outputs": [],
      "stateMutability": "nonpayable",
      "type": "function"
    },
    {
      "inputs": [
        {
          "internalType": "address",
          "name": "receiver",
          "type": "address"
        },
        {
          "internalType": "string",
          "name": "messageText",
          "type": "string"
        }
      ],
      "name": "sendMessage",
      "outputs": [],
      "stateMutability": "nonpayable",
      "type": "function"
    },
    {
      "inputs": [
        {
          "internalType": "address",
          "name": "userA",
          "type": "address"
        },
        {
          "internalType": "address",
          "name": "userB",
          "type": "address"
        }
      ],
      "name": "getMyMessages",
      "outputs": [
        {
          "components": [
            {
              "internalType": "address",
              "name": "sender",
              "type": "address"
            },
            {
              "internalType": "address",
              "name": "receiver",
              "type": "address"
            },
            {
              "internalType": "string",
              "name": "message",
              "type": "string"
            },
            {
              "internalType": "uint256",
              "name": "timestamp",
              "type": "uint256"
            }
          ],
          "internalType": "struct Bookfood.Message[]",
          "name": "",
          "type": "tuple[]"
        }
      ],
      "stateMutability": "view",
      "type": "function",
      "constant": true
    },
    {
      "inputs": [],
      "name": "getAllMessages",
      "outputs": [
        {
          "components": [
            {
              "internalType": "address",
              "name": "sender",
              "type": "address"
            },
            {
              "internalType": "address",
              "name": "receiver",
              "type": "address"
            },
            {
              "internalType": "string",
              "name": "message",
              "type": "string"
            },
            {
              "internalType": "uint256",
              "name": "timestamp",
              "type": "uint256"
            }
          ],
          "internalType": "struct Bookfood.Message[]",
          "name": "",
          "type": "tuple[]"
        }
      ],
      "stateMutability": "view",
      "type": "function",
      "constant": true
    },
    {
      "inputs": [],
      "name": "getAllRestaurants",
      "outputs": [
        {
          "components": [
            {
              "internalType": "uint256",
              "name": "id",
              "type": "uint256"
            },
            {
              "internalType": "string",
              "name": "name",
              "type": "string"
            },
            {
              "internalType": "string",
              "name": "houseNumber",
              "type": "string"
            },
            {
              "internalType": "string",
              "name": "street",
              "type": "string"
            },
            {
              "internalType": "string",
              "name": "ward",
              "type": "string"
            },
            {
              "internalType": "string",
              "name": "district",
              "type": "string"
            },
            {
              "internalType": "string",
              "name": "city",
              "type": "string"
            },
            {
              "internalType": "address",
              "name": "owner",
              "type": "address"
            }
          ],
          "internalType": "struct Bookfood.Restaurant[]",
          "name": "",
          "type": "tuple[]"
        }
      ],
      "stateMutability": "view",
      "type": "function",
      "constant": true
    },
    {
      "inputs": [],
      "name": "getAllFoods",
      "outputs": [
        {
          "components": [
            {
              "internalType": "uint256",
              "name": "id",
              "type": "uint256"
            },
            {
              "internalType": "string",
              "name": "name",
              "type": "string"
            },
            {
              "internalType": "string",
              "name": "img",
              "type": "string"
            },
            {
              "internalType": "string",
              "name": "detail",
              "type": "string"
            },
            {
              "internalType": "uint256",
              "name": "categoryId",
              "type": "uint256"
            },
            {
              "internalType": "uint256",
              "name": "price",
              "type": "uint256"
            },
            {
              "internalType": "bool",
              "name": "isVegan",
              "type": "bool"
            },
            {
              "internalType": "bool",
              "name": "isGlutenFree",
              "type": "bool"
            },
            {
              "internalType": "uint256",
              "name": "totalStars",
              "type": "uint256"
            },
            {
              "internalType": "uint256",
              "name": "totalRatings",
              "type": "uint256"
            }
          ],
          "internalType": "struct Bookfood.Food[]",
          "name": "",
          "type": "tuple[]"
        }
      ],
      "stateMutability": "view",
      "type": "function",
      "constant": true
    },
    {
      "inputs": [],
      "name": "getAllCategory",
      "outputs": [
        {
          "components": [
            {
              "internalType": "uint256",
              "name": "id",
              "type": "uint256"
            },
            {
              "internalType": "string",
              "name": "name",
              "type": "string"
            }
          ],
          "internalType": "struct Bookfood.FoodCategory[]",
          "name": "",
          "type": "tuple[]"
        }
      ],
      "stateMutability": "view",
      "type": "function",
      "constant": true
    },
    {
      "inputs": [],
      "name": "getOrdersBySender",
      "outputs": [
        {
          "components": [
            {
              "internalType": "uint256",
              "name": "id",
              "type": "uint256"
            },
            {
              "internalType": "address",
              "name": "customer",
              "type": "address"
            },
            {
              "internalType": "uint256",
              "name": "discount",
              "type": "uint256"
            },
            {
              "internalType": "uint256",
              "name": "totalPrice",
              "type": "uint256"
            },
            {
              "internalType": "enum Bookfood.OrderStatus",
              "name": "status",
              "type": "uint8"
            },
            {
              "internalType": "enum Bookfood.Payment",
              "name": "payment",
              "type": "uint8"
            },
            {
              "internalType": "bool",
              "name": "isReviewed",
              "type": "bool"
            },
            {
              "internalType": "bool",
              "name": "isPay",
              "type": "bool"
            },
            {
              "internalType": "string",
              "name": "note",
              "type": "string"
            }
          ],
          "internalType": "struct Bookfood.Order[]",
          "name": "",
          "type": "tuple[]"
        }
      ],
      "stateMutability": "view",
      "type": "function",
      "constant": true
    },
    {
      "inputs": [
        {
          "internalType": "uint256",
          "name": "_orderId",
          "type": "uint256"
        }
      ],
      "name": "getOrderDetails",
      "outputs": [
        {
          "components": [
            {
              "internalType": "uint256",
              "name": "foodId",
              "type": "uint256"
            },
            {
              "internalType": "uint256",
              "name": "quantity",
              "type": "uint256"
            },
            {
              "internalType": "uint256",
              "name": "price",
              "type": "uint256"
            }
          ],
          "internalType": "struct Bookfood.DetailOrder[]",
          "name": "",
          "type": "tuple[]"
        }
      ],
      "stateMutability": "view",
      "type": "function",
      "constant": true
    },
    {
      "inputs": [
        {
          "internalType": "uint256",
          "name": "_foodId",
          "type": "uint256"
        }
      ],
      "name": "getRatingsForFood",
      "outputs": [
        {
          "components": [
            {
              "internalType": "uint256",
              "name": "id",
              "type": "uint256"
            },
            {
              "internalType": "uint256",
              "name": "foodId",
              "type": "uint256"
            },
            {
              "internalType": "address",
              "name": "user",
              "type": "address"
            },
            {
              "internalType": "string",
              "name": "review",
              "type": "string"
            },
            {
              "internalType": "uint256",
              "name": "stars",
              "type": "uint256"
            }
          ],
          "internalType": "struct Bookfood.Rating[]",
          "name": "",
          "type": "tuple[]"
        }
      ],
      "stateMutability": "view",
      "type": "function",
      "constant": true
    },
    {
      "inputs": [
        {
          "internalType": "string",
          "name": "_keyword",
          "type": "string"
        }
      ],
      "name": "searchRestaurants",
      "outputs": [
        {
          "components": [
            {
              "internalType": "uint256",
              "name": "id",
              "type": "uint256"
            },
            {
              "internalType": "string",
              "name": "name",
              "type": "string"
            },
            {
              "internalType": "string",
              "name": "houseNumber",
              "type": "string"
            },
            {
              "internalType": "string",
              "name": "street",
              "type": "string"
            },
            {
              "internalType": "string",
              "name": "ward",
              "type": "string"
            },
            {
              "internalType": "string",
              "name": "district",
              "type": "string"
            },
            {
              "internalType": "string",
              "name": "city",
              "type": "string"
            },
            {
              "internalType": "address",
              "name": "owner",
              "type": "address"
            }
          ],
          "internalType": "struct Bookfood.Restaurant[]",
          "name": "",
          "type": "tuple[]"
        }
      ],
      "stateMutability": "view",
      "type": "function",
      "constant": true
    },
    {
      "inputs": [
        {
          "internalType": "string",
          "name": "_keyword",
          "type": "string"
        }
      ],
      "name": "searchFood",
      "outputs": [
        {
          "components": [
            {
              "internalType": "uint256",
              "name": "id",
              "type": "uint256"
            },
            {
              "internalType": "string",
              "name": "name",
              "type": "string"
            },
            {
              "internalType": "string",
              "name": "img",
              "type": "string"
            },
            {
              "internalType": "string",
              "name": "detail",
              "type": "string"
            },
            {
              "internalType": "uint256",
              "name": "categoryId",
              "type": "uint256"
            },
            {
              "internalType": "uint256",
              "name": "price",
              "type": "uint256"
            },
            {
              "internalType": "bool",
              "name": "isVegan",
              "type": "bool"
            },
            {
              "internalType": "bool",
              "name": "isGlutenFree",
              "type": "bool"
            },
            {
              "internalType": "uint256",
              "name": "totalStars",
              "type": "uint256"
            },
            {
              "internalType": "uint256",
              "name": "totalRatings",
              "type": "uint256"
            }
          ],
          "internalType": "struct Bookfood.Food[]",
          "name": "",
          "type": "tuple[]"
        }
      ],
      "stateMutability": "view",
      "type": "function",
      "constant": true
    }
  ],
  "bytecode": "0x60806040523480156200001157600080fd5b506040516200501f3803806200501f83398101604081905262000034916200005a565b600a80546001600160a01b0319166001600160a01b03929092169190911790556200008c565b6000602082840312156200006d57600080fd5b81516001600160a01b03811681146200008557600080fd5b9392505050565b614f83806200009c6000396000f3fe6080604052600436106101b75760003560e01c8063ad5461d8116100ec578063d21d6f151161008a578063e9d8ba4711610064578063e9d8ba471461057c578063ec7dd7bb146105de578063feb8d5541461060b578063fef386911461062b57600080fd5b8063d21d6f151461050f578063de6f24bb1461052f578063e7253aa91461054f57600080fd5b8063b9b5aae6116100c6578063b9b5aae61461048a578063c1fa671e1461049f578063c6cdbe5e146104bf578063ce31a684146104ed57600080fd5b8063ad5461d814610416578063ad71acbd1461044a578063af73e89e1461046a57600080fd5b806353f5e380116101595780638f2c2805116101335780638f2c280514610372578063a7e3952014610394578063a85c38ef146103c1578063aab3196d146103f657600080fd5b806353f5e380146103015780635ac88c1c14610323578063877344001461035057600080fd5b8063358b816611610195578063358b81661461025857806338af3eed146102855780633a2f8485146102bd578063482ef360146102d057600080fd5b806314d3f10e146101bc5780632e0dcbf7146101fb578063302355bd1461021d575b600080fd5b3480156101c857600080fd5b506101dc6101d7366004613e09565b61064b565b6040516101f29a99989796959493929190613e68565b60405180910390f35b34801561020757600080fd5b5061021b610216366004613f96565b610838565b005b34801561022957600080fd5b5061024a610238366004613e09565b60076020526000908152604090205481565b6040519081526020016101f2565b34801561026457600080fd5b5061024a610273366004613fee565b60096020526000908152604090205481565b34801561029157600080fd5b50600a546102a5906001600160a01b031681565b6040516001600160a01b0390911681526020016101f2565b61021b6102cb366004613e09565b61088f565b3480156102dc57600080fd5b506102f06102eb366004614010565b6109a7565b6040516101f2959493929190614032565b34801561030d57600080fd5b50610316610a73565b6040516101f29190614071565b34801561032f57600080fd5b5061024a61033e366004613e09565b60046020526000908152604090205481565b34801561035c57600080fd5b50610365610b91565b6040516101f2919061410b565b34801561037e57600080fd5b50610387610fda565b6040516101f29190614218565b3480156103a057600080fd5b506103b46103af366004613f96565b611143565b6040516101f2919061427e565b3480156103cd57600080fd5b506103e16103dc366004613e09565b6115a8565b6040516101f2999897969594939291906143ac565b34801561040257600080fd5b5061021b61041136600461442f565b611697565b34801561042257600080fd5b50610436610431366004613e09565b6118ae565b6040516101f298979695949392919061445f565b34801561045657600080fd5b50610365610465366004613f96565b611c27565b34801561047657600080fd5b5061021b6104853660046144fb565b61221f565b34801561049657600080fd5b506103b4612336565b3480156104ab57600080fd5b5061021b6104ba36600461467d565b6125fd565b3480156104cb57600080fd5b506104df6104da366004613e09565b6129e9565b6040516101f292919061475b565b3480156104f957600080fd5b50610502612a8e565b6040516101f29190614774565b34801561051b57600080fd5b5061021b61052a366004614857565b612d27565b34801561053b57600080fd5b5061021b61054a366004614902565b6131e6565b34801561055b57600080fd5b5061056f61056a366004613e09565b613372565b6040516101f29190614984565b34801561058857600080fd5b506105c3610597366004614010565b600660209081526000928352604080842090915290825290208054600182015460029092015490919083565b604080519384526020840192909252908201526060016101f2565b3480156105ea57600080fd5b506105fe6105f9366004613e09565b61359c565b6040516101f29190614a19565b34801561061757600080fd5b50610316610626366004614a72565b6136aa565b34801561063757600080fd5b5061021b610646366004614aa5565b613aaf565b6002602052600090815260409020805460018201805491929161066d90614b61565b80601f016020809104026020016040519081016040528092919081815260200182805461069990614b61565b80156106e65780601f106106bb576101008083540402835291602001916106e6565b820191906000526020600020905b8154815290600101906020018083116106c957829003601f168201915b5050505050908060020180546106fb90614b61565b80601f016020809104026020016040519081016040528092919081815260200182805461072790614b61565b80156107745780601f1061074957610100808354040283529160200191610774565b820191906000526020600020905b81548152906001019060200180831161075757829003601f168201915b50505050509080600301805461078990614b61565b80601f01602080910402602001604051908101604052809291908181526020018280546107b590614b61565b80156108025780601f106107d757610100808354040283529160200191610802565b820191906000526020600020905b8154815290600101906020018083116107e557829003601f168201915b5050505060048301546005840154600685015460078601546008909601549495929491935060ff8082169361010090920416918a565b600e805490600061084883614bab565b9091555050604080518082018252600e5480825260208083018581526000928352600890915292902081518155915190919060018201906108899082614c13565b50505050565b600081815260056020526040902060018101546001600160a01b031633146108fe5760405162461bcd60e51b815260206004820152601860248201527f4f6e6c79206f72646572206f776e65722063616e20706179000000000000000060448201526064015b60405180910390fd5b600381015480610910346103e8614cd2565b10156109555760405162461bcd60e51b8152602060048201526014602482015273125b9cdd59999a58da595b9d081c185e5b595b9d60621b60448201526064016108f5565b600a546040516001600160a01b03909116903480156108fc02916000818181858888f1935050505015801561098e573d6000803e3d6000fd5b5050600401805463ff0000001916630100000017905550565b600360208181526000938452604080852090915291835291208054600182015460028301549383018054929491936001600160a01b03909216926109ea90614b61565b80601f0160208091040260200160405190810160405280929190818152602001828054610a1690614b61565b8015610a635780601f10610a3857610100808354040283529160200191610a63565b820191906000526020600020905b815481529060010190602001808311610a4657829003601f168201915b5050505050908060040154905085565b60606000805480602002602001604051908101604052809291908181526020016000905b82821015610b88576000848152602090819020604080516080810182526004860290920180546001600160a01b0390811684526001820154169383019390935260028301805492939291840191610aed90614b61565b80601f0160208091040260200160405190810160405280929190818152602001828054610b1990614b61565b8015610b665780601f10610b3b57610100808354040283529160200191610b66565b820191906000526020600020905b815481529060010190602001808311610b4957829003601f168201915b5050505050815260200160038201548152505081526020019060010190610a97565b50505050905090565b60606000600b546001600160401b03811115610baf57610baf613ee1565b604051908082528060200260200182016040528015610be857816020015b610bd5613d00565b815260200190600190039081610bcd5790505b50905060015b600b548111610fd4576000818152600160208181526040928390208351610100810190945280548452918201805491840191610c2990614b61565b80601f0160208091040260200160405190810160405280929190818152602001828054610c5590614b61565b8015610ca25780601f10610c7757610100808354040283529160200191610ca2565b820191906000526020600020905b815481529060010190602001808311610c8557829003601f168201915b50505050508152602001600282018054610cbb90614b61565b80601f0160208091040260200160405190810160405280929190818152602001828054610ce790614b61565b8015610d345780601f10610d0957610100808354040283529160200191610d34565b820191906000526020600020905b815481529060010190602001808311610d1757829003601f168201915b50505050508152602001600382018054610d4d90614b61565b80601f0160208091040260200160405190810160405280929190818152602001828054610d7990614b61565b8015610dc65780601f10610d9b57610100808354040283529160200191610dc6565b820191906000526020600020905b815481529060010190602001808311610da957829003601f168201915b50505050508152602001600482018054610ddf90614b61565b80601f0160208091040260200160405190810160405280929190818152602001828054610e0b90614b61565b8015610e585780601f10610e2d57610100808354040283529160200191610e58565b820191906000526020600020905b815481529060010190602001808311610e3b57829003601f168201915b50505050508152602001600582018054610e7190614b61565b80601f0160208091040260200160405190810160405280929190818152602001828054610e9d90614b61565b8015610eea5780601f10610ebf57610100808354040283529160200191610eea565b820191906000526020600020905b815481529060010190602001808311610ecd57829003601f168201915b50505050508152602001600682018054610f0390614b61565b80601f0160208091040260200160405190810160405280929190818152602001828054610f2f90614b61565b8015610f7c5780601f10610f5157610100808354040283529160200191610f7c565b820191906000526020600020905b815481529060010190602001808311610f5f57829003601f168201915b5050509183525050600791909101546001600160a01b031660209091015282610fa6600184614ce9565b81518110610fb657610fb6614cfc565b60200260200101819052508080610fcc90614bab565b915050610bee565b50919050565b60606000600e546001600160401b03811115610ff857610ff8613ee1565b60405190808252806020026020018201604052801561103e57816020015b6040805180820190915260008152606060208201528152602001906001900390816110165790505b50905060015b600e548111610fd457600860008281526020019081526020016000206040518060400160405290816000820154815260200160018201805461108590614b61565b80601f01602080910402602001604051908101604052809291908181526020018280546110b190614b61565b80156110fe5780601f106110d3576101008083540402835291602001916110fe565b820191906000526020600020905b8154815290600101906020018083116110e157829003601f168201915b505050505081525050826001836111159190614ce9565b8151811061112557611125614cfc565b6020026020010181905250808061113b90614bab565b915050611044565b60606000600c546001600160401b0381111561116157611161613ee1565b60405190808252806020026020018201604052801561119a57816020015b611187613d4e565b81526020019060019003908161117f5790505b509050600060015b600c5481116114f3576000818152600260205260409020600101805461125091906111cc90614b61565b80601f01602080910402602001604051908101604052809291908181526020018280546111f890614b61565b80156112455780601f1061121a57610100808354040283529160200191611245565b820191906000526020600020905b81548152906001019060200180831161122857829003601f168201915b505050505086613c21565b806112875750600081815260026020908152604080832060040154835260089091529020600101805461128791906111cc90614b61565b156114e1576002600082815260200190815260200160002060405180610140016040529081600082015481526020016001820180546112c590614b61565b80601f01602080910402602001604051908101604052809291908181526020018280546112f190614b61565b801561133e5780601f106113135761010080835404028352916020019161133e565b820191906000526020600020905b81548152906001019060200180831161132157829003601f168201915b5050505050815260200160028201805461135790614b61565b80601f016020809104026020016040519081016040528092919081815260200182805461138390614b61565b80156113d05780601f106113a5576101008083540402835291602001916113d0565b820191906000526020600020905b8154815290600101906020018083116113b357829003601f168201915b505050505081526020016003820180546113e990614b61565b80601f016020809104026020016040519081016040528092919081815260200182805461141590614b61565b80156114625780601f1061143757610100808354040283529160200191611462565b820191906000526020600020905b81548152906001019060200180831161144557829003601f168201915b50505091835250506004820154602082015260058201546040820152600682015460ff808216151560608401526101009091041615156080820152600782015460a082015260089091015460c09091015283518490849081106114c7576114c7614cfc565b602002602001018190525081806114dd90614bab565b9250505b806114eb81614bab565b9150506111a2565b506000816001600160401b0381111561150e5761150e613ee1565b60405190808252806020026020018201604052801561154757816020015b611534613d4e565b81526020019060019003908161152c5790505b50905060005b8281101561159f5783818151811061156757611567614cfc565b602002602001015182828151811061158157611581614cfc565b6020026020010181905250808061159790614bab565b91505061154d565b50949350505050565b600560208190526000918252604090912080546001820154600283015460038401546004850154958501805494966001600160a01b03909416959294919360ff808216946101008304821694620100008404831694630100000090940490921692909161161490614b61565b80601f016020809104026020016040519081016040528092919081815260200182805461164090614b61565b801561168d5780601f106116625761010080835404028352916020019161168d565b820191906000526020600020905b81548152906001019060200180831161167057829003601f168201915b5050505050905089565b60008281526005602052604081205490036116eb5760405162461bcd60e51b815260206004820152601460248201527313dc99195c88191bd95cc81b9bdd08195e1a5cdd60621b60448201526064016108f5565b60008281526005602052604090206004015460ff16600281111561171157611711614368565b81600281111561172357611723614368565b116117705760405162461bcd60e51b815260206004820152601960248201527f496e76616c696420737461747573207472616e736974696f6e0000000000000060448201526064016108f5565b60008083815260056020526040902060040154610100900460ff16600281111561179c5761179c614368565b0361181e576000828152600560205260409020600401546301000000900460ff1661181e5760405162461bcd60e51b815260206004820152602c60248201527f5061796d656e74206d75737420626520636f6d706c6574656420666f7220457760448201526b616c6c6574206f726465727360a01b60648201526084016108f5565b6000828152600560205260409020600401805482919060ff1916600183600281111561184c5761184c614368565b0217905550600082815260056020526040908190206001015490516001600160a01b03909116907f72dd0d4e3f429b5df521039075b9cc56fe25cd440df6186114f6aa93505a39fa906118a29085908590614d12565b60405180910390a25050565b6001602081905260009182526040909120805491810180546118cf90614b61565b80601f01602080910402602001604051908101604052809291908181526020018280546118fb90614b61565b80156119485780601f1061191d57610100808354040283529160200191611948565b820191906000526020600020905b81548152906001019060200180831161192b57829003601f168201915b50505050509080600201805461195d90614b61565b80601f016020809104026020016040519081016040528092919081815260200182805461198990614b61565b80156119d65780601f106119ab576101008083540402835291602001916119d6565b820191906000526020600020905b8154815290600101906020018083116119b957829003601f168201915b5050505050908060030180546119eb90614b61565b80601f0160208091040260200160405190810160405280929190818152602001828054611a1790614b61565b8015611a645780601f10611a3957610100808354040283529160200191611a64565b820191906000526020600020905b815481529060010190602001808311611a4757829003601f168201915b505050505090806004018054611a7990614b61565b80601f0160208091040260200160405190810160405280929190818152602001828054611aa590614b61565b8015611af25780601f10611ac757610100808354040283529160200191611af2565b820191906000526020600020905b815481529060010190602001808311611ad557829003601f168201915b505050505090806005018054611b0790614b61565b80601f0160208091040260200160405190810160405280929190818152602001828054611b3390614b61565b8015611b805780601f10611b5557610100808354040283529160200191611b80565b820191906000526020600020905b815481529060010190602001808311611b6357829003601f168201915b505050505090806006018054611b9590614b61565b80601f0160208091040260200160405190810160405280929190818152602001828054611bc190614b61565b8015611c0e5780601f10611be357610100808354040283529160200191611c0e565b820191906000526020600020905b815481529060010190602001808311611bf157829003601f168201915b505050600790930154919250506001600160a01b031688565b60606000600b546001600160401b03811115611c4557611c45613ee1565b604051908082528060200260200182016040528015611c7e57816020015b611c6b613d00565b815260200190600190039081611c635790505b509050600060015b600b5481116121735760008181526001602090815260408083209051611cc19260038301926004810192600582019260069092019101614da2565b6040516020818303038152906040529050611d7a600160008481526020019081526020016000206001018054611cf690614b61565b80601f0160208091040260200160405190810160405280929190818152602001828054611d2290614b61565b8015611d6f5780601f10611d4457610100808354040283529160200191611d6f565b820191906000526020600020905b815481529060010190602001808311611d5257829003601f168201915b505050505087613c21565b80611d8a5750611d8a8187613c21565b15612160576000828152600160208181526040928390208351610100810190945280548452918201805491840191611dc190614b61565b80601f0160208091040260200160405190810160405280929190818152602001828054611ded90614b61565b8015611e3a5780601f10611e0f57610100808354040283529160200191611e3a565b820191906000526020600020905b815481529060010190602001808311611e1d57829003601f168201915b50505050508152602001600282018054611e5390614b61565b80601f0160208091040260200160405190810160405280929190818152602001828054611e7f90614b61565b8015611ecc5780601f10611ea157610100808354040283529160200191611ecc565b820191906000526020600020905b815481529060010190602001808311611eaf57829003601f168201915b50505050508152602001600382018054611ee590614b61565b80601f0160208091040260200160405190810160405280929190818152602001828054611f1190614b61565b8015611f5e5780601f10611f3357610100808354040283529160200191611f5e565b820191906000526020600020905b815481529060010190602001808311611f4157829003601f168201915b50505050508152602001600482018054611f7790614b61565b80601f0160208091040260200160405190810160405280929190818152602001828054611fa390614b61565b8015611ff05780601f10611fc557610100808354040283529160200191611ff0565b820191906000526020600020905b815481529060010190602001808311611fd357829003601f168201915b5050505050815260200160058201805461200990614b61565b80601f016020809104026020016040519081016040528092919081815260200182805461203590614b61565b80156120825780601f1061205757610100808354040283529160200191612082565b820191906000526020600020905b81548152906001019060200180831161206557829003601f168201915b5050505050815260200160068201805461209b90614b61565b80601f01602080910402602001604051908101604052809291908181526020018280546120c790614b61565b80156121145780601f106120e957610100808354040283529160200191612114565b820191906000526020600020905b8154815290600101906020018083116120f757829003601f168201915b5050509183525050600791909101546001600160a01b0316602090910152845185908590811061214657612146614cfc565b6020026020010181905250828061215c90614bab565b9350505b508061216b81614bab565b915050611c86565b506000816001600160401b0381111561218e5761218e613ee1565b6040519080825280602002602001820160405280156121c757816020015b6121b4613d00565b8152602001906001900390816121ac5790505b50905060005b8281101561159f578381815181106121e7576121e7614cfc565b602002602001015182828151811061220157612201614cfc565b6020026020010181905250808061221790614bab565b9150506121cd565b600b805490600061222f83614bab565b90915550506040805161010081018252600b5480825260208083018a81528385018a9052606084018990526080840188905260a0840187905260c084018690523360e08501526000928352600191829052939091208251815592519192919082019061229b9082614c13565b50604082015160028201906122b09082614c13565b50606082015160038201906122c59082614c13565b50608082015160048201906122da9082614c13565b5060a082015160058201906122ef9082614c13565b5060c082015160068201906123049082614c13565b5060e09190910151600790910180546001600160a01b0319166001600160a01b03909216919091179055505050505050565b60606000600c546001600160401b0381111561235457612354613ee1565b60405190808252806020026020018201604052801561238d57816020015b61237a613d4e565b8152602001906001900390816123725790505b50905060015b600c548111610fd4576002600082815260200190815260200160002060405180610140016040529081600082015481526020016001820180546123d590614b61565b80601f016020809104026020016040519081016040528092919081815260200182805461240190614b61565b801561244e5780601f106124235761010080835404028352916020019161244e565b820191906000526020600020905b81548152906001019060200180831161243157829003601f168201915b5050505050815260200160028201805461246790614b61565b80601f016020809104026020016040519081016040528092919081815260200182805461249390614b61565b80156124e05780601f106124b5576101008083540402835291602001916124e0565b820191906000526020600020905b8154815290600101906020018083116124c357829003601f168201915b505050505081526020016003820180546124f990614b61565b80601f016020809104026020016040519081016040528092919081815260200182805461252590614b61565b80156125725780601f1061254757610100808354040283529160200191612572565b820191906000526020600020905b81548152906001019060200180831161255557829003601f168201915b50505091835250506004820154602082015260058201546040820152600682015460ff808216151560608401526101009091041615156080820152600782015460a082015260089091015460c090910152826125cf600184614ce9565b815181106125df576125df614cfc565b602002602001018190525080806125f590614bab565b915050612393565b80518251146126495760405162461bcd60e51b81526020600482015260186024820152774d69736d617463686564206172726179206c656e6774687360401b60448201526064016108f5565b6000838152600560205260409020600101546001600160a01b031633146126b25760405162461bcd60e51b815260206004820152601f60248201527f4f6e6c79207468652062757965722063616e20616464206120726174696e670060448201526064016108f5565b60008381526005602052604090206004015462010000900460ff161561271a5760405162461bcd60e51b815260206004820152601f60248201527f4f6e6c79207468652062757965722063616e20616464206120726174696e670060448201526064016108f5565b60005b6000848152600760205260409020548110156129c45760008481526006602052604081208161274d846001614df2565b8152602001908152602001600020600001549050806000036127b15760405162461bcd60e51b815260206004820152601a60248201527f44657461696c4f7264657220646f6573206e6f7420657869737400000000000060448201526064016108f5565b60018383815181106127c5576127c5614cfc565b6020026020010151101580156127f5575060058383815181106127ea576127ea614cfc565b602002602001015111155b6128415760405162461bcd60e51b815260206004820152601d60248201527f5374617273206d757374206265206265747765656e203120616e64203500000060448201526064016108f5565b600081815260046020526040812080549161285b83614bab565b91905055506000600460008381526020019081526020016000205490506040518060a00160405280828152602001838152602001336001600160a01b031681526020018685815181106128b0576128b0614cfc565b602002602001015181526020018585815181106128cf576128cf614cfc565b60209081029190910181015190915260008481526003808352604080832086845284529182902084518155928401516001840155908301516002830180546001600160a01b0319166001600160a01b0390921691909117905560608301519082019061293b9082614c13565b506080820151816004015590505083838151811061295b5761295b614cfc565b60200260200101516002600084815260200190815260200160002060070160008282546129889190614df2565b909155505060008281526002602052604081206008018054916129aa83614bab565b9190505550505080806129bc90614bab565b91505061271d565b5050506000908152600560205260409020600401805462ff0000191662010000179055565b60086020526000908152604090208054600182018054919291612a0b90614b61565b80601f0160208091040260200160405190810160405280929190818152602001828054612a3790614b61565b8015612a845780601f10612a5957610100808354040283529160200191612a84565b820191906000526020600020905b815481529060010190602001808311612a6757829003601f168201915b5050505050905082565b6060600060015b600d548111612ae157600081815260056020526040902060010154336001600160a01b0390911603612acf5781612acb81614bab565b9250505b80612ad981614bab565b915050612a95565b506000816001600160401b03811115612afc57612afc613ee1565b604051908082528060200260200182016040528015612b3557816020015b612b22613da5565b815260200190600190039081612b1a5790505b509050600060015b600d548111612d1e57600081815260056020526040902060010154336001600160a01b0390911603612d0c576000818152600560209081526040918290208251610120810184528154815260018201546001600160a01b0316928101929092526002808201549383019390935260038101546060830152600481015491929091608084019160ff90911690811115612bd757612bd7614368565b6002811115612be857612be8614368565b81526020016004820160019054906101000a900460ff166002811115612c1057612c10614368565b6002811115612c2157612c21614368565b8152600482015460ff62010000820481161515602084015263010000009091041615156040820152600582018054606090920191612c5e90614b61565b80601f0160208091040260200160405190810160405280929190818152602001828054612c8a90614b61565b8015612cd75780601f10612cac57610100808354040283529160200191612cd7565b820191906000526020600020905b815481529060010190602001808311612cba57829003601f168201915b505050505081525050838381518110612cf257612cf2614cfc565b60200260200101819052508180612d0890614bab565b9250505b80612d1681614bab565b915050612b3d565b50909392505050565b6000845111612d8a5760405162461bcd60e51b815260206004820152602960248201527f4f72646572206d75737420636f6e7461696e206174206c65617374206f6e6520604482015268666f6f64206974656d60b81b60648201526084016108f5565b8251845114612dd65760405162461bcd60e51b81526020600482015260186024820152774d69736d617463686564206172726179206c656e6774687360401b60448201526064016108f5565b600d805460009182612de783614bab565b919050555060005b8551811015612fa05760026000878381518110612e0e57612e0e614cfc565b6020026020010151815260200190815260200160002060000154600003612e6d5760405162461bcd60e51b8152602060048201526013602482015272119bdbd908191bd95cc81b9bdd08195e1a5cdd606a1b60448201526064016108f5565b6000858281518110612e8157612e81614cfc565b602002602001015160026000898581518110612e9f57612e9f614cfc565b6020026020010151815260200190815260200160002060050154612ec39190614cd2565b9050612ecf8184614df2565b600d546000908152600760205260408120805492955090612eef83614bab565b9190505550600060076000600d5481526020019081526020016000205490506040518060600160405280898581518110612f2b57612f2b614cfc565b60200260200101518152602001888581518110612f4a57612f4a614cfc565b602090810291909101810151825290810193909352600d54600090815260068452604080822093825292845282902081518155928101516001840155015160029091015580612f9881614bab565b915050612def565b506000831561300757336000908152600960205260409020546032811115612fc6575060325b6064612fd28285614cd2565b612fdc9190614e05565b33600090815260096020526040812080549294508392909190613000908490614ce9565b9091555050505b6040805161012081018252600d548152336020820152908101829052606081016130318385614ce9565b81526020016000815260200188600281111561304f5761304f614368565b81526000602080830182905260408084018390526060938401889052600d54835260058252918290208451815590840151600180830180546001600160a01b0319166001600160a01b039093169290921790915591840151600280830191909155928401516003820155608084015160048201805492949193909260ff19169184908111156130e0576130e0614368565b021790555060a082015160048201805461ff00191661010083600281111561310a5761310a614368565b021790555060c082015160048201805460e0850151151563010000000263ff0000001993151562010000029390931663ffff00001990911617919091179055610100820151600582019061315e9082614c13565b5050336000908152600960205260408120805460019350909190613183908490614df2565b9091555050600d5433907f01c13126da428fe166a0fe8d719664066ad5cf43b5a6ff3667cd061430f0003d836131b98187614ce9565b60008c6000808b426040516131d5989796959493929190614e27565b60405180910390a350505050505050565b60006040518060800160405280336001600160a01b03168152602001856001600160a01b0316815260200184848080601f0160208091040260200160405190810160405280939291908181526020018383808284376000920182905250938552505042602093840152508054600181018255908052825160049091027f290decd9548b62a8d60345a988386fc84ba6bc95484008f6362f93160ef3e563810180546001600160a01b039384166001600160a01b0319918216178255938501517f290decd9548b62a8d60345a988386fc84ba6bc95484008f6362f93160ef3e5648301805491909416941693909317909155604083015192935083927f290decd9548b62a8d60345a988386fc84ba6bc95484008f6362f93160ef3e565909101906133109082614c13565b50606082015181600301555050836001600160a01b0316336001600160a01b03167f820e6d37b56b06482f38c0c5918db7d094c4b90fb974528a28d834407906409985854260405161336493929190614e8b565b60405180910390a350505050565b600081815260026020526040812054606091036133c75760405162461bcd60e51b8152602060048201526013602482015272119bdbd908191bd95cc81b9bdd08195e1a5cdd606a1b60448201526064016108f5565b60008281526004602052604081205490816001600160401b038111156133ef576133ef613ee1565b60405190808252806020026020018201604052801561345b57816020015b6134486040518060a00160405280600081526020016000815260200160006001600160a01b0316815260200160608152602001600081525090565b81526020019060019003908161340d5790505b50905060005b8281101561359457600085815260036020526040812090613483836001614df2565b81526020808201929092526040908101600020815160a0810183528154815260018201549381019390935260028101546001600160a01b0316918301919091526003810180546060840191906134d890614b61565b80601f016020809104026020016040519081016040528092919081815260200182805461350490614b61565b80156135515780601f1061352657610100808354040283529160200191613551565b820191906000526020600020905b81548152906001019060200180831161353457829003601f168201915b5050505050815260200160048201548152505082828151811061357657613576614cfc565b6020026020010181905250808061358c90614bab565b915050613461565b509392505050565b600081815260076020526040812054606091816001600160401b038111156135c6576135c6613ee1565b60405190808252806020026020018201604052801561361b57816020015b61360860405180606001604052806000815260200160008152602001600081525090565b8152602001906001900390816135e45790505b50905060005b8281101561359457600085815260066020526040812090613643836001614df2565b8152602001908152602001600020604051806060016040529081600082015481526020016001820154815260200160028201548152505082828151811061368c5761368c614cfc565b602002602001018190525080806136a290614bab565b915050613621565b60606000805b6000548110156137db57846001600160a01b0316600082815481106136d7576136d7614cfc565b60009182526020909120600490910201546001600160a01b03161480156137355750836001600160a01b03166000828154811061371657613716614cfc565b60009182526020909120600160049092020101546001600160a01b0316145b806137b65750836001600160a01b03166000828154811061375857613758614cfc565b60009182526020909120600490910201546001600160a01b03161480156137b65750846001600160a01b03166000828154811061379757613797614cfc565b60009182526020909120600160049092020101546001600160a01b0316145b156137c957816137c581614bab565b9250505b806137d381614bab565b9150506136b0565b506000816001600160401b038111156137f6576137f6613ee1565b60405190808252806020026020018201604052801561386457816020015b613851604051806080016040528060006001600160a01b0316815260200160006001600160a01b0316815260200160608152602001600081525090565b8152602001906001900390816138145790505b5090506000805b600054811015613aa257866001600160a01b03166000828154811061389257613892614cfc565b60009182526020909120600490910201546001600160a01b03161480156138f05750856001600160a01b0316600082815481106138d1576138d1614cfc565b60009182526020909120600160049092020101546001600160a01b0316145b806139715750856001600160a01b03166000828154811061391357613913614cfc565b60009182526020909120600490910201546001600160a01b03161480156139715750866001600160a01b03166000828154811061395257613952614cfc565b60009182526020909120600160049092020101546001600160a01b0316145b15613a90576000818154811061398957613989614cfc565b600091825260209182902060408051608081018252600490930290910180546001600160a01b03908116845260018201541693830193909352600283018054929392918401916139d890614b61565b80601f0160208091040260200160405190810160405280929190818152602001828054613a0490614b61565b8015613a515780601f10613a2657610100808354040283529160200191613a51565b820191906000526020600020905b815481529060010190602001808311613a3457829003601f168201915b50505050508152602001600382015481525050838381518110613a7657613a76614cfc565b60200260200101819052508180613a8c90614bab565b9250505b80613a9a81614bab565b91505061386b565b5090925050505b92915050565b600c8054906000613abf83614bab565b9190505550604051806101400160405280600c5481526020018881526020018281526020018781526020018681526020018581526020018415158152602001831515815260200160008152602001600081525060026000600c548152602001908152602001600020600082015181600001556020820151816001019081613b469190614c13565b5060408201516002820190613b5b9082614c13565b5060608201516003820190613b709082614c13565b506080820151600482015560a0820151600582015560c082015160068201805460e085015161ffff1990911692151561ff001916929092176101009215158302179055820151600782015561012090910151600890910155600c546040517f40a23b8094a4c770411d485d60be42cdc9deeb5afd916d3ab527fbfd96e241fa90613c10908a9085908b908b908b908b908b90600090819033904290614ec4565b60405180910390a250505050505050565b81518151600091849184911015613c3d57600092505050613aa9565b60005b81518351613c4e9190614ce9565b8111613cf457600160005b8351811015613ccd57838181518110613c7457613c74614cfc565b01602001516001600160f81b03191685613c8e8386614df2565b81518110613c9e57613c9e614cfc565b01602001516001600160f81b03191614613cbb5760009150613ccd565b80613cc581614bab565b915050613c59565b508015613ce1576001945050505050613aa9565b5080613cec81614bab565b915050613c40565b50600095945050505050565b6040518061010001604052806000815260200160608152602001606081526020016060815260200160608152602001606081526020016060815260200160006001600160a01b031681525090565b60405180610140016040528060008152602001606081526020016060815260200160608152602001600081526020016000815260200160001515815260200160001515815260200160008152602001600081525090565b6040518061012001604052806000815260200160006001600160a01b03168152602001600081526020016000815260200160006002811115613de957613de9614368565b815260200160008152600060208201819052604082015260609081015290565b600060208284031215613e1b57600080fd5b5035919050565b6000815180845260005b81811015613e4857602081850181015186830182015201613e2c565b506000602082860101526020601f19601f83011685010191505092915050565b60006101408c8352806020840152613e828184018d613e22565b90508281036040840152613e96818c613e22565b90508281036060840152613eaa818b613e22565b6080840199909952505060a081019590955292151560c085015290151560e084015261010083015261012090910152949350505050565b634e487b7160e01b600052604160045260246000fd5b604051601f8201601f191681016001600160401b0381118282101715613f1f57613f1f613ee1565b604052919050565b600082601f830112613f3857600080fd5b81356001600160401b03811115613f5157613f51613ee1565b613f64601f8201601f1916602001613ef7565b818152846020838601011115613f7957600080fd5b816020850160208301376000918101602001919091529392505050565b600060208284031215613fa857600080fd5b81356001600160401b03811115613fbe57600080fd5b613fca84828501613f27565b949350505050565b80356001600160a01b0381168114613fe957600080fd5b919050565b60006020828403121561400057600080fd5b61400982613fd2565b9392505050565b6000806040838503121561402357600080fd5b50508035926020909101359150565b85815284602082015260018060a01b038416604082015260a06060820152600061405f60a0830185613e22565b90508260808301529695505050505050565b60006020808301818452808551808352604092508286019150828160051b87010184880160005b838110156140fd57888303603f19018552815180516001600160a01b039081168552888201511688850152868101516080888601819052906140dc82870182613e22565b60609384015196909301959095525094870194925090860190600101614098565b509098975050505050505050565b60006020808301818452808551808352604092508286019150828160051b87010184880160005b838110156140fd57603f1989840301855281516101008151855288820151818a87015261416182870182613e22565b91505087820151858203898701526141798282613e22565b915050606080830151868303828801526141938382613e22565b92505050608080830151868303828801526141ae8382613e22565b9250505060a080830151868303828801526141c98382613e22565b9250505060c080830151868303828801526141e48382613e22565b9250505060e0808301519250614204818701846001600160a01b03169052565b509588019593505090860190600101614132565b60006020808301818452808551808352604092508286019150828160051b87010184880160005b838110156140fd57888303603f1901855281518051845287015187840187905261426b87850182613e22565b958801959350509086019060010161423f565b60006020808301818452808551808352604092508286019150828160051b87010184880160005b838110156140fd57603f1989840301855281516101408151855288820151818a8701526142d482870182613e22565b91505087820151858203898701526142ec8282613e22565b915050606080830151868303828801526143068382613e22565b92505050608080830151818701525060a080830151818701525060c0808301516143338288018215159052565b505060e082810151151590860152610100808301519086015261012091820151919094015293860193908601906001016142a5565b634e487b7160e01b600052602160045260246000fd5b6003811061439c57634e487b7160e01b600052602160045260246000fd5b50565b6143a88161437e565b9052565b8981526001600160a01b0389166020820152604081018890526060810187905260006101206143da8861437e565b8760808401526143e98761437e565b8660a084015285151560c084015284151560e08401528061010084015261441281840185613e22565b9c9b505050505050505050505050565b6003811061439c57600080fd5b6000806040838503121561444257600080fd5b82359150602083013561445481614422565b809150509250929050565b60006101008a83528060208401526144798184018b613e22565b9050828103604084015261448d818a613e22565b905082810360608401526144a18189613e22565b905082810360808401526144b58188613e22565b905082810360a08401526144c98187613e22565b905082810360c08401526144dd8186613e22565b91505060018060a01b03831660e08301529998505050505050505050565b60008060008060008060c0878903121561451457600080fd5b86356001600160401b038082111561452b57600080fd5b6145378a838b01613f27565b9750602089013591508082111561454d57600080fd5b6145598a838b01613f27565b9650604089013591508082111561456f57600080fd5b61457b8a838b01613f27565b9550606089013591508082111561459157600080fd5b61459d8a838b01613f27565b945060808901359150808211156145b357600080fd5b6145bf8a838b01613f27565b935060a08901359150808211156145d557600080fd5b506145e289828a01613f27565b9150509295509295509295565b60006001600160401b0382111561460857614608613ee1565b5060051b60200190565b600082601f83011261462357600080fd5b81356020614638614633836145ef565b613ef7565b82815260059290921b8401810191818101908684111561465757600080fd5b8286015b84811015614672578035835291830191830161465b565b509695505050505050565b60008060006060848603121561469257600080fd5b833592506020808501356001600160401b03808211156146b157600080fd5b818701915087601f8301126146c557600080fd5b81356146d3614633826145ef565b81815260059190911b8301840190848101908a8311156146f257600080fd5b8585015b8381101561472a5780358581111561470e5760008081fd5b61471c8d89838a0101613f27565b8452509186019186016146f6565b5096505050604087013592508083111561474357600080fd5b505061475186828701614612565b9150509250925092565b828152604060208201526000613fca6040830184613e22565b60006020808301818452808551808352604092508286019150828160051b87010184880160005b838110156140fd57603f19898403018552815180518452878101516001600160a01b03168885015286810151878501526060808201519085015260808082015161012091906147ec8288018261439f565b505060a0808301516148008288018261439f565b505060c08281015115159086015260e0808301511515908601526101009182015191850181905261483381860183613e22565b96890196945050509086019060010161479b565b80358015158114613fe957600080fd5b600080600080600060a0868803121561486f57600080fd5b853561487a81614422565b945060208601356001600160401b038082111561489657600080fd5b6148a289838a01614612565b955060408801359150808211156148b857600080fd5b6148c489838a01614612565b94506148d260608901614847565b935060808801359150808211156148e857600080fd5b506148f588828901613f27565b9150509295509295909350565b60008060006040848603121561491757600080fd5b61492084613fd2565b925060208401356001600160401b038082111561493c57600080fd5b818601915086601f83011261495057600080fd5b81358181111561495f57600080fd5b87602082850101111561497157600080fd5b6020830194508093505050509250925092565b60006020808301818452808551808352604092508286019150828160051b87010184880160005b838110156140fd57888303603f190185528151805184528781015188850152868101516001600160a01b03168785015260608082015160a082870181905291906149f783880182613e22565b60809485015197909401969096525050948701949250908601906001016149ab565b602080825282518282018190526000919060409081850190868401855b82811015614a655781518051855286810151878601528501518585015260609093019290850190600101614a36565b5091979650505050505050565b60008060408385031215614a8557600080fd5b614a8e83613fd2565b9150614a9c60208401613fd2565b90509250929050565b600080600080600080600060e0888a031215614ac057600080fd5b87356001600160401b0380821115614ad757600080fd5b614ae38b838c01613f27565b985060208a0135915080821115614af957600080fd5b614b058b838c01613f27565b975060408a0135965060608a01359550614b2160808b01614847565b9450614b2f60a08b01614847565b935060c08a0135915080821115614b4557600080fd5b50614b528a828b01613f27565b91505092959891949750929550565b600181811c90821680614b7557607f821691505b602082108103610fd457634e487b7160e01b600052602260045260246000fd5b634e487b7160e01b600052601160045260246000fd5b600060018201614bbd57614bbd614b95565b5060010190565b601f821115614c0e57600081815260208120601f850160051c81016020861015614beb5750805b601f850160051c820191505b81811015614c0a57828155600101614bf7565b5050505b505050565b81516001600160401b03811115614c2c57614c2c613ee1565b614c4081614c3a8454614b61565b84614bc4565b602080601f831160018114614c755760008415614c5d5750858301515b600019600386901b1c1916600185901b178555614c0a565b600085815260208120601f198616915b82811015614ca457888601518255948401946001909101908401614c85565b5085821015614cc25787850151600019600388901b60f8161c191681555b5050505050600190811b01905550565b8082028115828204841417613aa957613aa9614b95565b81810381811115613aa957613aa9614b95565b634e487b7160e01b600052603260045260246000fd5b82815260408101614d228361437e565b8260208301529392505050565b60008154614d3c81614b61565b60018281168015614d545760018114614d6957614d98565b60ff1984168752821515830287019450614d98565b8560005260208060002060005b85811015614d8f5781548a820152908401908201614d76565b50505082870194505b5050505092915050565b6000614dae8287614d2f565b600160fd1b808252614dc36001830188614d2f565b9150808252614dd56001830187614d2f565b9081529050614de76001820185614d2f565b979650505050505050565b80820180821115613aa957613aa9614b95565b600082614e2257634e487b7160e01b600052601260045260246000fd5b500490565b60006101008a8352896020840152614e3e8961437e565b886040840152614e4d8861437e565b876060840152861515608084015285151560a08401528060c0840152614e7581840186613e22565b9150508260e08301529998505050505050505050565b604081528260408201528284606083013760006060848301015260006060601f19601f8601168301019050826020830152949350505050565b6000610160808352614ed88184018f613e22565b90508281036020840152614eec818e613e22565b90508281036040840152614f00818d613e22565b606084019b909b525050608081019790975294151560a087015292151560c086015260e08501919091526101008401526001600160a01b031661012083015261014090910152939250505056fea26469706673582212202ad0fd1a420015b3f7ade3f26b5369117e5d8ae579f76f5899d48822fec4e0ff64736f6c63430008130033",
  "immutableReferences": {},
  "source": "// SPDX-License-Identifier: GPL-3.0\npragma solidity ^0.8.19;\n\ncontract Bookfood {\n\n    constructor(address payable  _beneficiary){\n       beneficiary= _beneficiary;\n    }\n\n    enum OrderStatus { Pending, Preparing, Delivered }\n    enum Payment  { Ewallet,Cash, CreditCard }\n\n    struct FoodCategory {\n        uint id;\n        string name;\n    }\n    \n    struct Restaurant {\n        uint id;\n        string name;\n        string houseNumber;\n        string street;\n        string ward;\n        string district;\n        string city;\n        address owner;\n    }\n\n    struct Food {\n        uint id;\n        string name;\n        string img;\n        // uint restaurantId;\n        string detail;\n        uint categoryId;\n        uint price;\n        bool isVegan;\n        bool isGlutenFree;\n        uint totalStars;\n        uint totalRatings;\n    }\n    \n\n    struct Rating {\n        uint id;\n        uint foodId;\n        address user;\n        string review;\n        uint stars;\n    }\n\n    struct Order {\n        uint id;\n        // uint restaurantId;\n        address customer;\n        uint discount;\n        uint totalPrice;\n        OrderStatus status;\n        Payment payment;\n        bool isReviewed;\n        bool isPay;\n        string note;\n    }\n\n    struct DetailOrder {\n        uint foodId;\n        uint quantity;\n        uint price;\n    }\n\n    struct Message {\n        address sender;\n        address receiver;\n        string message;\n        uint timestamp;\n    }\n\n    Message[] private messages;\n\n    mapping(uint => Restaurant) public restaurants;\n    mapping(uint => Food) public foods;\n    mapping(uint => mapping(uint => Rating)) public ratings;\n    mapping(uint => uint) public ratingCountPerFood; \n    mapping(uint => Order) public orders;\n    mapping(uint => mapping(uint => DetailOrder)) public orderDetails; \n    mapping(uint => uint) public orderDetailCount;\n    mapping(uint => FoodCategory) public categories; \n    mapping(address => uint) public points;\n\n    address payable public beneficiary;\n    uint restaurantCount;\n    uint foodCount;\n    uint orderCount;\n    uint categoryCount;\n\n    event OrderStatusUpdated(uint orderId, address indexed customer, OrderStatus status);\n    event NewMessage(address indexed sender, address indexed receiver, string message, uint timestamp);\n    event FoodAdded(\n        uint indexed id,\n        string name,\n        string img,\n        string detail,\n        uint categoryId,\n        uint price,\n        bool isVegan,\n        bool isGlutenFree,\n        uint totalStars,\n        uint totalRatings,\n        address addedBy,\n        uint timestamp\n    );\n\n    event OrderPlacedEvent(\n        uint indexed id,\n        address indexed customer,\n        uint discount,\n        uint totalPrice,\n        OrderStatus status,\n        Payment payment,\n        bool isReviewed,\n        bool isPay,\n        string note,\n        uint timestamp\n    );\n\n    function processPayment(uint _orderId) public payable {\n        Order storage order = orders[_orderId];\n        require(order.customer == msg.sender, \"Only order owner can pay\");\n        \n        uint amountToPay = order.totalPrice;\n        require((msg.value *1000) >= amountToPay, \"Insufficient payment\");\n        \n        beneficiary.transfer(msg.value);\n        order.isPay=true;\n    }\n    \n    function addRestaurant(\n        string memory _name, \n        string memory _houseNumber, \n        string memory _street, \n        string memory _ward, \n        string memory _district, \n        string memory _city\n        // address _owner\n        \n    ) public {\n        //  require(_owner != address(0), \"Owner address cannot be zero\");\n        restaurantCount++;\n        restaurants[restaurantCount] = Restaurant(\n            restaurantCount, \n            _name, \n            _houseNumber, \n            _street, \n            _ward, \n            _district, \n            _city, \n            msg.sender\n        );\n    }\n\n    function addCategory(string memory _name) public {\n        categoryCount++;\n        categories[categoryCount] = FoodCategory(categoryCount, _name);\n    }\n    function addFood(\n        string memory _name, string memory _detail, /* uint _restaurantId,*/ uint _categoryId,\n        uint _price, bool _isVegan, bool _isGlutenFree, string memory img\n    ) public {\n        // require(restaurants[_restaurantId].id != 0, \"Restaurant does not exist\");\n        foodCount++;\n        foods[foodCount] = Food(\n            foodCount, _name, img, _detail, /*_restaurantId,*/ _categoryId,\n            _price, _isVegan, _isGlutenFree, 0, 0\n        );\n\n        emit FoodAdded(\n            foodCount,\n            _name,\n            img,\n            _detail,\n            _categoryId,\n            _price,\n            _isVegan,\n            _isGlutenFree,\n            0, \n            0,\n            msg.sender,\n            block.timestamp\n        );\n    }\n\nfunction addRating(uint _idOrder, string[] memory _reviews, uint[] memory _stars) public {\n    require(_reviews.length == _stars.length, \"Mismatched array lengths\");   \n    require(orders[_idOrder].customer == msg.sender, \"Only the buyer can add a rating\");\n    require(orders[_idOrder].isReviewed == false, \"Only the buyer can add a rating\");\n    \n\n    for (uint i = 0; i < orderDetailCount[_idOrder]; i++) {\n        uint foodId = orderDetails[_idOrder][i+1].foodId; // Ly foodId t orderDetails\n        require(foodId != 0, \"DetailOrder does not exist\"); // Kim tra xem orderDetail c tn ti khng\n        require(_stars[i] >= 1 && _stars[i] <= 5, \"Stars must be between 1 and 5\");\n        \n        ratingCountPerFood[foodId]++;\n        uint newRatingId = ratingCountPerFood[foodId];\n        ratings[foodId][newRatingId] = Rating(newRatingId, foodId, msg.sender, _reviews[i], _stars[i]);\n\n        // Cp nht tng im nh gi\n        foods[foodId].totalStars += _stars[i];\n        foods[foodId].totalRatings++;\n    }\n    orders[_idOrder].isReviewed = true;\n}\n\n    \n    function placeOrder(Payment _payment,uint[] memory _foodIds, uint[] memory _quantities, bool UsePoint,string memory note) \n    public {\n        require(_foodIds.length > 0, \"Order must contain at least one food item\");\n        require(_foodIds.length == _quantities.length, \"Mismatched array lengths\");\n\n        uint totalPrice = 0;\n        orderCount++;\n        // uint temp_resId=0;\n\n\n        for (uint i = 0; i < _foodIds.length; i++) {\n            require(foods[_foodIds[i]].id != 0, \"Food does not exist\");\n            // if(temp_resId==0){\n            //     temp_resId=foods[_foodIds[i]].restaurantId;\n            // }\n            // require(temp_resId==foods[_foodIds[i]].restaurantId, \"food not from the same restaurant\");\n            // Tnh tng gi tin\n            uint itemPrice = foods[_foodIds[i]].price * _quantities[i];\n            totalPrice += itemPrice;\n            orderDetailCount[orderCount]++;\n            uint itemIndex = orderDetailCount[orderCount];\n            orderDetails[orderCount][itemIndex] = DetailOrder(_foodIds[i], _quantities[i], itemPrice);\n\n\n\n        }\n\n        // p dng im thng nu c\n        uint discount = 0;\n        if (UsePoint) {\n            uint availablePoints = points[msg.sender] ;\n            if(availablePoints>50) availablePoints=50;\n            discount = totalPrice * availablePoints / 100; // Gim ti a 50%\n\n            points[msg.sender] -= availablePoints; \n        }\n        orders[orderCount] = Order(orderCount, /*temp_resId,*/ msg.sender,discount, totalPrice-discount, \n        OrderStatus.Pending,_payment,false,false,note);\n        points[msg.sender] += 1; \n\n        emit OrderPlacedEvent(\n            orderCount,\n            msg.sender,\n            discount,\n            totalPrice - discount,\n            OrderStatus.Pending,\n            _payment,\n            false,\n            false,\n            note,\n            block.timestamp\n        );\n    }\n\n    function updateOrderStatus(uint _orderId, OrderStatus _status) public {\n        require(orders[_orderId].id != 0, \"Order does not exist\");\n        require(uint(_status) > uint(orders[_orderId].status), \"Invalid status transition\");\n\n        // address restaurantOwner = restaurants[orders[_orderId].restaurantId].owner;\n        // require(msg.sender == restaurantOwner || msg.sender == beneficiary, \"Only restaurant owner or beneficiary can update status\");\n        \n        // Nu phng thc thanh ton l Ewallet th phi kim tra isPay\n        if (orders[_orderId].payment == Payment.Ewallet) {\n            require(orders[_orderId].isPay, \"Payment must be completed for Ewallet orders\");\n        }\n        \n        orders[_orderId].status = _status;\n        emit OrderStatusUpdated(_orderId,  orders[_orderId].customer, _status);\n    }\n\n    \n    function sendMessage(address receiver, string calldata messageText) external {\n        Message memory newMessage = Message(msg.sender, receiver, messageText, block.timestamp);\n        messages.push(newMessage);\n\n        emit NewMessage(msg.sender, receiver, messageText, block.timestamp);\n    }\n    \n    function getMyMessages(address userA, address userB) external view returns (Message[] memory) {\n        uint count = 0;\n\n        for (uint i = 0; i < messages.length; i++) {\n            if (\n                (messages[i].sender == userA && messages[i].receiver == userB) ||\n                (messages[i].sender == userB && messages[i].receiver == userA)\n            ) {\n                count++;\n            }\n        }\n\n        Message[] memory result = new Message[](count);\n        uint index = 0;\n\n        for (uint i = 0; i < messages.length; i++) {\n            if (\n                (messages[i].sender == userA && messages[i].receiver == userB) ||\n                (messages[i].sender == userB && messages[i].receiver == userA)\n            ) {\n                result[index] = messages[i];\n                index++;\n            }\n        }\n\n        return result;\n    }\n\n    function getAllMessages() external view returns (Message[] memory) {\n        return messages;\n    }\n    \n    function getAllRestaurants() public view returns (Restaurant[] memory) {\n        Restaurant[] memory allRestaurants = new Restaurant[](restaurantCount);\n        for (uint i = 1; i <= restaurantCount; i++) {\n            allRestaurants[i - 1] = restaurants[i];\n        }\n        return allRestaurants;\n    }\n\n    function getAllFoods() public view returns (Food[] memory) {\n        Food[] memory allFoods = new Food[](foodCount);\n        for (uint i = 1; i <= foodCount; i++) {\n            allFoods[i - 1] = foods[i];\n        }\n        return allFoods;\n    }\n\n    \n    function getAllCategory() public view returns (FoodCategory[] memory) {\n        FoodCategory[] memory allCate = new FoodCategory[](categoryCount);\n        for (uint i = 1; i <= categoryCount; i++) {\n            allCate[i - 1] = categories[i];\n        }\n        return allCate;\n    }\n\n\nfunction getOrdersBySender() public view returns (Order[] memory) {\n\n        uint count = 0;\n\n        // m s lng n hng ca sender\n        for (uint i = 1; i <= orderCount; i++) {\n            if (orders[i].customer == msg.sender) {\n                count++;\n            }\n        }\n\n        // To mng kt qu\n        Order[] memory senderOrders = new Order[](count);\n        uint index = 0;\n        for (uint i = 1; i <= orderCount; i++) {\n            if (orders[i].customer == msg.sender) {\n                senderOrders[index] = orders[i];\n                index++;\n            }\n        }\n\n        return senderOrders;\n    }\n\n\n    function getOrderDetails(uint _orderId) public view returns (DetailOrder[] memory) {\n        uint itemCount = orderDetailCount[_orderId];\n        DetailOrder[] memory items = new DetailOrder[](itemCount);\n\n        for (uint i = 0; i < itemCount; i++) {\n            items[i] = orderDetails[_orderId][i+1];\n        }\n\n        return items;\n    }\n\n    function getRatingsForFood(uint _foodId) public view returns (Rating[] memory) {\n        require(foods[_foodId].id != 0, \"Food does not exist\");\n\n        uint count = ratingCountPerFood[_foodId];\n        Rating[] memory foodRatings = new Rating[](count);\n        \n        for (uint i = 0; i < count; i++) {\n            foodRatings[i] = ratings[_foodId][i+1];\n        }\n        \n        return foodRatings;\n    }\n\n    function searchRestaurants( string memory _keyword) public view returns (Restaurant[] memory) {\n        Restaurant[] memory tempResults = new Restaurant[](restaurantCount);\n        uint count = 0;\n\n        for (uint i = 1; i <= restaurantCount; i++) {\n            string memory fullLocation = string(\n                abi.encodePacked(\n                    restaurants[i].street, \" \", \n                    restaurants[i].ward, \" \", \n                    restaurants[i].district, \" \", \n                    restaurants[i].city\n                )\n            );\n\n            if (\n                (_contains(restaurants[i].name, _keyword) ||\n                _contains(fullLocation, _keyword))\n            ) {\n                tempResults[count] = restaurants[i];\n                count++;\n            }\n        }\n\n        // To mt mng ng kch thc  tr v\n        Restaurant[] memory results = new Restaurant[](count);\n        for (uint j = 0; j < count; j++) {\n            results[j] = tempResults[j];\n        }\n        return results;\n    }\n\n    function searchFood( string memory _keyword) public view returns (Food[] memory) {\n        Food[] memory tempResults = new Food[](foodCount);\n        uint count = 0;\n\n        for (uint i = 1; i <= foodCount; i++) {\n            if (\n                (_contains(foods[i].name, _keyword) ||\n                _contains(categories[foods[i].categoryId].name, _keyword))\n            ) {\n                tempResults[count] = foods[i];\n                count++;\n            }\n        }\n\n        // To mt mng ng kch thc  tr v\n        Food[] memory results = new Food[](count);\n        for (uint j = 0; j < count; j++) {\n            results[j] = tempResults[j];\n        }\n        return results;\n    }\n\n    function _contains(string memory _str, string memory _keyword) internal pure returns (bool) {\n        bytes memory strBytes = bytes(_str);\n        bytes memory keywordBytes = bytes(_keyword);\n        \n        if (keywordBytes.length > strBytes.length) return false;\n\n        for (uint i = 0; i <= strBytes.length - keywordBytes.length; i++) {\n            bool found = true;\n            for (uint j = 0; j < keywordBytes.length; j++) {\n                if (strBytes[i + j] != keywordBytes[j]) {\n                    found = false;\n                    break;\n                }\n            }\n            if (found) return true;\n        }\n        return false;\n    }\n\n    // function getAllOrders() public view returns (Order[] memory) {\n    //     uint count = 0;\n\n    //     // m tng s order ca msg.sender\n    //     for (uint i = 1; i <= orderCount; i++) {\n    //         uint restId = orders[i].restaurantId;\n    //         if (restaurants[restId].owner == msg.sender) {\n    //             count++;\n    //         }\n    //     }\n\n    //     Order[] memory ownerOrders = new Order[](count);\n    //     uint index = 0;\n        \n    //     for (uint i = 1; i <= orderCount; i++) {\n    //         uint restId = orders[i].restaurantId;\n    //         if (restaurants[restId].owner == msg.sender) {\n    //             ownerOrders[index] = orders[i];\n    //             index++;\n    //         }\n    //     }\n\n    //     return ownerOrders;\n    // }\n    // function filterFoods(\n    //     uint _minPrice, \n    //     uint _maxPrice, \n    //     uint _categoryId, \n    //     uint _minRating, \n    //     bool _isVegan, \n    //     bool _isGlutenFree\n    // ) public view returns (Food[] memory) {\n    //     Food[] memory tempFoods = new Food[](foodCount);\n    //     uint count = 0;\n\n    //     for (uint i = 1; i <= foodCount; i++) {\n    //         Food storage food = foods[i];\n    //         uint avgRating = (food.totalRatings > 0) ? (food.totalStars / food.totalRatings) : 0;\n\n    //         // Kim tra iu kin lc\n    //         bool matchesCategory = (_categoryId == 0 || food.categoryId == _categoryId);\n    //         bool matchesPrice = (food.price >= _minPrice && food.price <= _maxPrice);\n    //         bool matchesRating = (avgRating >= _minRating);\n    //         bool matchesVegan = (!_isVegan || food.isVegan);\n    //         bool matchesGlutenFree = (!_isGlutenFree || food.isGlutenFree);\n\n    //         if (matchesCategory && matchesPrice && matchesRating && matchesVegan && matchesGlutenFree) {\n    //             tempFoods[count] = food;\n    //             count++;\n    //         }\n    //     }\n\n    //     // To mng kt qu c kch thc ng\n    //     Food[] memory filteredFoods = new Food[](count);\n    //     for (uint j = 0; j < count; j++) {\n    //         filteredFoods[j] = tempFoods[j];\n    //     }\n\n    //     return filteredFoods;\n    // }\n\n\n}",
  "sourcePath": "D:\\ReactJs\\bookfoodFEW3-master\\contracts\\Bookfood.sol",
  "compiler": {
    "name": "solc",
    "version": "0.8.19+commit.7dd6d404.Emscripten.clang"
  },
  "schemaVersion": "3.4.16",
  "updatedAt": "2025-04-21T08:45:17.806Z",
  "networkType": "ethereum",
  "devdoc": {
    "kind": "dev",
    "methods": {},
    "version": 1
  },
  "userdoc": {
    "kind": "user",
    "methods": {},
    "version": 1
  }
}