{
  "contractName": "Bookfood",
  "abi": [
    {
      "inputs": [
        {
          "internalType": "address payable",
          "name": "_beneficiary",
          "type": "address"
        }
      ],
      "stateMutability": "nonpayable",
      "type": "constructor"
    },
    {
      "anonymous": false,
      "inputs": [
        {
          "indexed": true,
          "internalType": "address",
          "name": "sender",
          "type": "address"
        },
        {
          "indexed": true,
          "internalType": "address",
          "name": "receiver",
          "type": "address"
        },
        {
          "indexed": false,
          "internalType": "string",
          "name": "message",
          "type": "string"
        },
        {
          "indexed": false,
          "internalType": "uint256",
          "name": "timestamp",
          "type": "uint256"
        }
      ],
      "name": "NewMessage",
      "type": "event"
    },
    {
      "anonymous": false,
      "inputs": [
        {
          "indexed": false,
          "internalType": "uint256",
          "name": "orderId",
          "type": "uint256"
        },
        {
          "indexed": true,
          "internalType": "address",
          "name": "customer",
          "type": "address"
        },
        {
          "indexed": false,
          "internalType": "enum Bookfood.OrderStatus",
          "name": "status",
          "type": "uint8"
        }
      ],
      "name": "OrderStatusUpdated",
      "type": "event"
    },
    {
      "inputs": [],
      "name": "beneficiary",
      "outputs": [
        {
          "internalType": "address payable",
          "name": "",
          "type": "address"
        }
      ],
      "stateMutability": "view",
      "type": "function",
      "constant": true
    },
    {
      "inputs": [
        {
          "internalType": "uint256",
          "name": "",
          "type": "uint256"
        }
      ],
      "name": "categories",
      "outputs": [
        {
          "internalType": "uint256",
          "name": "id",
          "type": "uint256"
        },
        {
          "internalType": "string",
          "name": "name",
          "type": "string"
        }
      ],
      "stateMutability": "view",
      "type": "function",
      "constant": true
    },
    {
      "inputs": [
        {
          "internalType": "uint256",
          "name": "",
          "type": "uint256"
        }
      ],
      "name": "foods",
      "outputs": [
        {
          "internalType": "uint256",
          "name": "id",
          "type": "uint256"
        },
        {
          "internalType": "string",
          "name": "name",
          "type": "string"
        },
        {
          "internalType": "string",
          "name": "img",
          "type": "string"
        },
        {
          "internalType": "uint256",
          "name": "restaurantId",
          "type": "uint256"
        },
        {
          "internalType": "uint256",
          "name": "categoryId",
          "type": "uint256"
        },
        {
          "internalType": "uint256",
          "name": "price",
          "type": "uint256"
        },
        {
          "internalType": "bool",
          "name": "isVegan",
          "type": "bool"
        },
        {
          "internalType": "bool",
          "name": "isGlutenFree",
          "type": "bool"
        },
        {
          "internalType": "uint256",
          "name": "totalStars",
          "type": "uint256"
        },
        {
          "internalType": "uint256",
          "name": "totalRatings",
          "type": "uint256"
        }
      ],
      "stateMutability": "view",
      "type": "function",
      "constant": true
    },
    {
      "inputs": [
        {
          "internalType": "uint256",
          "name": "",
          "type": "uint256"
        }
      ],
      "name": "orderDetailCount",
      "outputs": [
        {
          "internalType": "uint256",
          "name": "",
          "type": "uint256"
        }
      ],
      "stateMutability": "view",
      "type": "function",
      "constant": true
    },
    {
      "inputs": [
        {
          "internalType": "uint256",
          "name": "",
          "type": "uint256"
        },
        {
          "internalType": "uint256",
          "name": "",
          "type": "uint256"
        }
      ],
      "name": "orderDetails",
      "outputs": [
        {
          "internalType": "uint256",
          "name": "foodId",
          "type": "uint256"
        },
        {
          "internalType": "uint256",
          "name": "quantity",
          "type": "uint256"
        },
        {
          "internalType": "uint256",
          "name": "price",
          "type": "uint256"
        }
      ],
      "stateMutability": "view",
      "type": "function",
      "constant": true
    },
    {
      "inputs": [
        {
          "internalType": "uint256",
          "name": "",
          "type": "uint256"
        }
      ],
      "name": "orders",
      "outputs": [
        {
          "internalType": "uint256",
          "name": "id",
          "type": "uint256"
        },
        {
          "internalType": "uint256",
          "name": "restaurantId",
          "type": "uint256"
        },
        {
          "internalType": "address",
          "name": "customer",
          "type": "address"
        },
        {
          "internalType": "uint256",
          "name": "discount",
          "type": "uint256"
        },
        {
          "internalType": "uint256",
          "name": "totalPrice",
          "type": "uint256"
        },
        {
          "internalType": "enum Bookfood.OrderStatus",
          "name": "status",
          "type": "uint8"
        },
        {
          "internalType": "enum Bookfood.Payment",
          "name": "payment",
          "type": "uint8"
        },
        {
          "internalType": "bool",
          "name": "isReviewed",
          "type": "bool"
        },
        {
          "internalType": "bool",
          "name": "isPay",
          "type": "bool"
        },
        {
          "internalType": "string",
          "name": "note",
          "type": "string"
        }
      ],
      "stateMutability": "view",
      "type": "function",
      "constant": true
    },
    {
      "inputs": [
        {
          "internalType": "address",
          "name": "",
          "type": "address"
        }
      ],
      "name": "points",
      "outputs": [
        {
          "internalType": "uint256",
          "name": "",
          "type": "uint256"
        }
      ],
      "stateMutability": "view",
      "type": "function",
      "constant": true
    },
    {
      "inputs": [
        {
          "internalType": "uint256",
          "name": "",
          "type": "uint256"
        }
      ],
      "name": "ratingCountPerFood",
      "outputs": [
        {
          "internalType": "uint256",
          "name": "",
          "type": "uint256"
        }
      ],
      "stateMutability": "view",
      "type": "function",
      "constant": true
    },
    {
      "inputs": [
        {
          "internalType": "uint256",
          "name": "",
          "type": "uint256"
        },
        {
          "internalType": "uint256",
          "name": "",
          "type": "uint256"
        }
      ],
      "name": "ratings",
      "outputs": [
        {
          "internalType": "uint256",
          "name": "id",
          "type": "uint256"
        },
        {
          "internalType": "uint256",
          "name": "foodId",
          "type": "uint256"
        },
        {
          "internalType": "address",
          "name": "user",
          "type": "address"
        },
        {
          "internalType": "string",
          "name": "review",
          "type": "string"
        },
        {
          "internalType": "uint256",
          "name": "stars",
          "type": "uint256"
        }
      ],
      "stateMutability": "view",
      "type": "function",
      "constant": true
    },
    {
      "inputs": [
        {
          "internalType": "uint256",
          "name": "",
          "type": "uint256"
        }
      ],
      "name": "restaurants",
      "outputs": [
        {
          "internalType": "uint256",
          "name": "id",
          "type": "uint256"
        },
        {
          "internalType": "string",
          "name": "name",
          "type": "string"
        },
        {
          "internalType": "string",
          "name": "houseNumber",
          "type": "string"
        },
        {
          "internalType": "string",
          "name": "street",
          "type": "string"
        },
        {
          "internalType": "string",
          "name": "ward",
          "type": "string"
        },
        {
          "internalType": "string",
          "name": "district",
          "type": "string"
        },
        {
          "internalType": "string",
          "name": "city",
          "type": "string"
        },
        {
          "internalType": "address",
          "name": "owner",
          "type": "address"
        }
      ],
      "stateMutability": "view",
      "type": "function",
      "constant": true
    },
    {
      "inputs": [
        {
          "internalType": "uint256",
          "name": "_orderId",
          "type": "uint256"
        }
      ],
      "name": "processPayment",
      "outputs": [],
      "stateMutability": "payable",
      "type": "function",
      "payable": true
    },
    {
      "inputs": [
        {
          "internalType": "string",
          "name": "_name",
          "type": "string"
        },
        {
          "internalType": "string",
          "name": "_houseNumber",
          "type": "string"
        },
        {
          "internalType": "string",
          "name": "_street",
          "type": "string"
        },
        {
          "internalType": "string",
          "name": "_ward",
          "type": "string"
        },
        {
          "internalType": "string",
          "name": "_district",
          "type": "string"
        },
        {
          "internalType": "string",
          "name": "_city",
          "type": "string"
        }
      ],
      "name": "addRestaurant",
      "outputs": [],
      "stateMutability": "nonpayable",
      "type": "function"
    },
    {
      "inputs": [
        {
          "internalType": "string",
          "name": "_name",
          "type": "string"
        }
      ],
      "name": "addCategory",
      "outputs": [],
      "stateMutability": "nonpayable",
      "type": "function"
    },
    {
      "inputs": [
        {
          "internalType": "string",
          "name": "_name",
          "type": "string"
        },
        {
          "internalType": "uint256",
          "name": "_restaurantId",
          "type": "uint256"
        },
        {
          "internalType": "uint256",
          "name": "_categoryId",
          "type": "uint256"
        },
        {
          "internalType": "uint256",
          "name": "_price",
          "type": "uint256"
        },
        {
          "internalType": "bool",
          "name": "_isVegan",
          "type": "bool"
        },
        {
          "internalType": "bool",
          "name": "_isGlutenFree",
          "type": "bool"
        },
        {
          "internalType": "string",
          "name": "img",
          "type": "string"
        }
      ],
      "name": "addFood",
      "outputs": [],
      "stateMutability": "nonpayable",
      "type": "function"
    },
    {
      "inputs": [
        {
          "internalType": "uint256",
          "name": "_idOrder",
          "type": "uint256"
        },
        {
          "internalType": "string[]",
          "name": "_reviews",
          "type": "string[]"
        },
        {
          "internalType": "uint256[]",
          "name": "_stars",
          "type": "uint256[]"
        }
      ],
      "name": "addRating",
      "outputs": [],
      "stateMutability": "nonpayable",
      "type": "function"
    },
    {
      "inputs": [
        {
          "internalType": "enum Bookfood.Payment",
          "name": "_payment",
          "type": "uint8"
        },
        {
          "internalType": "uint256[]",
          "name": "_foodIds",
          "type": "uint256[]"
        },
        {
          "internalType": "uint256[]",
          "name": "_quantities",
          "type": "uint256[]"
        },
        {
          "internalType": "bool",
          "name": "UsePoint",
          "type": "bool"
        },
        {
          "internalType": "string",
          "name": "note",
          "type": "string"
        }
      ],
      "name": "placeOrder",
      "outputs": [],
      "stateMutability": "nonpayable",
      "type": "function"
    },
    {
      "inputs": [
        {
          "internalType": "uint256",
          "name": "_orderId",
          "type": "uint256"
        },
        {
          "internalType": "enum Bookfood.OrderStatus",
          "name": "_status",
          "type": "uint8"
        }
      ],
      "name": "updateOrderStatus",
      "outputs": [],
      "stateMutability": "nonpayable",
      "type": "function"
    },
    {
      "inputs": [
        {
          "internalType": "address",
          "name": "receiver",
          "type": "address"
        },
        {
          "internalType": "string",
          "name": "messageText",
          "type": "string"
        }
      ],
      "name": "sendMessage",
      "outputs": [],
      "stateMutability": "nonpayable",
      "type": "function"
    },
    {
      "inputs": [
        {
          "internalType": "address",
          "name": "userA",
          "type": "address"
        },
        {
          "internalType": "address",
          "name": "userB",
          "type": "address"
        }
      ],
      "name": "getMyMessages",
      "outputs": [
        {
          "components": [
            {
              "internalType": "address",
              "name": "sender",
              "type": "address"
            },
            {
              "internalType": "address",
              "name": "receiver",
              "type": "address"
            },
            {
              "internalType": "string",
              "name": "message",
              "type": "string"
            },
            {
              "internalType": "uint256",
              "name": "timestamp",
              "type": "uint256"
            }
          ],
          "internalType": "struct Bookfood.Message[]",
          "name": "",
          "type": "tuple[]"
        }
      ],
      "stateMutability": "view",
      "type": "function",
      "constant": true
    },
    {
      "inputs": [],
      "name": "getAllMessages",
      "outputs": [
        {
          "components": [
            {
              "internalType": "address",
              "name": "sender",
              "type": "address"
            },
            {
              "internalType": "address",
              "name": "receiver",
              "type": "address"
            },
            {
              "internalType": "string",
              "name": "message",
              "type": "string"
            },
            {
              "internalType": "uint256",
              "name": "timestamp",
              "type": "uint256"
            }
          ],
          "internalType": "struct Bookfood.Message[]",
          "name": "",
          "type": "tuple[]"
        }
      ],
      "stateMutability": "view",
      "type": "function",
      "constant": true
    },
    {
      "inputs": [],
      "name": "getAllRestaurants",
      "outputs": [
        {
          "components": [
            {
              "internalType": "uint256",
              "name": "id",
              "type": "uint256"
            },
            {
              "internalType": "string",
              "name": "name",
              "type": "string"
            },
            {
              "internalType": "string",
              "name": "houseNumber",
              "type": "string"
            },
            {
              "internalType": "string",
              "name": "street",
              "type": "string"
            },
            {
              "internalType": "string",
              "name": "ward",
              "type": "string"
            },
            {
              "internalType": "string",
              "name": "district",
              "type": "string"
            },
            {
              "internalType": "string",
              "name": "city",
              "type": "string"
            },
            {
              "internalType": "address",
              "name": "owner",
              "type": "address"
            }
          ],
          "internalType": "struct Bookfood.Restaurant[]",
          "name": "",
          "type": "tuple[]"
        }
      ],
      "stateMutability": "view",
      "type": "function",
      "constant": true
    },
    {
      "inputs": [],
      "name": "getAllFoods",
      "outputs": [
        {
          "components": [
            {
              "internalType": "uint256",
              "name": "id",
              "type": "uint256"
            },
            {
              "internalType": "string",
              "name": "name",
              "type": "string"
            },
            {
              "internalType": "string",
              "name": "img",
              "type": "string"
            },
            {
              "internalType": "uint256",
              "name": "restaurantId",
              "type": "uint256"
            },
            {
              "internalType": "uint256",
              "name": "categoryId",
              "type": "uint256"
            },
            {
              "internalType": "uint256",
              "name": "price",
              "type": "uint256"
            },
            {
              "internalType": "bool",
              "name": "isVegan",
              "type": "bool"
            },
            {
              "internalType": "bool",
              "name": "isGlutenFree",
              "type": "bool"
            },
            {
              "internalType": "uint256",
              "name": "totalStars",
              "type": "uint256"
            },
            {
              "internalType": "uint256",
              "name": "totalRatings",
              "type": "uint256"
            }
          ],
          "internalType": "struct Bookfood.Food[]",
          "name": "",
          "type": "tuple[]"
        }
      ],
      "stateMutability": "view",
      "type": "function",
      "constant": true
    },
    {
      "inputs": [],
      "name": "getAllCategory",
      "outputs": [
        {
          "components": [
            {
              "internalType": "uint256",
              "name": "id",
              "type": "uint256"
            },
            {
              "internalType": "string",
              "name": "name",
              "type": "string"
            }
          ],
          "internalType": "struct Bookfood.FoodCategory[]",
          "name": "",
          "type": "tuple[]"
        }
      ],
      "stateMutability": "view",
      "type": "function",
      "constant": true
    },
    {
      "inputs": [],
      "name": "getOrdersBySender",
      "outputs": [
        {
          "components": [
            {
              "internalType": "uint256",
              "name": "id",
              "type": "uint256"
            },
            {
              "internalType": "uint256",
              "name": "restaurantId",
              "type": "uint256"
            },
            {
              "internalType": "address",
              "name": "customer",
              "type": "address"
            },
            {
              "internalType": "uint256",
              "name": "discount",
              "type": "uint256"
            },
            {
              "internalType": "uint256",
              "name": "totalPrice",
              "type": "uint256"
            },
            {
              "internalType": "enum Bookfood.OrderStatus",
              "name": "status",
              "type": "uint8"
            },
            {
              "internalType": "enum Bookfood.Payment",
              "name": "payment",
              "type": "uint8"
            },
            {
              "internalType": "bool",
              "name": "isReviewed",
              "type": "bool"
            },
            {
              "internalType": "bool",
              "name": "isPay",
              "type": "bool"
            },
            {
              "internalType": "string",
              "name": "note",
              "type": "string"
            }
          ],
          "internalType": "struct Bookfood.Order[]",
          "name": "",
          "type": "tuple[]"
        }
      ],
      "stateMutability": "view",
      "type": "function",
      "constant": true
    },
    {
      "inputs": [
        {
          "internalType": "uint256",
          "name": "_orderId",
          "type": "uint256"
        }
      ],
      "name": "getOrderDetails",
      "outputs": [
        {
          "components": [
            {
              "internalType": "uint256",
              "name": "foodId",
              "type": "uint256"
            },
            {
              "internalType": "uint256",
              "name": "quantity",
              "type": "uint256"
            },
            {
              "internalType": "uint256",
              "name": "price",
              "type": "uint256"
            }
          ],
          "internalType": "struct Bookfood.DetailOrder[]",
          "name": "",
          "type": "tuple[]"
        }
      ],
      "stateMutability": "view",
      "type": "function",
      "constant": true
    },
    {
      "inputs": [
        {
          "internalType": "uint256",
          "name": "_foodId",
          "type": "uint256"
        }
      ],
      "name": "getRatingsForFood",
      "outputs": [
        {
          "components": [
            {
              "internalType": "uint256",
              "name": "id",
              "type": "uint256"
            },
            {
              "internalType": "uint256",
              "name": "foodId",
              "type": "uint256"
            },
            {
              "internalType": "address",
              "name": "user",
              "type": "address"
            },
            {
              "internalType": "string",
              "name": "review",
              "type": "string"
            },
            {
              "internalType": "uint256",
              "name": "stars",
              "type": "uint256"
            }
          ],
          "internalType": "struct Bookfood.Rating[]",
          "name": "",
          "type": "tuple[]"
        }
      ],
      "stateMutability": "view",
      "type": "function",
      "constant": true
    },
    {
      "inputs": [
        {
          "internalType": "string",
          "name": "_keyword",
          "type": "string"
        }
      ],
      "name": "searchRestaurants",
      "outputs": [
        {
          "components": [
            {
              "internalType": "uint256",
              "name": "id",
              "type": "uint256"
            },
            {
              "internalType": "string",
              "name": "name",
              "type": "string"
            },
            {
              "internalType": "string",
              "name": "houseNumber",
              "type": "string"
            },
            {
              "internalType": "string",
              "name": "street",
              "type": "string"
            },
            {
              "internalType": "string",
              "name": "ward",
              "type": "string"
            },
            {
              "internalType": "string",
              "name": "district",
              "type": "string"
            },
            {
              "internalType": "string",
              "name": "city",
              "type": "string"
            },
            {
              "internalType": "address",
              "name": "owner",
              "type": "address"
            }
          ],
          "internalType": "struct Bookfood.Restaurant[]",
          "name": "",
          "type": "tuple[]"
        }
      ],
      "stateMutability": "view",
      "type": "function",
      "constant": true
    },
    {
      "inputs": [
        {
          "internalType": "string",
          "name": "_keyword",
          "type": "string"
        }
      ],
      "name": "searchFood",
      "outputs": [
        {
          "components": [
            {
              "internalType": "uint256",
              "name": "id",
              "type": "uint256"
            },
            {
              "internalType": "string",
              "name": "name",
              "type": "string"
            },
            {
              "internalType": "string",
              "name": "img",
              "type": "string"
            },
            {
              "internalType": "uint256",
              "name": "restaurantId",
              "type": "uint256"
            },
            {
              "internalType": "uint256",
              "name": "categoryId",
              "type": "uint256"
            },
            {
              "internalType": "uint256",
              "name": "price",
              "type": "uint256"
            },
            {
              "internalType": "bool",
              "name": "isVegan",
              "type": "bool"
            },
            {
              "internalType": "bool",
              "name": "isGlutenFree",
              "type": "bool"
            },
            {
              "internalType": "uint256",
              "name": "totalStars",
              "type": "uint256"
            },
            {
              "internalType": "uint256",
              "name": "totalRatings",
              "type": "uint256"
            }
          ],
          "internalType": "struct Bookfood.Food[]",
          "name": "",
          "type": "tuple[]"
        }
      ],
      "stateMutability": "view",
      "type": "function",
      "constant": true
    },
    {
      "inputs": [],
      "name": "getAllOrders",
      "outputs": [
        {
          "components": [
            {
              "internalType": "uint256",
              "name": "id",
              "type": "uint256"
            },
            {
              "internalType": "uint256",
              "name": "restaurantId",
              "type": "uint256"
            },
            {
              "internalType": "address",
              "name": "customer",
              "type": "address"
            },
            {
              "internalType": "uint256",
              "name": "discount",
              "type": "uint256"
            },
            {
              "internalType": "uint256",
              "name": "totalPrice",
              "type": "uint256"
            },
            {
              "internalType": "enum Bookfood.OrderStatus",
              "name": "status",
              "type": "uint8"
            },
            {
              "internalType": "enum Bookfood.Payment",
              "name": "payment",
              "type": "uint8"
            },
            {
              "internalType": "bool",
              "name": "isReviewed",
              "type": "bool"
            },
            {
              "internalType": "bool",
              "name": "isPay",
              "type": "bool"
            },
            {
              "internalType": "string",
              "name": "note",
              "type": "string"
            }
          ],
          "internalType": "struct Bookfood.Order[]",
          "name": "",
          "type": "tuple[]"
        }
      ],
      "stateMutability": "view",
      "type": "function",
      "constant": true
    }
  ],
  "bytecode": "0x60806040523480156200001157600080fd5b50604051620051983803806200519883398101604081905262000034916200005a565b600a80546001600160a01b0319166001600160a01b03929092169190911790556200008c565b6000602082840312156200006d57600080fd5b81516001600160a01b03811681146200008557600080fd5b9392505050565b6150fc806200009c6000396000f3fe6080604052600436106101c25760003560e01c8063aab3196d116100f7578063c6cdbe5e11610095578063e7253aa911610064578063e7253aa914610590578063e9d8ba47146105bd578063ec7dd7bb1461061f578063feb8d5541461064c57600080fd5b8063c6cdbe5e1461050d578063ce31a6841461053b578063d21d6f1514610550578063de6f24bb1461057057600080fd5b8063af73e89e116100d1578063af73e89e14610498578063b90e6e58146104b8578063b9b5aae6146104d8578063c1fa671e146104ed57600080fd5b8063aab3196d14610424578063ad5461d814610444578063ad71acbd1461047857600080fd5b806353f5e38011610164578063877344001161013e578063877344001461037d5780638f2c28051461039f578063a7e39520146103c1578063a85c38ef146103ee57600080fd5b806353f5e3801461030c5780635ac88c1c1461032e5780637bea0d1c1461035b57600080fd5b8063358b8166116101a0578063358b81661461026357806338af3eed146102905780633a2f8485146102c8578063482ef360146102db57600080fd5b806314d3f10e146101c75780632e0dcbf714610206578063302355bd14610228575b600080fd5b3480156101d357600080fd5b506101e76101e236600461409e565b61066c565b6040516101fd9a999897969594939291906140fd565b60405180910390f35b34801561021257600080fd5b5061022661022136600461421d565b6107d2565b005b34801561023457600080fd5b5061025561024336600461409e565b60076020526000908152604090205481565b6040519081526020016101fd565b34801561026f57600080fd5b5061025561027e366004614275565b60096020526000908152604090205481565b34801561029c57600080fd5b50600a546102b0906001600160a01b031681565b6040516001600160a01b0390911681526020016101fd565b6102266102d636600461409e565b610829565b3480156102e757600080fd5b506102fb6102f6366004614297565b610941565b6040516101fd9594939291906142b9565b34801561031857600080fd5b50610321610a0d565b6040516101fd91906142f8565b34801561033a57600080fd5b5061025561034936600461409e565b60046020526000908152604090205481565b34801561036757600080fd5b50610370610b2b565b6040516101fd91906143d6565b34801561038957600080fd5b50610392610ded565b6040516101fd91906144b4565b3480156103ab57600080fd5b506103b4611236565b6040516101fd91906145c1565b3480156103cd57600080fd5b506103e16103dc36600461421d565b61139f565b6040516101fd9190614627565b3480156103fa57600080fd5b5061040e61040936600461409e565b61177c565b6040516101fd9a999897969594939291906146f7565b34801561043057600080fd5b5061022661043f366004614783565b611871565b34801561045057600080fd5b5061046461045f36600461409e565b611b39565b6040516101fd9897969594939291906147b3565b34801561048457600080fd5b5061039261049336600461421d565b611eb2565b3480156104a457600080fd5b506102266104b336600461484f565b6124aa565b3480156104c457600080fd5b506102266104d3366004614953565b6125c1565b3480156104e457600080fd5b506103e1612735565b3480156104f957600080fd5b50610226610508366004614a82565b612974565b34801561051957600080fd5b5061052d61052836600461409e565b612d62565b6040516101fd929190614b60565b34801561054757600080fd5b50610370612e07565b34801561055c57600080fd5b5061022661056b366004614b79565b61309c565b34801561057c57600080fd5b5061022661058b366004614c24565b6135e6565b34801561059c57600080fd5b506105b06105ab36600461409e565b613772565b6040516101fd9190614ca6565b3480156105c957600080fd5b506106046105d8366004614297565b600660209081526000928352604080842090915290825290208054600182015460029092015490919083565b604080519384526020840192909252908201526060016101fd565b34801561062b57600080fd5b5061063f61063a36600461409e565b61399c565b6040516101fd9190614d3b565b34801561065857600080fd5b50610321610667366004614d94565b613aaa565b6002602052600090815260409020805460018201805491929161068e90614dc7565b80601f01602080910402602001604051908101604052809291908181526020018280546106ba90614dc7565b80156107075780601f106106dc57610100808354040283529160200191610707565b820191906000526020600020905b8154815290600101906020018083116106ea57829003601f168201915b50505050509080600201805461071c90614dc7565b80601f016020809104026020016040519081016040528092919081815260200182805461074890614dc7565b80156107955780601f1061076a57610100808354040283529160200191610795565b820191906000526020600020905b81548152906001019060200180831161077857829003601f168201915b505050600384015460048501546005860154600687015460078801546008909801549697939692955090935060ff8082169361010090920416918a565b600e80549060006107e283614e11565b9091555050604080518082018252600e5480825260208083018581526000928352600890915292902081518155915190919060018201906108239082614e79565b50505050565b600081815260056020526040902060028101546001600160a01b031633146108985760405162461bcd60e51b815260206004820152601860248201527f4f6e6c79206f72646572206f776e65722063616e20706179000000000000000060448201526064015b60405180910390fd5b6004810154806108aa346103e8614f38565b10156108ef5760405162461bcd60e51b8152602060048201526014602482015273125b9cdd59999a58da595b9d081c185e5b595b9d60621b604482015260640161088f565b600a546040516001600160a01b03909116903480156108fc02916000818181858888f19350505050158015610928573d6000803e3d6000fd5b5050600501805463ff0000001916630100000017905550565b600360208181526000938452604080852090915291835291208054600182015460028301549383018054929491936001600160a01b039092169261098490614dc7565b80601f01602080910402602001604051908101604052809291908181526020018280546109b090614dc7565b80156109fd5780601f106109d2576101008083540402835291602001916109fd565b820191906000526020600020905b8154815290600101906020018083116109e057829003601f168201915b5050505050908060040154905085565b60606000805480602002602001604051908101604052809291908181526020016000905b82821015610b22576000848152602090819020604080516080810182526004860290920180546001600160a01b0390811684526001820154169383019390935260028301805492939291840191610a8790614dc7565b80601f0160208091040260200160405190810160405280929190818152602001828054610ab390614dc7565b8015610b005780601f10610ad557610100808354040283529160200191610b00565b820191906000526020600020905b815481529060010190602001808311610ae357829003601f168201915b5050505050815260200160038201548152505081526020019060010190610a31565b50505050905090565b6060600060015b600d548111610b90576000818152600560209081526040808320600190810154808552925290912060070154336001600160a01b0390911603610b7d5782610b7981614e11565b9350505b5080610b8881614e11565b915050610b32565b506000816001600160401b03811115610bab57610bab614168565b604051908082528060200260200182016040528015610be457816020015b610bd1613f8e565b815260200190600190039081610bc95790505b509050600060015b600d548111610de4576000818152600560209081526040808320600190810154808552925290912060070154336001600160a01b0390911603610dd157600082815260056020818152604092839020835161014081018552815481526001820154928101929092526002808201546001600160a01b031694830194909452600381015460608301526004810154608083015291820154909260a084019160ff1690811115610c9c57610c9c614392565b6002811115610cad57610cad614392565b81526020016005820160019054906101000a900460ff166002811115610cd557610cd5614392565b6002811115610ce657610ce6614392565b8152600582015460ff62010000820481161515602084015263010000009091041615156040820152600682018054606090920191610d2390614dc7565b80601f0160208091040260200160405190810160405280929190818152602001828054610d4f90614dc7565b8015610d9c5780601f10610d7157610100808354040283529160200191610d9c565b820191906000526020600020905b815481529060010190602001808311610d7f57829003601f168201915b505050505081525050848481518110610db757610db7614f4f565b60200260200101819052508280610dcd90614e11565b9350505b5080610ddc81614e11565b915050610bec565b50909392505050565b60606000600b546001600160401b03811115610e0b57610e0b614168565b604051908082528060200260200182016040528015610e4457816020015b610e31613ff9565b815260200190600190039081610e295790505b50905060015b600b548111611230576000818152600160208181526040928390208351610100810190945280548452918201805491840191610e8590614dc7565b80601f0160208091040260200160405190810160405280929190818152602001828054610eb190614dc7565b8015610efe5780601f10610ed357610100808354040283529160200191610efe565b820191906000526020600020905b815481529060010190602001808311610ee157829003601f168201915b50505050508152602001600282018054610f1790614dc7565b80601f0160208091040260200160405190810160405280929190818152602001828054610f4390614dc7565b8015610f905780601f10610f6557610100808354040283529160200191610f90565b820191906000526020600020905b815481529060010190602001808311610f7357829003601f168201915b50505050508152602001600382018054610fa990614dc7565b80601f0160208091040260200160405190810160405280929190818152602001828054610fd590614dc7565b80156110225780601f10610ff757610100808354040283529160200191611022565b820191906000526020600020905b81548152906001019060200180831161100557829003601f168201915b5050505050815260200160048201805461103b90614dc7565b80601f016020809104026020016040519081016040528092919081815260200182805461106790614dc7565b80156110b45780601f10611089576101008083540402835291602001916110b4565b820191906000526020600020905b81548152906001019060200180831161109757829003601f168201915b505050505081526020016005820180546110cd90614dc7565b80601f01602080910402602001604051908101604052809291908181526020018280546110f990614dc7565b80156111465780601f1061111b57610100808354040283529160200191611146565b820191906000526020600020905b81548152906001019060200180831161112957829003601f168201915b5050505050815260200160068201805461115f90614dc7565b80601f016020809104026020016040519081016040528092919081815260200182805461118b90614dc7565b80156111d85780601f106111ad576101008083540402835291602001916111d8565b820191906000526020600020905b8154815290600101906020018083116111bb57829003601f168201915b5050509183525050600791909101546001600160a01b031660209091015282611202600184614f65565b8151811061121257611212614f4f565b6020026020010181905250808061122890614e11565b915050610e4a565b50919050565b60606000600e546001600160401b0381111561125457611254614168565b60405190808252806020026020018201604052801561129a57816020015b6040805180820190915260008152606060208201528152602001906001900390816112725790505b50905060015b600e5481116112305760086000828152602001908152602001600020604051806040016040529081600082015481526020016001820180546112e190614dc7565b80601f016020809104026020016040519081016040528092919081815260200182805461130d90614dc7565b801561135a5780601f1061132f5761010080835404028352916020019161135a565b820191906000526020600020905b81548152906001019060200180831161133d57829003601f168201915b505050505081525050826001836113719190614f65565b8151811061138157611381614f4f565b6020026020010181905250808061139790614e11565b9150506112a0565b60606000600c546001600160401b038111156113bd576113bd614168565b6040519080825280602002602001820160405280156113f657816020015b6113e3614047565b8152602001906001900390816113db5790505b509050600060015b600c5481116116c757600081815260026020526040902060010180546114ac919061142890614dc7565b80601f016020809104026020016040519081016040528092919081815260200182805461145490614dc7565b80156114a15780601f10611476576101008083540402835291602001916114a1565b820191906000526020600020905b81548152906001019060200180831161148457829003601f168201915b505050505086613eaf565b806114e3575060008181526002602090815260408083206004015483526008909152902060010180546114e3919061142890614dc7565b156116b55760026000828152602001908152602001600020604051806101400160405290816000820154815260200160018201805461152190614dc7565b80601f016020809104026020016040519081016040528092919081815260200182805461154d90614dc7565b801561159a5780601f1061156f5761010080835404028352916020019161159a565b820191906000526020600020905b81548152906001019060200180831161157d57829003601f168201915b505050505081526020016002820180546115b390614dc7565b80601f01602080910402602001604051908101604052809291908181526020018280546115df90614dc7565b801561162c5780601f106116015761010080835404028352916020019161162c565b820191906000526020600020905b81548152906001019060200180831161160f57829003601f168201915b5050509183525050600382015460208201526004820154604082015260058201546060820152600682015460ff8082161515608084015261010090910416151560a0820152600782015460c082015260089091015460e090910152835184908490811061169b5761169b614f4f565b602002602001018190525081806116b190614e11565b9250505b806116bf81614e11565b9150506113fe565b506000816001600160401b038111156116e2576116e2614168565b60405190808252806020026020018201604052801561171b57816020015b611708614047565b8152602001906001900390816117005790505b50905060005b828110156117735783818151811061173b5761173b614f4f565b602002602001015182828151811061175557611755614f4f565b6020026020010181905250808061176b90614e11565b915050611721565b50949350505050565b60056020819052600091825260409091208054600182015460028301546003840154600485015495850154600686018054959794966001600160a01b039094169592949360ff80841694610100850482169462010000810483169463010000009091049092169291906117ee90614dc7565b80601f016020809104026020016040519081016040528092919081815260200182805461181a90614dc7565b80156118675780601f1061183c57610100808354040283529160200191611867565b820191906000526020600020905b81548152906001019060200180831161184a57829003601f168201915b505050505090508a565b60008281526005602052604081205490036118c55760405162461bcd60e51b815260206004820152601460248201527313dc99195c88191bd95cc81b9bdd08195e1a5cdd60621b604482015260640161088f565b6000828152600560208190526040909120015460ff1660028111156118ec576118ec614392565b8160028111156118fe576118fe614392565b1161194b5760405162461bcd60e51b815260206004820152601960248201527f496e76616c696420737461747573207472616e736974696f6e00000000000000604482015260640161088f565b600082815260056020908152604080832060019081015484529091529020600701546001600160a01b03163381148061198e5750600a546001600160a01b031633145b6119f95760405162461bcd60e51b815260206004820152603660248201527f4f6e6c792072657374617572616e74206f776e6572206f722062656e65666963604482015275696172792063616e207570646174652073746174757360501b606482015260840161088f565b600083815260056020819052604082200154610100900460ff166002811115611a2457611a24614392565b03611aa757600083815260056020819052604090912001546301000000900460ff16611aa75760405162461bcd60e51b815260206004820152602c60248201527f5061796d656e74206d75737420626520636f6d706c6574656420666f7220457760448201526b616c6c6574206f726465727360a01b606482015260840161088f565b600083815260056020819052604090912001805483919060ff19166001836002811115611ad657611ad6614392565b0217905550600083815260056020526040908190206002015490516001600160a01b03909116907f72dd0d4e3f429b5df521039075b9cc56fe25cd440df6186114f6aa93505a39fa90611b2c9086908690614f78565b60405180910390a2505050565b600160208190526000918252604090912080549181018054611b5a90614dc7565b80601f0160208091040260200160405190810160405280929190818152602001828054611b8690614dc7565b8015611bd35780601f10611ba857610100808354040283529160200191611bd3565b820191906000526020600020905b815481529060010190602001808311611bb657829003601f168201915b505050505090806002018054611be890614dc7565b80601f0160208091040260200160405190810160405280929190818152602001828054611c1490614dc7565b8015611c615780601f10611c3657610100808354040283529160200191611c61565b820191906000526020600020905b815481529060010190602001808311611c4457829003601f168201915b505050505090806003018054611c7690614dc7565b80601f0160208091040260200160405190810160405280929190818152602001828054611ca290614dc7565b8015611cef5780601f10611cc457610100808354040283529160200191611cef565b820191906000526020600020905b815481529060010190602001808311611cd257829003601f168201915b505050505090806004018054611d0490614dc7565b80601f0160208091040260200160405190810160405280929190818152602001828054611d3090614dc7565b8015611d7d5780601f10611d5257610100808354040283529160200191611d7d565b820191906000526020600020905b815481529060010190602001808311611d6057829003601f168201915b505050505090806005018054611d9290614dc7565b80601f0160208091040260200160405190810160405280929190818152602001828054611dbe90614dc7565b8015611e0b5780601f10611de057610100808354040283529160200191611e0b565b820191906000526020600020905b815481529060010190602001808311611dee57829003601f168201915b505050505090806006018054611e2090614dc7565b80601f0160208091040260200160405190810160405280929190818152602001828054611e4c90614dc7565b8015611e995780601f10611e6e57610100808354040283529160200191611e99565b820191906000526020600020905b815481529060010190602001808311611e7c57829003601f168201915b505050600790930154919250506001600160a01b031688565b60606000600b546001600160401b03811115611ed057611ed0614168565b604051908082528060200260200182016040528015611f0957816020015b611ef6613ff9565b815260200190600190039081611eee5790505b509050600060015b600b5481116123fe5760008181526001602090815260408083209051611f4c9260038301926004810192600582019260069092019101615008565b6040516020818303038152906040529050612005600160008481526020019081526020016000206001018054611f8190614dc7565b80601f0160208091040260200160405190810160405280929190818152602001828054611fad90614dc7565b8015611ffa5780601f10611fcf57610100808354040283529160200191611ffa565b820191906000526020600020905b815481529060010190602001808311611fdd57829003601f168201915b505050505087613eaf565b8061201557506120158187613eaf565b156123eb57600082815260016020818152604092839020835161010081019094528054845291820180549184019161204c90614dc7565b80601f016020809104026020016040519081016040528092919081815260200182805461207890614dc7565b80156120c55780601f1061209a576101008083540402835291602001916120c5565b820191906000526020600020905b8154815290600101906020018083116120a857829003601f168201915b505050505081526020016002820180546120de90614dc7565b80601f016020809104026020016040519081016040528092919081815260200182805461210a90614dc7565b80156121575780601f1061212c57610100808354040283529160200191612157565b820191906000526020600020905b81548152906001019060200180831161213a57829003601f168201915b5050505050815260200160038201805461217090614dc7565b80601f016020809104026020016040519081016040528092919081815260200182805461219c90614dc7565b80156121e95780601f106121be576101008083540402835291602001916121e9565b820191906000526020600020905b8154815290600101906020018083116121cc57829003601f168201915b5050505050815260200160048201805461220290614dc7565b80601f016020809104026020016040519081016040528092919081815260200182805461222e90614dc7565b801561227b5780601f106122505761010080835404028352916020019161227b565b820191906000526020600020905b81548152906001019060200180831161225e57829003601f168201915b5050505050815260200160058201805461229490614dc7565b80601f01602080910402602001604051908101604052809291908181526020018280546122c090614dc7565b801561230d5780601f106122e25761010080835404028352916020019161230d565b820191906000526020600020905b8154815290600101906020018083116122f057829003601f168201915b5050505050815260200160068201805461232690614dc7565b80601f016020809104026020016040519081016040528092919081815260200182805461235290614dc7565b801561239f5780601f106123745761010080835404028352916020019161239f565b820191906000526020600020905b81548152906001019060200180831161238257829003601f168201915b5050509183525050600791909101546001600160a01b031660209091015284518590859081106123d1576123d1614f4f565b602002602001018190525082806123e790614e11565b9350505b50806123f681614e11565b915050611f11565b506000816001600160401b0381111561241957612419614168565b60405190808252806020026020018201604052801561245257816020015b61243f613ff9565b8152602001906001900390816124375790505b50905060005b828110156117735783818151811061247257612472614f4f565b602002602001015182828151811061248c5761248c614f4f565b602002602001018190525080806124a290614e11565b915050612458565b600b80549060006124ba83614e11565b90915550506040805161010081018252600b5480825260208083018a81528385018a9052606084018990526080840188905260a0840187905260c084018690523360e0850152600092835260019182905293909120825181559251919291908201906125269082614e79565b506040820151600282019061253b9082614e79565b50606082015160038201906125509082614e79565b50608082015160048201906125659082614e79565b5060a0820151600582019061257a9082614e79565b5060c0820151600682019061258f9082614e79565b5060e09190910151600790910180546001600160a01b0319166001600160a01b03909216919091179055505050505050565b600086815260016020526040812054900361261e5760405162461bcd60e51b815260206004820152601960248201527f52657374617572616e7420646f6573206e6f7420657869737400000000000000604482015260640161088f565b600c805490600061262e83614e11565b9190505550604051806101400160405280600c5481526020018881526020018281526020018781526020018681526020018581526020018415158152602001831515815260200160008152602001600081525060026000600c5481526020019081526020016000206000820151816000015560208201518160010190816126b59190614e79565b50604082015160028201906126ca9082614e79565b50606082015160038201556080820151600482015560a0820151600582015560c082015160068201805460e085015161ffff1990911692151561ff00191692909217610100921515830217905582015160078201556101209091015160089091015550505050505050565b60606000600c546001600160401b0381111561275357612753614168565b60405190808252806020026020018201604052801561278c57816020015b612779614047565b8152602001906001900390816127715790505b50905060015b600c548111611230576002600082815260200190815260200160002060405180610140016040529081600082015481526020016001820180546127d490614dc7565b80601f016020809104026020016040519081016040528092919081815260200182805461280090614dc7565b801561284d5780601f106128225761010080835404028352916020019161284d565b820191906000526020600020905b81548152906001019060200180831161283057829003601f168201915b5050505050815260200160028201805461286690614dc7565b80601f016020809104026020016040519081016040528092919081815260200182805461289290614dc7565b80156128df5780601f106128b4576101008083540402835291602001916128df565b820191906000526020600020905b8154815290600101906020018083116128c257829003601f168201915b5050509183525050600382015460208201526004820154604082015260058201546060820152600682015460ff8082161515608084015261010090910416151560a0820152600782015460c082015260089091015460e09091015282612946600184614f65565b8151811061295657612956614f4f565b6020026020010181905250808061296c90614e11565b915050612792565b80518251146129c05760405162461bcd60e51b81526020600482015260186024820152774d69736d617463686564206172726179206c656e6774687360401b604482015260640161088f565b6000838152600560205260409020600201546001600160a01b03163314612a295760405162461bcd60e51b815260206004820152601f60248201527f4f6e6c79207468652062757965722063616e20616464206120726174696e6700604482015260640161088f565b6000838152600560208190526040909120015462010000900460ff1615612a925760405162461bcd60e51b815260206004820152601f60248201527f4f6e6c79207468652062757965722063616e20616464206120726174696e6700604482015260640161088f565b60005b600084815260076020526040902054811015612d3c57600084815260066020526040812081612ac5846001615058565b815260200190815260200160002060000154905080600003612b295760405162461bcd60e51b815260206004820152601a60248201527f44657461696c4f7264657220646f6573206e6f74206578697374000000000000604482015260640161088f565b6001838381518110612b3d57612b3d614f4f565b602002602001015110158015612b6d57506005838381518110612b6257612b62614f4f565b602002602001015111155b612bb95760405162461bcd60e51b815260206004820152601d60248201527f5374617273206d757374206265206265747765656e203120616e642035000000604482015260640161088f565b6000818152600460205260408120805491612bd383614e11565b91905055506000600460008381526020019081526020016000205490506040518060a00160405280828152602001838152602001336001600160a01b03168152602001868581518110612c2857612c28614f4f565b60200260200101518152602001858581518110612c4757612c47614f4f565b60209081029190910181015190915260008481526003808352604080832086845284529182902084518155928401516001840155908301516002830180546001600160a01b0319166001600160a01b03909216919091179055606083015190820190612cb39082614e79565b5060808201518160040155905050838381518110612cd357612cd3614f4f565b6020026020010151600260008481526020019081526020016000206007016000828254612d009190615058565b90915550506000828152600260205260408120600801805491612d2283614e11565b919050555050508080612d3490614e11565b915050612a95565b505050600090815260056020819052604090912001805462ff0000191662010000179055565b60086020526000908152604090208054600182018054919291612d8490614dc7565b80601f0160208091040260200160405190810160405280929190818152602001828054612db090614dc7565b8015612dfd5780601f10612dd257610100808354040283529160200191612dfd565b820191906000526020600020905b815481529060010190602001808311612de057829003601f168201915b5050505050905082565b6060600060015b600d548111612e5a57600081815260056020526040902060020154336001600160a01b0390911603612e485781612e4481614e11565b9250505b80612e5281614e11565b915050612e0e565b506000816001600160401b03811115612e7557612e75614168565b604051908082528060200260200182016040528015612eae57816020015b612e9b613f8e565b815260200190600190039081612e935790505b509050600060015b600d548111610de457600081815260056020526040902060020154336001600160a01b039091160361308a57600081815260056020818152604092839020835161014081018552815481526001820154928101929092526002808201546001600160a01b031694830194909452600381015460608301526004810154608083015291820154909260a084019160ff1690811115612f5557612f55614392565b6002811115612f6657612f66614392565b81526020016005820160019054906101000a900460ff166002811115612f8e57612f8e614392565b6002811115612f9f57612f9f614392565b8152600582015460ff62010000820481161515602084015263010000009091041615156040820152600682018054606090920191612fdc90614dc7565b80601f016020809104026020016040519081016040528092919081815260200182805461300890614dc7565b80156130555780601f1061302a57610100808354040283529160200191613055565b820191906000526020600020905b81548152906001019060200180831161303857829003601f168201915b50505050508152505083838151811061307057613070614f4f565b6020026020010181905250818061308690614e11565b9250505b8061309481614e11565b915050612eb6565b60008451116130ff5760405162461bcd60e51b815260206004820152602960248201527f4f72646572206d75737420636f6e7461696e206174206c65617374206f6e6520604482015268666f6f64206974656d60b81b606482015260840161088f565b825184511461314b5760405162461bcd60e51b81526020600482015260186024820152774d69736d617463686564206172726179206c656e6774687360401b604482015260640161088f565b600d80546000918261315c83614e11565b91905055506000805b86518110156133d9576002600088838151811061318457613184614f4f565b60200260200101518152602001908152602001600020600001546000036131e35760405162461bcd60e51b8152602060048201526013602482015272119bdbd908191bd95cc81b9bdd08195e1a5cdd606a1b604482015260640161088f565b8160000361321e576002600088838151811061320157613201614f4f565b602002602001015181526020019081526020016000206003015491505b6002600088838151811061323457613234614f4f565b602002602001015181526020019081526020016000206003015482146132a65760405162461bcd60e51b815260206004820152602160248201527f666f6f64206e6f742066726f6d207468652073616d652072657374617572616e6044820152601d60fa1b606482015260840161088f565b60008682815181106132ba576132ba614f4f565b6020026020010151600260008a85815181106132d8576132d8614f4f565b60200260200101518152602001908152602001600020600501546132fc9190614f38565b90506133088185615058565b600d54600090815260076020526040812080549296509061332883614e11565b9190505550600060076000600d54815260200190815260200160002054905060405180606001604052808a858151811061336457613364614f4f565b6020026020010151815260200189858151811061338357613383614f4f565b602090810291909101810151825290810193909352600d546000908152600684526040808220938252928452829020815181559281015160018401550151600290910155806133d181614e11565b915050613165565b5060008415613440573360009081526009602052604090205460328111156133ff575060325b606461340b8286614f38565b613415919061506b565b33600090815260096020526040812080549294508392909190613439908490614f65565b9091555050505b604051806101400160405280600d548152602001838152602001336001600160a01b03168152602001828152602001828561347b9190614f65565b81526020016000815260200189600281111561349957613499614392565b81526000602080830182905260408084018390526060938401899052600d548352600580835292819020855181559185015160018084019190915590850151600280840180546001600160a01b0319166001600160a01b03909316929092179091559385015160038301556080850151600483015560a085015192820180549294909260ff19169190849081111561353357613533614392565b021790555060c082015160058201805461ff00191661010083600281111561355d5761355d614392565b021790555060e0820151600582018054610100850151151563010000000263ff0000001993151562010000029390931663ffff0000199091161791909117905561012082015160068201906135b29082614e79565b50503360009081526009602052604081208054600193509091906135d7908490615058565b90915550505050505050505050565b60006040518060800160405280336001600160a01b03168152602001856001600160a01b0316815260200184848080601f0160208091040260200160405190810160405280939291908181526020018383808284376000920182905250938552505042602093840152508054600181018255908052825160049091027f290decd9548b62a8d60345a988386fc84ba6bc95484008f6362f93160ef3e563810180546001600160a01b039384166001600160a01b0319918216178255938501517f290decd9548b62a8d60345a988386fc84ba6bc95484008f6362f93160ef3e5648301805491909416941693909317909155604083015192935083927f290decd9548b62a8d60345a988386fc84ba6bc95484008f6362f93160ef3e565909101906137109082614e79565b50606082015181600301555050836001600160a01b0316336001600160a01b03167f820e6d37b56b06482f38c0c5918db7d094c4b90fb974528a28d83440790640998585426040516137649392919061508d565b60405180910390a350505050565b600081815260026020526040812054606091036137c75760405162461bcd60e51b8152602060048201526013602482015272119bdbd908191bd95cc81b9bdd08195e1a5cdd606a1b604482015260640161088f565b60008281526004602052604081205490816001600160401b038111156137ef576137ef614168565b60405190808252806020026020018201604052801561385b57816020015b6138486040518060a00160405280600081526020016000815260200160006001600160a01b0316815260200160608152602001600081525090565b81526020019060019003908161380d5790505b50905060005b8281101561399457600085815260036020526040812090613883836001615058565b81526020808201929092526040908101600020815160a0810183528154815260018201549381019390935260028101546001600160a01b0316918301919091526003810180546060840191906138d890614dc7565b80601f016020809104026020016040519081016040528092919081815260200182805461390490614dc7565b80156139515780601f1061392657610100808354040283529160200191613951565b820191906000526020600020905b81548152906001019060200180831161393457829003601f168201915b5050505050815260200160048201548152505082828151811061397657613976614f4f565b6020026020010181905250808061398c90614e11565b915050613861565b509392505050565b600081815260076020526040812054606091816001600160401b038111156139c6576139c6614168565b604051908082528060200260200182016040528015613a1b57816020015b613a0860405180606001604052806000815260200160008152602001600081525090565b8152602001906001900390816139e45790505b50905060005b8281101561399457600085815260066020526040812090613a43836001615058565b81526020019081526020016000206040518060600160405290816000820154815260200160018201548152602001600282015481525050828281518110613a8c57613a8c614f4f565b60200260200101819052508080613aa290614e11565b915050613a21565b60606000805b600054811015613bdb57846001600160a01b031660008281548110613ad757613ad7614f4f565b60009182526020909120600490910201546001600160a01b0316148015613b355750836001600160a01b031660008281548110613b1657613b16614f4f565b60009182526020909120600160049092020101546001600160a01b0316145b80613bb65750836001600160a01b031660008281548110613b5857613b58614f4f565b60009182526020909120600490910201546001600160a01b0316148015613bb65750846001600160a01b031660008281548110613b9757613b97614f4f565b60009182526020909120600160049092020101546001600160a01b0316145b15613bc95781613bc581614e11565b9250505b80613bd381614e11565b915050613ab0565b506000816001600160401b03811115613bf657613bf6614168565b604051908082528060200260200182016040528015613c6457816020015b613c51604051806080016040528060006001600160a01b0316815260200160006001600160a01b0316815260200160608152602001600081525090565b815260200190600190039081613c145790505b5090506000805b600054811015613ea257866001600160a01b031660008281548110613c9257613c92614f4f565b60009182526020909120600490910201546001600160a01b0316148015613cf05750856001600160a01b031660008281548110613cd157613cd1614f4f565b60009182526020909120600160049092020101546001600160a01b0316145b80613d715750856001600160a01b031660008281548110613d1357613d13614f4f565b60009182526020909120600490910201546001600160a01b0316148015613d715750866001600160a01b031660008281548110613d5257613d52614f4f565b60009182526020909120600160049092020101546001600160a01b0316145b15613e905760008181548110613d8957613d89614f4f565b600091825260209182902060408051608081018252600490930290910180546001600160a01b0390811684526001820154169383019390935260028301805492939291840191613dd890614dc7565b80601f0160208091040260200160405190810160405280929190818152602001828054613e0490614dc7565b8015613e515780601f10613e2657610100808354040283529160200191613e51565b820191906000526020600020905b815481529060010190602001808311613e3457829003601f168201915b50505050508152602001600382015481525050838381518110613e7657613e76614f4f565b60200260200101819052508180613e8c90614e11565b9250505b80613e9a81614e11565b915050613c6b565b5090925050505b92915050565b81518151600091849184911015613ecb57600092505050613ea9565b60005b81518351613edc9190614f65565b8111613f8257600160005b8351811015613f5b57838181518110613f0257613f02614f4f565b01602001516001600160f81b03191685613f1c8386615058565b81518110613f2c57613f2c614f4f565b01602001516001600160f81b03191614613f495760009150613f5b565b80613f5381614e11565b915050613ee7565b508015613f6f576001945050505050613ea9565b5080613f7a81614e11565b915050613ece565b50600095945050505050565b604051806101400160405280600081526020016000815260200160006001600160a01b03168152602001600081526020016000815260200160006002811115613fd957613fd9614392565b815260200160008152600060208201819052604082015260609081015290565b6040518061010001604052806000815260200160608152602001606081526020016060815260200160608152602001606081526020016060815260200160006001600160a01b031681525090565b60405180610140016040528060008152602001606081526020016060815260200160008152602001600081526020016000815260200160001515815260200160001515815260200160008152602001600081525090565b6000602082840312156140b057600080fd5b5035919050565b6000815180845260005b818110156140dd576020818501810151868301820152016140c1565b506000602082860101526020601f19601f83011685010191505092915050565b60006101408c83528060208401526141178184018d6140b7565b9050828103604084015261412b818c6140b7565b606084019a909a525050608081019690965260a086019490945291151560c0850152151560e0840152610100830152610120909101529392505050565b634e487b7160e01b600052604160045260246000fd5b604051601f8201601f191681016001600160401b03811182821017156141a6576141a6614168565b604052919050565b600082601f8301126141bf57600080fd5b81356001600160401b038111156141d8576141d8614168565b6141eb601f8201601f191660200161417e565b81815284602083860101111561420057600080fd5b816020850160208301376000918101602001919091529392505050565b60006020828403121561422f57600080fd5b81356001600160401b0381111561424557600080fd5b614251848285016141ae565b949350505050565b80356001600160a01b038116811461427057600080fd5b919050565b60006020828403121561428757600080fd5b61429082614259565b9392505050565b600080604083850312156142aa57600080fd5b50508035926020909101359150565b85815284602082015260018060a01b038416604082015260a0606082015260006142e660a08301856140b7565b90508260808301529695505050505050565b60006020808301818452808551808352604092508286019150828160051b87010184880160005b8381101561438457888303603f19018552815180516001600160a01b03908116855288820151168885015286810151608088860181905290614363828701826140b7565b6060938401519690930195909552509487019492509086019060010161431f565b509098975050505050505050565b634e487b7160e01b600052602160045260246000fd5b600381106143c657634e487b7160e01b600052602160045260246000fd5b50565b6143d2816143a8565b9052565b60006020808301818452808551808352604092508286019150828160051b87010184880160005b8381101561438457603f198984030185528151805184528781015188850152868101516001600160a01b031687850152606080820151908501526080808201519085015260a0808201516101409190614458828801826143c9565b505060c08083015161446c828801826143c9565b505060e08281015115159086015261010080830151151590860152610120918201519185018190526144a0818601836140b7565b9689019694505050908601906001016143fd565b60006020808301818452808551808352604092508286019150828160051b87010184880160005b8381101561438457603f1989840301855281516101008151855288820151818a87015261450a828701826140b7565b915050878201518582038987015261452282826140b7565b9150506060808301518683038288015261453c83826140b7565b925050506080808301518683038288015261455783826140b7565b9250505060a0808301518683038288015261457283826140b7565b9250505060c0808301518683038288015261458d83826140b7565b9250505060e08083015192506145ad818701846001600160a01b03169052565b5095880195935050908601906001016144db565b60006020808301818452808551808352604092508286019150828160051b87010184880160005b8381101561438457888303603f19018552815180518452870151878401879052614614878501826140b7565b95880195935050908601906001016145e8565b60006020808301818452808551808352604092508286019150828160051b87010184880160005b8381101561438457603f1989840301855281516101408151855288820151818a87015261467d828701826140b7565b915050878201518582038987015261469582826140b7565b606084810151908801526080808501519088015260a0808501519088015260c08085015115159088015260e08085015115159088015261010080850151908801526101209384015193909601929092525050938601939086019060010161464e565b8a8152602081018a90526001600160a01b03891660408201526060810188905260808101879052600061014061472c886143a8565b8760a084015261473b876143a8565b8660c084015285151560e084015284151561010084015280610120840152614765818401856140b7565b9d9c50505050505050505050505050565b600381106143c657600080fd5b6000806040838503121561479657600080fd5b8235915060208301356147a881614776565b809150509250929050565b60006101008a83528060208401526147cd8184018b6140b7565b905082810360408401526147e1818a6140b7565b905082810360608401526147f581896140b7565b9050828103608084015261480981886140b7565b905082810360a084015261481d81876140b7565b905082810360c084015261483181866140b7565b91505060018060a01b03831660e08301529998505050505050505050565b60008060008060008060c0878903121561486857600080fd5b86356001600160401b038082111561487f57600080fd5b61488b8a838b016141ae565b975060208901359150808211156148a157600080fd5b6148ad8a838b016141ae565b965060408901359150808211156148c357600080fd5b6148cf8a838b016141ae565b955060608901359150808211156148e557600080fd5b6148f18a838b016141ae565b9450608089013591508082111561490757600080fd5b6149138a838b016141ae565b935060a089013591508082111561492957600080fd5b5061493689828a016141ae565b9150509295509295509295565b8035801515811461427057600080fd5b600080600080600080600060e0888a03121561496e57600080fd5b87356001600160401b038082111561498557600080fd5b6149918b838c016141ae565b985060208a0135975060408a0135965060608a013595506149b460808b01614943565b94506149c260a08b01614943565b935060c08a01359150808211156149d857600080fd5b506149e58a828b016141ae565b91505092959891949750929550565b60006001600160401b03821115614a0d57614a0d614168565b5060051b60200190565b600082601f830112614a2857600080fd5b81356020614a3d614a38836149f4565b61417e565b82815260059290921b84018101918181019086841115614a5c57600080fd5b8286015b84811015614a775780358352918301918301614a60565b509695505050505050565b600080600060608486031215614a9757600080fd5b833592506020808501356001600160401b0380821115614ab657600080fd5b818701915087601f830112614aca57600080fd5b8135614ad8614a38826149f4565b81815260059190911b8301840190848101908a831115614af757600080fd5b8585015b83811015614b2f57803585811115614b135760008081fd5b614b218d89838a01016141ae565b845250918601918601614afb565b50965050506040870135925080831115614b4857600080fd5b5050614b5686828701614a17565b9150509250925092565b82815260406020820152600061425160408301846140b7565b600080600080600060a08688031215614b9157600080fd5b8535614b9c81614776565b945060208601356001600160401b0380821115614bb857600080fd5b614bc489838a01614a17565b95506040880135915080821115614bda57600080fd5b614be689838a01614a17565b9450614bf460608901614943565b93506080880135915080821115614c0a57600080fd5b50614c17888289016141ae565b9150509295509295909350565b600080600060408486031215614c3957600080fd5b614c4284614259565b925060208401356001600160401b0380821115614c5e57600080fd5b818601915086601f830112614c7257600080fd5b813581811115614c8157600080fd5b876020828501011115614c9357600080fd5b6020830194508093505050509250925092565b60006020808301818452808551808352604092508286019150828160051b87010184880160005b8381101561438457888303603f190185528151805184528781015188850152868101516001600160a01b03168785015260608082015160a08287018190529190614d19838801826140b7565b6080948501519790940196909652505094870194925090860190600101614ccd565b602080825282518282018190526000919060409081850190868401855b82811015614d875781518051855286810151878601528501518585015260609093019290850190600101614d58565b5091979650505050505050565b60008060408385031215614da757600080fd5b614db083614259565b9150614dbe60208401614259565b90509250929050565b600181811c90821680614ddb57607f821691505b60208210810361123057634e487b7160e01b600052602260045260246000fd5b634e487b7160e01b600052601160045260246000fd5b600060018201614e2357614e23614dfb565b5060010190565b601f821115614e7457600081815260208120601f850160051c81016020861015614e515750805b601f850160051c820191505b81811015614e7057828155600101614e5d565b5050505b505050565b81516001600160401b03811115614e9257614e92614168565b614ea681614ea08454614dc7565b84614e2a565b602080601f831160018114614edb5760008415614ec35750858301515b600019600386901b1c1916600185901b178555614e70565b600085815260208120601f198616915b82811015614f0a57888601518255948401946001909101908401614eeb565b5085821015614f285787850151600019600388901b60f8161c191681555b5050505050600190811b01905550565b8082028115828204841417613ea957613ea9614dfb565b634e487b7160e01b600052603260045260246000fd5b81810381811115613ea957613ea9614dfb565b82815260408101614f88836143a8565b8260208301529392505050565b60008154614fa281614dc7565b60018281168015614fba5760018114614fcf57614ffe565b60ff1984168752821515830287019450614ffe565b8560005260208060002060005b85811015614ff55781548a820152908401908201614fdc565b50505082870194505b5050505092915050565b60006150148287614f95565b600160fd1b8082526150296001830188614f95565b915080825261503b6001830187614f95565b908152905061504d6001820185614f95565b979650505050505050565b80820180821115613ea957613ea9614dfb565b60008261508857634e487b7160e01b600052601260045260246000fd5b500490565b604081528260408201528284606083013760006060848301015260006060601f19601f860116830101905082602083015294935050505056fea2646970667358221220e71a46ef3172303c1b1a05595710badbc5a9236f507ecf3a8083bdf2092fe8bc64736f6c63430008130033",
  "immutableReferences": {},
  "source": "// SPDX-License-Identifier: GPL-3.0\npragma solidity ^0.8.19;\n\ncontract Bookfood {\n\n    constructor(address payable  _beneficiary){\n       beneficiary= _beneficiary;\n    }\n\n    enum OrderStatus { Pending, Preparing, Delivered }\n    enum Payment  { Ewallet,Cash, CreditCard }\n\n    struct FoodCategory {\n        uint id;\n        string name;\n    }\n    \n    struct Restaurant {\n        uint id;\n        string name;\n        string houseNumber;\n        string street;\n        string ward;\n        string district;\n        string city;\n        address owner;\n    }\n\n    struct Food {\n        uint id;\n        string name;\n        string img;\n        uint restaurantId;\n        uint categoryId;\n        uint price;\n        bool isVegan;\n        bool isGlutenFree;\n        uint totalStars;\n        uint totalRatings;\n    }\n\n    struct Rating {\n        uint id;\n        uint foodId;\n        address user;\n        string review;\n        uint stars;\n    }\n\n    struct Order {\n        uint id;\n        uint restaurantId;\n        address customer;\n        uint discount;\n        uint totalPrice;\n        OrderStatus status;\n        Payment payment;\n        bool isReviewed;\n        bool isPay;\n        string note;\n    }\n\n    struct DetailOrder {\n        uint foodId;\n        uint quantity;\n        uint price;\n    }\n\n    struct Message {\n        address sender;\n        address receiver;\n        string message;\n        uint timestamp;\n    }\n\n    Message[] private messages;\n\n    mapping(uint => Restaurant) public restaurants;\n    mapping(uint => Food) public foods;\n    mapping(uint => mapping(uint => Rating)) public ratings;\n    mapping(uint => uint) public ratingCountPerFood; \n    mapping(uint => Order) public orders;\n    mapping(uint => mapping(uint => DetailOrder)) public orderDetails; \n    mapping(uint => uint) public orderDetailCount;\n    mapping(uint => FoodCategory) public categories; \n    mapping(address => uint) public points;\n\n    address payable public beneficiary;\n    uint restaurantCount;\n    uint foodCount;\n    uint orderCount;\n    uint categoryCount;\n\n    event OrderStatusUpdated(uint orderId, address indexed customer, OrderStatus status);\n    event NewMessage(address indexed sender, address indexed receiver, string message, uint timestamp);\n    \n\n    function processPayment(uint _orderId) public payable {\n        Order storage order = orders[_orderId];\n        require(order.customer == msg.sender, \"Only order owner can pay\");\n        \n        uint amountToPay = order.totalPrice;\n        require((msg.value *1000) >= amountToPay, \"Insufficient payment\");\n        \n        beneficiary.transfer(msg.value);\n        order.isPay=true;\n    }\n    \n    function addRestaurant(\n        string memory _name, \n        string memory _houseNumber, \n        string memory _street, \n        string memory _ward, \n        string memory _district, \n        string memory _city\n        // address _owner\n        \n    ) public {\n        //  require(_owner != address(0), \"Owner address cannot be zero\");\n        restaurantCount++;\n        restaurants[restaurantCount] = Restaurant(\n            restaurantCount, \n            _name, \n            _houseNumber, \n            _street, \n            _ward, \n            _district, \n            _city, \n            msg.sender\n        );\n    }\n\n    function addCategory(string memory _name) public {\n        categoryCount++;\n        categories[categoryCount] = FoodCategory(categoryCount, _name);\n    }\n    function addFood(\n        string memory _name, uint _restaurantId, uint _categoryId,\n        uint _price, bool _isVegan, bool _isGlutenFree, string memory img\n    ) public {\n        require(restaurants[_restaurantId].id != 0, \"Restaurant does not exist\");\n        foodCount++;\n        foods[foodCount] = Food(\n            foodCount, _name,img, _restaurantId, _categoryId,\n            _price, _isVegan, _isGlutenFree, 0, 0\n        );\n    }\n\nfunction addRating(uint _idOrder, string[] memory _reviews, uint[] memory _stars) public {\n    require(_reviews.length == _stars.length, \"Mismatched array lengths\");   \n    require(orders[_idOrder].customer == msg.sender, \"Only the buyer can add a rating\");\n    require(orders[_idOrder].isReviewed == false, \"Only the buyer can add a rating\");\n    \n\n    for (uint i = 0; i < orderDetailCount[_idOrder]; i++) {\n        uint foodId = orderDetails[_idOrder][i+1].foodId; // Ly foodId t orderDetails\n        require(foodId != 0, \"DetailOrder does not exist\"); // Kim tra xem orderDetail c tn ti khng\n        require(_stars[i] >= 1 && _stars[i] <= 5, \"Stars must be between 1 and 5\");\n        \n        ratingCountPerFood[foodId]++;\n        uint newRatingId = ratingCountPerFood[foodId];\n        ratings[foodId][newRatingId] = Rating(newRatingId, foodId, msg.sender, _reviews[i], _stars[i]);\n\n        // Cp nht tng im nh gi\n        foods[foodId].totalStars += _stars[i];\n        foods[foodId].totalRatings++;\n    }\n    orders[_idOrder].isReviewed = true;\n}\n\n    \n    function placeOrder(Payment _payment,uint[] memory _foodIds, uint[] memory _quantities, bool UsePoint,string memory note) \n    public {\n        require(_foodIds.length > 0, \"Order must contain at least one food item\");\n        require(_foodIds.length == _quantities.length, \"Mismatched array lengths\");\n\n        uint totalPrice = 0;\n        orderCount++;\n        uint temp_resId=0;\n\n\n        for (uint i = 0; i < _foodIds.length; i++) {\n            require(foods[_foodIds[i]].id != 0, \"Food does not exist\");\n            if(temp_resId==0){\n                temp_resId=foods[_foodIds[i]].restaurantId;\n            }\n            require(temp_resId==foods[_foodIds[i]].restaurantId, \"food not from the same restaurant\");\n            // Tnh tng gi tin\n            uint itemPrice = foods[_foodIds[i]].price * _quantities[i];\n            totalPrice += itemPrice;\n            orderDetailCount[orderCount]++;\n            uint itemIndex = orderDetailCount[orderCount];\n            orderDetails[orderCount][itemIndex] = DetailOrder(_foodIds[i], _quantities[i], itemPrice);\n        }\n\n        // p dng im thng nu c\n        uint discount = 0;\n        if (UsePoint) {\n            uint availablePoints = points[msg.sender] ;\n            if(availablePoints>50) availablePoints=50;\n            discount = totalPrice * availablePoints / 100; // Gim ti a 50%\n\n            points[msg.sender] -= availablePoints; \n        }\n        orders[orderCount] = Order(orderCount,temp_resId, msg.sender,discount, totalPrice-discount, \n        OrderStatus.Pending,_payment,false,false,note);\n        points[msg.sender] += 1; \n    }\n\n    function updateOrderStatus(uint _orderId, OrderStatus _status) public {\n        require(orders[_orderId].id != 0, \"Order does not exist\");\n        require(uint(_status) > uint(orders[_orderId].status), \"Invalid status transition\");\n\n        address restaurantOwner = restaurants[orders[_orderId].restaurantId].owner;\n        require(msg.sender == restaurantOwner || msg.sender == beneficiary, \"Only restaurant owner or beneficiary can update status\");\n        \n        // Nu phng thc thanh ton l Ewallet th phi kim tra isPay\n        if (orders[_orderId].payment == Payment.Ewallet) {\n            require(orders[_orderId].isPay, \"Payment must be completed for Ewallet orders\");\n        }\n        \n        orders[_orderId].status = _status;\n        emit OrderStatusUpdated(_orderId,  orders[_orderId].customer, _status);\n    }\n\n    \n    function sendMessage(address receiver, string calldata messageText) external {\n        Message memory newMessage = Message(msg.sender, receiver, messageText, block.timestamp);\n        messages.push(newMessage);\n\n        emit NewMessage(msg.sender, receiver, messageText, block.timestamp);\n    }\n    \n    function getMyMessages(address userA, address userB) external view returns (Message[] memory) {\n        uint count = 0;\n\n        for (uint i = 0; i < messages.length; i++) {\n            if (\n                (messages[i].sender == userA && messages[i].receiver == userB) ||\n                (messages[i].sender == userB && messages[i].receiver == userA)\n            ) {\n                count++;\n            }\n        }\n\n        Message[] memory result = new Message[](count);\n        uint index = 0;\n\n        for (uint i = 0; i < messages.length; i++) {\n            if (\n                (messages[i].sender == userA && messages[i].receiver == userB) ||\n                (messages[i].sender == userB && messages[i].receiver == userA)\n            ) {\n                result[index] = messages[i];\n                index++;\n            }\n        }\n\n        return result;\n    }\n\n    function getAllMessages() external view returns (Message[] memory) {\n        return messages;\n    }\n    \n    function getAllRestaurants() public view returns (Restaurant[] memory) {\n        Restaurant[] memory allRestaurants = new Restaurant[](restaurantCount);\n        for (uint i = 1; i <= restaurantCount; i++) {\n            allRestaurants[i - 1] = restaurants[i];\n        }\n        return allRestaurants;\n    }\n\n    function getAllFoods() public view returns (Food[] memory) {\n        Food[] memory allFoods = new Food[](foodCount);\n        for (uint i = 1; i <= foodCount; i++) {\n            allFoods[i - 1] = foods[i];\n        }\n        return allFoods;\n    }\n\n    \n    function getAllCategory() public view returns (FoodCategory[] memory) {\n        FoodCategory[] memory allCate = new FoodCategory[](categoryCount);\n        for (uint i = 1; i <= categoryCount; i++) {\n            allCate[i - 1] = categories[i];\n        }\n        return allCate;\n    }\n\n\nfunction getOrdersBySender() public view returns (Order[] memory) {\n\n        uint count = 0;\n\n        // m s lng n hng ca sender\n        for (uint i = 1; i <= orderCount; i++) {\n            if (orders[i].customer == msg.sender) {\n                count++;\n            }\n        }\n\n        // To mng kt qu\n        Order[] memory senderOrders = new Order[](count);\n        uint index = 0;\n        for (uint i = 1; i <= orderCount; i++) {\n            if (orders[i].customer == msg.sender) {\n                senderOrders[index] = orders[i];\n                index++;\n            }\n        }\n\n        return senderOrders;\n    }\n\n\n    function getOrderDetails(uint _orderId) public view returns (DetailOrder[] memory) {\n        uint itemCount = orderDetailCount[_orderId];\n        DetailOrder[] memory items = new DetailOrder[](itemCount);\n\n        for (uint i = 0; i < itemCount; i++) {\n            items[i] = orderDetails[_orderId][i+1];\n        }\n\n        return items;\n    }\n\n    function getRatingsForFood(uint _foodId) public view returns (Rating[] memory) {\n        require(foods[_foodId].id != 0, \"Food does not exist\");\n\n        uint count = ratingCountPerFood[_foodId];\n        Rating[] memory foodRatings = new Rating[](count);\n        \n        for (uint i = 0; i < count; i++) {\n            foodRatings[i] = ratings[_foodId][i+1];\n        }\n        \n        return foodRatings;\n    }\n\n    function searchRestaurants( string memory _keyword) public view returns (Restaurant[] memory) {\n        Restaurant[] memory tempResults = new Restaurant[](restaurantCount);\n        uint count = 0;\n\n        for (uint i = 1; i <= restaurantCount; i++) {\n            string memory fullLocation = string(\n                abi.encodePacked(\n                    restaurants[i].street, \" \", \n                    restaurants[i].ward, \" \", \n                    restaurants[i].district, \" \", \n                    restaurants[i].city\n                )\n            );\n\n            if (\n                (_contains(restaurants[i].name, _keyword) ||\n                _contains(fullLocation, _keyword))\n            ) {\n                tempResults[count] = restaurants[i];\n                count++;\n            }\n        }\n\n        // To mt mng ng kch thc  tr v\n        Restaurant[] memory results = new Restaurant[](count);\n        for (uint j = 0; j < count; j++) {\n            results[j] = tempResults[j];\n        }\n        return results;\n    }\n\n    function searchFood( string memory _keyword) public view returns (Food[] memory) {\n        Food[] memory tempResults = new Food[](foodCount);\n        uint count = 0;\n\n        for (uint i = 1; i <= foodCount; i++) {\n            if (\n                (_contains(foods[i].name, _keyword) ||\n                _contains(categories[foods[i].categoryId].name, _keyword))\n            ) {\n                tempResults[count] = foods[i];\n                count++;\n            }\n        }\n\n        // To mt mng ng kch thc  tr v\n        Food[] memory results = new Food[](count);\n        for (uint j = 0; j < count; j++) {\n            results[j] = tempResults[j];\n        }\n        return results;\n    }\n\n    function _contains(string memory _str, string memory _keyword) internal pure returns (bool) {\n        bytes memory strBytes = bytes(_str);\n        bytes memory keywordBytes = bytes(_keyword);\n        \n        if (keywordBytes.length > strBytes.length) return false;\n\n        for (uint i = 0; i <= strBytes.length - keywordBytes.length; i++) {\n            bool found = true;\n            for (uint j = 0; j < keywordBytes.length; j++) {\n                if (strBytes[i + j] != keywordBytes[j]) {\n                    found = false;\n                    break;\n                }\n            }\n            if (found) return true;\n        }\n        return false;\n    }\n\n    function getAllOrders() public view returns (Order[] memory) {\n        uint count = 0;\n\n        // m tng s order ca msg.sender\n        for (uint i = 1; i <= orderCount; i++) {\n            uint restId = orders[i].restaurantId;\n            if (restaurants[restId].owner == msg.sender) {\n                count++;\n            }\n        }\n\n        Order[] memory ownerOrders = new Order[](count);\n        uint index = 0;\n        \n        for (uint i = 1; i <= orderCount; i++) {\n            uint restId = orders[i].restaurantId;\n            if (restaurants[restId].owner == msg.sender) {\n                ownerOrders[index] = orders[i];\n                index++;\n            }\n        }\n\n        return ownerOrders;\n    }\n    // function filterFoods(\n    //     uint _minPrice, \n    //     uint _maxPrice, \n    //     uint _categoryId, \n    //     uint _minRating, \n    //     bool _isVegan, \n    //     bool _isGlutenFree\n    // ) public view returns (Food[] memory) {\n    //     Food[] memory tempFoods = new Food[](foodCount);\n    //     uint count = 0;\n\n    //     for (uint i = 1; i <= foodCount; i++) {\n    //         Food storage food = foods[i];\n    //         uint avgRating = (food.totalRatings > 0) ? (food.totalStars / food.totalRatings) : 0;\n\n    //         // Kim tra iu kin lc\n    //         bool matchesCategory = (_categoryId == 0 || food.categoryId == _categoryId);\n    //         bool matchesPrice = (food.price >= _minPrice && food.price <= _maxPrice);\n    //         bool matchesRating = (avgRating >= _minRating);\n    //         bool matchesVegan = (!_isVegan || food.isVegan);\n    //         bool matchesGlutenFree = (!_isGlutenFree || food.isGlutenFree);\n\n    //         if (matchesCategory && matchesPrice && matchesRating && matchesVegan && matchesGlutenFree) {\n    //             tempFoods[count] = food;\n    //             count++;\n    //         }\n    //     }\n\n    //     // To mng kt qu c kch thc ng\n    //     Food[] memory filteredFoods = new Food[](count);\n    //     for (uint j = 0; j < count; j++) {\n    //         filteredFoods[j] = tempFoods[j];\n    //     }\n\n    //     return filteredFoods;\n    // }\n\n\n}",
  "sourcePath": "D:\\ReactJs\\bookfoodFEW3-master\\contracts\\Bookfood.sol",
  "compiler": {
    "name": "solc",
    "version": "0.8.19+commit.7dd6d404.Emscripten.clang"
  },
  "schemaVersion": "3.4.16",
  "updatedAt": "2025-04-19T12:57:51.411Z",
  "networkType": "ethereum",
  "devdoc": {
    "kind": "dev",
    "methods": {},
    "version": 1
  },
  "userdoc": {
    "kind": "user",
    "methods": {},
    "version": 1
  }
}